Headerzao daora
012015010202UGPA3       010ULTRAPAR    ON      NM   R$  000000000511000000000051380000000005016000000000505100000000050660000000005037000000000506606687000000000001317900000000006657046200000000000000009999123100000010000000000000BRUGPAACNOR8134
012015010502UGPA3       010ULTRAPAR    ON      NM   R$  000000000496500000000050250000000004930000000000495700000000049410000000004941000000000494908126000000000001463100000000007253042700000000000000009999123100000010000000000000BRUGPAACNOR8134
012015010602UGPA3       010ULTRAPAR    ON      NM   R$  000000000493300000000049840000000004888000000000491200000000049100000000004910000000000491406959000000000002010900000000009879439800000000000000009999123100000010000000000000BRUGPAACNOR8134
012015010702UGPA3       010ULTRAPAR    ON      NM   R$  000000000497500000000051500000000004955000000000506500000000050400000000005040000000000504709991000000000002106900000000010672820300000000000000009999123100000010000000000000BRUGPAACNOR8134
012015010802UGPA3       010ULTRAPAR    ON      NM   R$  000000000507800000000051160000000004978000000000503300000000050240000000005024000000000503105467000000000000847300000000004265068000000000000000009999123100000010000000000000BRUGPAACNOR8134
012015010902UGPA3       010ULTRAPAR    ON      NM   R$  000000000498000000000050090000000004891000000000493600000000049500000000004903000000000495805734000000000001327500000000006553272600000000000000009999123100000010000000000000BRUGPAACNOR8134
012015011202UGPA3       010ULTRAPAR    ON      NM   R$  000000000490200000000049500000000004853000000000489100000000049000000000004893000000000490005507000000000000938300000000004589698900000000000000009999123100000010000000000000BRUGPAACNOR8134
012015011302UGPA3       010ULTRAPAR    ON      NM   R$  000000000491100000000049820000000004864000000000492400000000049240000000004920000000000492405092000000000000945500000000004656194500000000000000009999123100000010000000000000BRUGPAACNOR8134
012015011402UGPA3       010ULTRAPAR    ON      NM   R$  000000000491900000000049880000000004885000000000492800000000049250000000004925000000000493004880000000000000830200000000004091962500000000000000009999123100000010000000000000BRUGPAACNOR8134
012015011502UGPA3       010ULTRAPAR    ON      NM   R$  000000000495400000000050390000000004943000000000498100000000049550000000004954000000000497506181000000000001288700000000006419158800000000000000009999123100000010000000000000BRUGPAACNOR8134
012015011602UGPA3       010ULTRAPAR    ON      NM   R$  000000000496800000000051370000000004934000000000504800000000050650000000005031000000000506605943000000000001000900000000005052608700000000000000009999123100000010000000000000BRUGPAACNOR8134
012015011902UGPA3       010ULTRAPAR    ON      NM   R$  000000000502600000000050780000000004906000000000499400000000049930000000004910000000000499303528000000000000789000000000003940413800000000000000009999123100000010000000000000BRUGPAACNOR8134
012015012002UGPA3       010ULTRAPAR    ON      NM   R$  000000000506000000000050920000000005020000000000506300000000050580000000005058000000000508004622000000000001091600000000005527621900000000000000009999123100000010000000000000BRUGPAACNOR8134
012015012102UGPA3       010ULTRAPAR    ON      NM   R$  000000000510000000000052830000000005065000000000516900000000052050000000005182000000000520507136000000000001577500000000008155042800000000000000009999123100000010000000000000BRUGPAACNOR8134
012015012202UGPA3       010ULTRAPAR    ON      NM   R$  000000000528100000000053800000000005152000000000524500000000052500000000005219000000000525006708000000000001250000000000006557314500000000000000009999123100000010000000000000BRUGPAACNOR8134
012015012302UGPA3       010ULTRAPAR    ON      NM   R$  000000000525000000000053160000000005222000000000527300000000052900000000005234000000000529005994000000000001004000000000005294263800000000000000009999123100000010000000000000BRUGPAACNOR8134
012015012602UGPA3       010ULTRAPAR    ON      NM   R$  000000000521100000000052890000000005179000000000521900000000052410000000005232000000000524105709000000000000892000000000004656121500000000000000009999123100000010000000000000BRUGPAACNOR8134
012015012702UGPA3       010ULTRAPAR    ON      NM   R$  000000000519300000000052780000000005065000000000518300000000052500000000005250000000000527208334000000000001355000000000007024156600000000000000009999123100000010000000000000BRUGPAACNOR8134
012015012802UGPA3       010ULTRAPAR    ON      NM   R$  000000000517700000000052560000000005082000000000519700000000052110000000005211000000000522006454000000000001351200000000007024921200000000000000009999123100000010000000000000BRUGPAACNOR8134
012015012902UGPA3       010ULTRAPAR    ON      NM   R$  000000000520500000000052990000000005142000000000523300000000052990000000005239000000000529905196000000000001177200000000006161876700000000000000009999123100000010000000000000BRUGPAACNOR8134
012015013002UGPA3       010ULTRAPAR    ON      NM   R$  000000000517300000000053000000000005173000000000526700000000053000000000005300000000000530107006000000000001806100000000009516257500000000000000009999123100000010000000000000BRUGPAACNOR8134
012015020202UGPA3       010ULTRAPAR    ON      NM   R$  000000000530100000000054590000000005262000000000538600000000054370000000005420000000000543706670000000000001256100000000006766215100000000000000009999123100000010000000000000BRUGPAACNOR8134
012015020302UGPA3       010ULTRAPAR    ON      NM   R$  000000000548000000000055100000000005376000000000541800000000054500000000005447000000000545010280000000000001596700000000008651043500000000000000009999123100000010000000000000BRUGPAACNOR8134
012015020402UGPA3       010ULTRAPAR    ON      NM   R$  000000000544700000000055220000000005358000000000545000000000054600000000005460000000000547809278000000000002451300000000013359984700000000000000009999123100000010000000000000BRUGPAACNOR8134
012015020502UGPA3       010ULTRAPAR    ON      NM   R$  000000000540500000000055520000000005405000000000550900000000055520000000005524000000000555206372000000000001509400000000008316760200000000000000009999123100000010000000000000BRUGPAACNOR8134
012015020602UGPA3       010ULTRAPAR    ON      NM   R$  000000000559000000000056180000000005460000000000556200000000056180000000005610000000000561808940000000000002164800000000012041517100000000000000009999123100000010000000000000BRUGPAACNOR8134
012015020902UGPA3       010ULTRAPAR    ON      NM   R$  000000000560000000000057690000000005509000000000562900000000056730000000005640000000000567309811000000000002069500000000011651923200000000000000009999123100000010000000000000BRUGPAACNOR8134
012015021002UGPA3       010ULTRAPAR    ON      NM   R$  000000000561200000000056480000000005573000000000559800000000055900000000005590000000000560208390000000000001736000000000009719012700000000000000009999123100000010000000000000BRUGPAACNOR8134
012015021102UGPA3       010ULTRAPAR    ON      NM   R$  000000000558100000000055970000000005453000000000552400000000055590000000005559000000000556006277000000000001206400000000006665556800000000000000009999123100000010000000000000BRUGPAACNOR8134
012015021202UGPA3       010ULTRAPAR    ON      NM   R$  000000000559800000000057250000000005576000000000568700000000056910000000005691000000000570006460000000000001937000000000011015824000000000000000009999123100000010000000000000BRUGPAACNOR8134
012015021302UGPA3       010ULTRAPAR    ON      NM   R$  000000000573200000000058000000000005676000000000573200000000057900000000005764000000000579007469000000000001871100000000010726888900000000000000009999123100000010000000000000BRUGPAACNOR8134
012015021802UGPA3       010ULTRAPAR    ON      NM   R$  000000000578900000000058830000000005741000000000580800000000057940000000005790000000000579409218000000000001728400000000010040035400000000000000009999123100000010000000000000BRUGPAACNOR8134
012015021902UGPA3       010ULTRAPAR    ON      NM   R$  000000000580000000000058090000000005700000000000575000000000057810000000005779000000000578105259000000000001359800000000007820218900000000000000009999123100000010000000000000BRUGPAACNOR8134
012015022002UGPA3       010ULTRAPAR    ON      NM   R$  000000000579000000000058400000000005670000000000570400000000057000000000005691000000000570005946000000000001561200000000008906399500000000000000009999123100000010000000000000BRUGPAACNOR8134
012015022302UGPA3       010ULTRAPAR    ON      NM   R$  000000000563400000000058220000000005634000000000572900000000057500000000005725000000000575005165000000000000993200000000005689941000000000000000009999123100000010000000000000BRUGPAACNOR8134
012015022402UGPA3       010ULTRAPAR    ON      NM   R$  000000000576400000000058430000000005690000000000579000000000058340000000005800000000000583407111000000000001423100000000008240309100000000000000009999123100000010000000000000BRUGPAACNOR8134
012015022502UGPA3       010ULTRAPAR    ON      NM   R$  000000000579800000000059000000000005692000000000580000000000058590000000005859000000000586206051000000000001458600000000008461731700000000000000009999123100000010000000000000BRUGPAACNOR8134
012015022602UGPA3       010ULTRAPAR    ON      NM   R$  000000000599000000000059980000000005751000000000590000000000059500000000005944000000000595007774000000000002097500000000012377166100000000000000009999123100000010000000000000BRUGPAACNOR8134
012015022702UGPA3       010ULTRAPAR    ON      NM   R$  000000000591500000000061000000000005866000000000596300000000059580000000005956000000000595809268000000000001817200000000010835487400000000000000009999123100000010000000000000BRUGPAACNOR8134
012015030202UGPA3       010ULTRAPAR    ON      NM   R$  000000000590800000000059450000000005842000000000589500000000059130000000005913000000000591505386000000000001022200000000006026449600000000000000009999123100000010000000000000BRUGPAACNOR8134
012015030302UGPA3       010ULTRAPAR    ON      NM   R$  000000000590600000000060100000000005901000000000595700000000060100000000006009000000000601006139000000000001505700000000008970957000000000000000009999123100000010000000000000BRUGPAACNOR8134
012015030402UGPA3       010ULTRAPAR    ON      NM   R$  000000000596000000000059600000000005825000000000587300000000058850000000005885000000000590007206000000000001432600000000008414493900000000000000009999123100000010000000000000BRUGPAACNOR8134
012015030502UGPA3       010ULTRAPAR    ON  ED  NM   R$  000000000586600000000058810000000005775000000000581100000000058520000000005852000000000586006409000000000001595400000000009271325900000000000000009999123100000010000000000000BRUGPAACNOR8135
012015030602UGPA3       010ULTRAPAR    ON  ED  NM   R$  000000000584800000000059020000000005800000000000583300000000058400000000005837000000000584005048000000000002273300000000013261150800000000000000009999123100000010000000000000BRUGPAACNOR8135
012015030902UGPA3       010ULTRAPAR    ON  ED  NM   R$  000000000588300000000058830000000005722000000000576400000000057500000000005745000000000575007503000000000001654800000000009539367500000000000000009999123100000010000000000000BRUGPAACNOR8135
012015031002UGPA3       010ULTRAPAR    ON  ED  NM   R$  000000000570000000000057430000000005635000000000568200000000056700000000005667000000000567008608000000000001577900000000008966629300000000000000009999123100000010000000000000BRUGPAACNOR8135
012015031102UGPA3       010ULTRAPAR    ON  ED  NM   R$  000000000566000000000057190000000005650000000000569200000000057090000000005697000000000570906920000000000002245000000000012778859300000000000000009999123100000010000000000000BRUGPAACNOR8135
012015031202UGPA3       010ULTRAPAR    ON  ED  NM   R$  000000000580000000000058710000000005760000000000581700000000058480000000005821000000000584806725000000000002295900000000013355849800000000000000009999123100000010000000000000BRUGPAACNOR8135
012015031302UGPA3       010ULTRAPAR    ON  ED  NM   R$  000000000571000000000058110000000005695000000000575200000000058110000000005798000000000581109481000000000001603700000000009225566200000000000000009999123100000010000000000000BRUGPAACNOR8135
012015031602UGPA3       010ULTRAPAR    ON  ED  NM   R$  000000000584000000000059100000000005827000000000586600000000059040000000005898000000000590907285000000000002081700000000012211409500000000000000009999123100000010000000000000BRUGPAACNOR8135
012015031702UGPA3       010ULTRAPAR    ON      NM   R$  000000000590000000000060570000000005862000000000595100000000059940000000005994000000000600007407000000000001841200000000010957050900000000000000009999123100000010000000000000BRUGPAACNOR8135
012015031802UGPA3       010ULTRAPAR    ON      NM   R$  000000000597000000000061790000000005942000000000607200000000061200000000006120000000000613108804000000000002527500000000015348753800000000000000009999123100000010000000000000BRUGPAACNOR8135
012015031902UGPA3       010ULTRAPAR    ON      NM   R$  000000000613800000000061530000000006050000000000609700000000061150000000006075000000000611504990000000000003353800000000020449708700000000000000009999123100000010000000000000BRUGPAACNOR8135
012015032002UGPA3       010ULTRAPAR    ON      NM   R$  000000000618000000000062410000000006141000000000620800000000062300000000006210000000000623009149000000000003442000000000021369677100000000000000009999123100000010000000000000BRUGPAACNOR8135
012015032302UGPA3       010ULTRAPAR    ON      NM   R$  000000000624100000000062600000000006105000000000615600000000061950000000006150000000000619506965000000000001668300000000010270968800000000000000009999123100000010000000000000BRUGPAACNOR8135
012015032402UGPA3       010ULTRAPAR    ON      NM   R$  000000000620300000000062540000000006095000000000616900000000061950000000006152000000000619509752000000000002213000000000013653761700000000000000009999123100000010000000000000BRUGPAACNOR8135
012015032502UGPA3       010ULTRAPAR    ON      NM   R$  000000000623000000000062910000000006190000000000624000000000062910000000006270000000000629106603000000000003422400000000021358143200000000000000009999123100000010000000000000BRUGPAACNOR8135
012015032602UGPA3       010ULTRAPAR    ON      NM   R$  000000000622200000000062480000000006154000000000620000000000062010000000006191000000000620809018000000000001898600000000011771553700000000000000009999123100000010000000000000BRUGPAACNOR8135
012015032702UGPA3       010ULTRAPAR    ON      NM   R$  000000000616600000000062600000000006159000000000618500000000062260000000006192000000000622606311000000000002631100000000016274335000000000000000009999123100000010000000000000BRUGPAACNOR8135
012015033002UGPA3       010ULTRAPAR    ON      NM   R$  000000000627900000000064150000000006264000000000634900000000064150000000006406000000000641905577000000000001514800000000009618328500000000000000009999123100000010000000000000BRUGPAACNOR8135
012015033102UGPA3       010ULTRAPAR    ON      NM   R$  000000000642000000000064930000000006346000000000643300000000064830000000006451000000000648307556000000000002340500000000015057090100000000000000009999123100000010000000000000BRUGPAACNOR8135
012015040102UGPA3       010ULTRAPAR    ON      NM   R$  000000000654000000000066460000000006501000000000659600000000066460000000006608000000000664609434000000000001785800000000011781031900000000000000009999123100000010000000000000BRUGPAACNOR8135
012015040202UGPA3       010ULTRAPAR    ON      NM   R$  000000000664600000000067000000000006447000000000656100000000065760000000006573000000000657610914000000000002032800000000013338688500000000000000009999123100000010000000000000BRUGPAACNOR8135
012015040602UGPA3       010ULTRAPAR    ON      NM   R$  000000000658100000000066720000000006460000000000663400000000066550000000006651000000000665505306000000000001132800000000007515684000000000000000009999123100000010000000000000BRUGPAACNOR8135
012015040702UGPA3       010ULTRAPAR    ON      NM   R$  000000000666000000000066650000000006527000000000659500000000065750000000006575000000000659505404000000000001415300000000009334705200000000000000009999123100000010000000000000BRUGPAACNOR8135
012015040802UGPA3       010ULTRAPAR    ON      NM   R$  000000000664000000000066770000000006539000000000661200000000066270000000006623000000000662706648000000000001216800000000008046379300000000000000009999123100000010000000000000BRUGPAACNOR8135
012015040902UGPA3       010ULTRAPAR    ON      NM   R$  000000000658600000000066840000000006584000000000662000000000066130000000006612000000000661807107000000000001535700000000010167718300000000000000009999123100000010000000000000BRUGPAACNOR8135
012015041002UGPA3       010ULTRAPAR    ON      NM   R$  000000000659500000000066360000000006570000000000659500000000065860000000006585000000000658906376000000000001737200000000011457384600000000000000009999123100000010000000000000BRUGPAACNOR8135
012015041302UGPA3       010ULTRAPAR    ON      NM   R$  000000000652200000000066390000000006516000000000659900000000066390000000006612000000000663905549000000000001281800000000008459403600000000000000009999123100000010000000000000BRUGPAACNOR8135
012015041402UGPA3       010ULTRAPAR    ON      NM   R$  000000000666000000000066710000000006576000000000663100000000066560000000006649000000000665605898000000000001478300000000009802804700000000000000009999123100000010000000000000BRUGPAACNOR8135
012015041502UGPA3       010ULTRAPAR    ON      NM   R$  000000000669500000000067700000000006650000000000671300000000067340000000006734000000000674905735000000000001986000000000013333169200000000000000009999123100000010000000000000BRUGPAACNOR8135
012015041602UGPA3       010ULTRAPAR    ON      NM   R$  000000000671300000000067470000000006635000000000667000000000066720000000006672000000000667406420000000000001596100000000010646123400000000000000009999123100000010000000000000BRUGPAACNOR8135
012015041702UGPA3       010ULTRAPAR    ON      NM   R$  000000000657900000000066300000000006536000000000656800000000065700000000006570000000000657406848000000000001883700000000012372169300000000000000009999123100000010000000000000BRUGPAACNOR8135
012015042002UGPA3       010ULTRAPAR    ON      NM   R$  000000000657000000000066460000000006516000000000656000000000065770000000006563000000000658505171000000000001681500000000011030820700000000000000009999123100000010000000000000BRUGPAACNOR8135
012015042202UGPA3       010ULTRAPAR    ON      NM   R$  000000000660100000000066800000000006577000000000664000000000066720000000006663000000000667205465000000000001799400000000011949798300000000000000009999123100000010000000000000BRUGPAACNOR8135
012015042302UGPA3       010ULTRAPAR    ON      NM   R$  000000000663900000000068100000000006620000000000676400000000068000000000006757000000000680007650000000000001999400000000013525727700000000000000009999123100000010000000000000BRUGPAACNOR8135
012015042402UGPA3       010ULTRAPAR    ON      NM   R$  000000000680000000000068350000000006698000000000678500000000068350000000006807000000000683505483000000000001139700000000007733459700000000000000009999123100000010000000000000BRUGPAACNOR8135
012015042702UGPA3       010ULTRAPAR    ON      NM   R$  000000000684900000000068640000000006696000000000674100000000067250000000006725000000000673605792000000000001342800000000009051910000000000000000009999123100000010000000000000BRUGPAACNOR8135
012015042802UGPA3       010ULTRAPAR    ON      NM   R$  000000000675800000000067990000000006646000000000668900000000066900000000006689000000000669005918000000000001765600000000011810236800000000000000009999123100000010000000000000BRUGPAACNOR8135
012015042902UGPA3       010ULTRAPAR    ON      NM   R$  000000000661600000000067760000000006586000000000667600000000067760000000006772000000000677607635000000000001808100000000012072889100000000000000009999123100000010000000000000BRUGPAACNOR8135
012015043002UGPA3       010ULTRAPAR    ON      NM   R$  000000000670800000000069340000000006704000000000686300000000069340000000006897000000000693409304000000000002666700000000018303212000000000000000009999123100000010000000000000BRUGPAACNOR8135
012015050402UGPA3       010ULTRAPAR    ON      NM   R$  000000000695000000000071190000000006919000000000702200000000070050000000007005000000000703008325000000000001652200000000011603138700000000000000009999123100000010000000000000BRUGPAACNOR8135
012015050502UGPA3       010ULTRAPAR    ON      NM   R$  000000000695300000000070370000000006938000000000698500000000069870000000006987000000000700006437000000000001342800000000009380397200000000000000009999123100000010000000000000BRUGPAACNOR8135
012015050602UGPA3       010ULTRAPAR    ON      NM   R$  000000000696800000000070920000000006951000000000703500000000070920000000007023000000000709207135000000000001482200000000010428199200000000000000009999123100000010000000000000BRUGPAACNOR8135
012015050702UGPA3       010ULTRAPAR    ON      NM   R$  000000000732000000000073340000000006990000000000707200000000070850000000007085000000000709208398000000000001556700000000011009890900000000000000009999123100000010000000000000BRUGPAACNOR8135
012015050802UGPA3       010ULTRAPAR    ON      NM   R$  000000000709700000000072820000000007017000000000715600000000071620000000007162000000000717507992000000000003612200000000025852482600000000000000009999123100000010000000000000BRUGPAACNOR8135
012015051102UGPA3       010ULTRAPAR    ON      NM   R$  000000000716200000000072590000000007070000000000714800000000071350000000007135000000000714006047000000000001675600000000011978299900000000000000009999123100000010000000000000BRUGPAACNOR8135
012015051202UGPA3       010ULTRAPAR    ON      NM   R$  000000000713000000000072050000000007085000000000716400000000071700000000007161000000000717006071000000000001618600000000011595681200000000000000009999123100000010000000000000BRUGPAACNOR8135
012015051302UGPA3       010ULTRAPAR    ON      NM   R$  000000000714500000000072050000000007043000000000713800000000071700000000007168000000000717006966000000000001500500000000010710683400000000000000009999123100000010000000000000BRUGPAACNOR8135
012015051402UGPA3       010ULTRAPAR    ON      NM   R$  000000000717900000000072460000000007139000000000719800000000072280000000007228000000000723108174000000000002843000000000020464437000000000000000009999123100000010000000000000BRUGPAACNOR8135
012015051502UGPA3       010ULTRAPAR    ON      NM   R$  000000000719400000000073850000000007194000000000729500000000073850000000007370000000000738607296000000000002539600000000018527692400000000000000009999123100000010000000000000BRUGPAACNOR8135
012015051802UGPA3       010ULTRAPAR    ON      NM   R$  000000000736200000000074370000000007273000000000730600000000072760000000007276000000000728006144000000000001581800000000011557128200000000000000009999123100000010000000000000BRUGPAACNOR8135
012015051902UGPA3       010ULTRAPAR    ON      NM   R$  000000000727700000000072960000000007160000000000720500000000072100000000007203000000000721004633000000000001204400000000008677912200000000000000009999123100000010000000000000BRUGPAACNOR8135
012015052002UGPA3       010ULTRAPAR    ON      NM   R$  000000000723000000000072590000000007130000000000720200000000072100000000007210000000000722004681000000000001240500000000008934209700000000000000009999123100000010000000000000BRUGPAACNOR8135
012015052102UGPA3       010ULTRAPAR    ON      NM   R$  000000000719000000000073210000000007166000000000725000000000073210000000007287000000000732104103000000000000828200000000006004862900000000000000009999123100000010000000000000BRUGPAACNOR8135
012015052202UGPA3       010ULTRAPAR    ON      NM   R$  000000000730800000000073100000000007121000000000720400000000072310000000007226000000000723106990000000000001496800000000010784382100000000000000009999123100000010000000000000BRUGPAACNOR8135
012015052502UGPA3       010ULTRAPAR    ON      NM   R$  000000000723100000000072310000000007081000000000715200000000071750000000007175000000000718003638000000000000711200000000005087059400000000000000009999123100000010000000000000BRUGPAACNOR8135
012015052602UGPA3       010ULTRAPAR    ON      NM   R$  000000000712300000000071500000000007031000000000708800000000071000000000007100000000000710906140000000000001277100000000009052267000000000000000009999123100000010000000000000BRUGPAACNOR8135
012015052702UGPA3       010ULTRAPAR    ON      NM   R$  000000000710000000000071190000000006903000000000700000000000070230000000007023000000000703008110000000000001525600000000010680586400000000000000009999123100000010000000000000BRUGPAACNOR8135
012015052802UGPA3       010ULTRAPAR    ON      NM   R$  000000000696000000000070140000000006938000000000697500000000069820000000006980000000000698204926000000000001266500000000008834774600000000000000009999123100000010000000000000BRUGPAACNOR8135
012015052902UGPA3       010ULTRAPAR    ON      NM   R$  000000000694800000000070440000000006860000000000691100000000068640000000006864000000000687008075000000000002385900000000016490747400000000000000009999123100000010000000000000BRUGPAACNOR8135
012015060102UGPA3       010ULTRAPAR    ON      NM   R$  000000000688400000000069600000000006841000000000693000000000069600000000006960000000000696304101000000000000864000000000005988168800000000000000009999123100000010000000000000BRUGPAACNOR8135
012015060202UGPA3       010ULTRAPAR    ON      NM   R$  000000000696800000000070390000000006938000000000699500000000070310000000007031000000000703904677000000000001028700000000007196349300000000000000009999123100000010000000000000BRUGPAACNOR8135
012015060302UGPA3       010ULTRAPAR    ON      NM   R$  000000000699100000000070650000000006907000000000696500000000069700000000006970000000000698404392000000000000892300000000006215487300000000000000009999123100000010000000000000BRUGPAACNOR8135
012015060502UGPA3       010ULTRAPAR    ON      NM   R$  000000000687600000000070020000000006858000000000693500000000069460000000006946000000000694904523000000000000972200000000006742291700000000000000009999123100000010000000000000BRUGPAACNOR8135
012015060802UGPA3       010ULTRAPAR    ON      NM   R$  000000000694700000000070000000000006875000000000691100000000069020000000006902000000000691004435000000000001004200000000006940912000000000000000009999123100000010000000000000BRUGPAACNOR8135
012015060902UGPA3       010ULTRAPAR    ON      NM   R$  000000000687400000000068990000000006772000000000683800000000068720000000006867000000000687207378000000000001880400000000012858997100000000000000009999123100000010000000000000BRUGPAACNOR8135
012015061002UGPA3       010ULTRAPAR    ON      NM   R$  000000000694800000000069990000000006807000000000686700000000068380000000006838000000000684507292000000000001982000000000013610391300000000000000009999123100000010000000000000BRUGPAACNOR8135
012015061102UGPA3       010ULTRAPAR    ON      NM   R$  000000000686000000000069110000000006787000000000684000000000068500000000006847000000000685005600000000000001131800000000007741282200000000000000009999123100000010000000000000BRUGPAACNOR8135
012015061202UGPA3       010ULTRAPAR    ON      NM   R$  000000000680500000000068500000000006733000000000680000000000068300000000006820000000000683504115000000000000749300000000005095472600000000000000009999123100000010000000000000BRUGPAACNOR8135
012015061502UGPA3       010ULTRAPAR    ON      NM   R$  000000000678600000000068610000000006702000000000678800000000068300000000006825000000000683004120000000000000916400000000006221205400000000000000009999123100000010000000000000BRUGPAACNOR8135
012015061602UGPA3       010ULTRAPAR    ON      NM   R$  000000000686000000000069110000000006824000000000686500000000068600000000006857000000000686003896000000000001297700000000008909409800000000000000009999123100000010000000000000BRUGPAACNOR8135
012015061702UGPA3       010ULTRAPAR    ON      NM   R$  000000000683900000000069170000000006783000000000684600000000068700000000006860000000000687005378000000000001203900000000008242910000000000000000009999123100000010000000000000BRUGPAACNOR8135
012015061802UGPA3       010ULTRAPAR    ON      NM   R$  000000000690000000000069400000000006833000000000688100000000069040000000006885000000000690505316000000000001723400000000011859192100000000000000009999123100000010000000000000BRUGPAACNOR8135
012015061902UGPA3       010ULTRAPAR    ON      NM   R$  000000000684500000000069190000000006819000000000684100000000068340000000006834000000000684003132000000000001127800000000007716161500000000000000009999123100000010000000000000BRUGPAACNOR8135
012015062202UGPA3       010ULTRAPAR    ON      NM   R$  000000000685200000000068960000000006774000000000680900000000067850000000006785000000000679905005000000000000995800000000006780834700000000000000009999123100000010000000000000BRUGPAACNOR8135
012015062302UGPA3       010ULTRAPAR    ON      NM   R$  000000000682700000000068480000000006755000000000677700000000067550000000006755000000000677403023000000000000766800000000005197036500000000000000009999123100000010000000000000BRUGPAACNOR8135
012015062402UGPA3       010ULTRAPAR    ON      NM   R$  000000000677900000000068080000000006686000000000672700000000067000000000006697000000000670905453000000000001042600000000007014299600000000000000009999123100000010000000000000BRUGPAACNOR8135
012015062502UGPA3       010ULTRAPAR    ON      NM   R$  000000000670000000000067290000000006624000000000667900000000066800000000006679000000000668005368000000000001893600000000012648984900000000000000009999123100000010000000000000BRUGPAACNOR8135
012015062602UGPA3       010ULTRAPAR    ON      NM   R$  000000000671300000000067440000000006605000000000665600000000066390000000006638000000000663907320000000000001403900000000009344814700000000000000009999123100000010000000000000BRUGPAACNOR8135
012015062902UGPA3       010ULTRAPAR    ON      NM   R$  000000000656000000000066400000000006488000000000656400000000065860000000006585000000000658604016000000000000738000000000004844853300000000000000009999123100000010000000000000BRUGPAACNOR8135
012015063002UGPA3       010ULTRAPAR    ON      NM   R$  000000000657800000000066380000000006531000000000656700000000065700000000006568000000000657007876000000000001483700000000009744710300000000000000009999123100000010000000000000BRUGPAACNOR8135
012015070102UGPA3       010ULTRAPAR    ON      NM   R$  000000000656000000000066200000000006401000000000650200000000065150000000006510000000000652708031000000000001826600000000011876761400000000000000009999123100000010000000000000BRUGPAACNOR8135
012015070202UGPA3       010ULTRAPAR    ON      NM   R$  000000000655600000000065880000000006488000000000655500000000065880000000006554000000000658803975000000000001220900000000008003376700000000000000009999123100000010000000000000BRUGPAACNOR8135
012015070302UGPA3       010ULTRAPAR    ON      NM   R$  000000000654300000000065860000000006477000000000655100000000065800000000006570000000000658002281000000000000493800000000003235306400000000000000009999123100000010000000000000BRUGPAACNOR8135
012015070602UGPA3       010ULTRAPAR    ON      NM   R$  000000000650400000000066000000000006465000000000656500000000066000000000006600000000000660504820000000000001879600000000012340399700000000000000009999123100000010000000000000BRUGPAACNOR8135
012015070702UGPA3       010ULTRAPAR    ON      NM   R$  000000000655000000000065980000000006443000000000654500000000065810000000006581000000000658906585000000000001303800000000008534048600000000000000009999123100000010000000000000BRUGPAACNOR8135
012015070802UGPA3       010ULTRAPAR    ON      NM   R$  000000000657400000000066090000000006501000000000654800000000065200000000006519000000000652004474000000000001315700000000008615666300000000000000009999123100000010000000000000BRUGPAACNOR8135
012015071002UGPA3       010ULTRAPAR    ON      NM   R$  000000000655300000000066950000000006524000000000664600000000066770000000006655000000000667704971000000000001494700000000009934755000000000000000009999123100000010000000000000BRUGPAACNOR8135
012015071302UGPA3       010ULTRAPAR    ON      NM   R$  000000000673200000000067550000000006630000000000668700000000067160000000006716000000000671704516000000000000838500000000005607227300000000000000009999123100000010000000000000BRUGPAACNOR8135
012015071402UGPA3       010ULTRAPAR    ON      NM   R$  000000000668300000000067890000000006648000000000674200000000067760000000006753000000000677603510000000000000680600000000004588632400000000000000009999123100000010000000000000BRUGPAACNOR8135
012015071502UGPA3       010ULTRAPAR    ON      NM   R$  000000000676200000000068410000000006717000000000680700000000068410000000006804000000000684105026000000000001637900000000011149735500000000000000009999123100000010000000000000BRUGPAACNOR8135
012015071602UGPA3       010ULTRAPAR    ON      NM   R$  000000000690000000000069120000000006737000000000679800000000067990000000006793000000000680004259000000000000937200000000006371914700000000000000009999123100000010000000000000BRUGPAACNOR8135
012015071702UGPA3       010ULTRAPAR    ON      NM   R$  000000000683100000000068390000000006684000000000673700000000067270000000006727000000000674504185000000000000770200000000005188922400000000000000009999123100000010000000000000BRUGPAACNOR8135
012015072002UGPA3       010ULTRAPAR    ON      NM   R$  000000000672600000000067910000000006670000000000672900000000067140000000006714000000000672503875000000000000640700000000004311745400000000000000009999123100000010000000000000BRUGPAACNOR8135
012015072102UGPA3       010ULTRAPAR    ON      NM   R$  000000000671200000000068140000000006700000000000675800000000067660000000006732000000000676603908000000000000814200000000005502823300000000000000009999123100000010000000000000BRUGPAACNOR8135
012015072202UGPA3       010ULTRAPAR    ON      NM   R$  000000000669500000000068370000000006685000000000678000000000068370000000006800000000000683705180000000000001257700000000008528239300000000000000009999123100000010000000000000BRUGPAACNOR8135
012015072302UGPA3       010ULTRAPAR    ON      NM   R$  000000000685000000000068690000000006682000000000675700000000067480000000006741000000000674806549000000000001322700000000008937361400000000000000009999123100000010000000000000BRUGPAACNOR8135
012015072402UGPA3       010ULTRAPAR    ON      NM   R$  000000000679700000000067970000000006637000000000671700000000067500000000006747000000000675004202000000000000905100000000006080340200000000000000009999123100000010000000000000BRUGPAACNOR8135
012015072702UGPA3       010ULTRAPAR    ON      NM   R$  000000000670000000000067490000000006617000000000668200000000066700000000006663000000000667003865000000000001699700000000011358526800000000000000009999123100000010000000000000BRUGPAACNOR8135
012015072802UGPA3       010ULTRAPAR    ON      NM   R$  000000000670300000000067740000000006620000000000668600000000066660000000006666000000000668006042000000000001654100000000011060800200000000000000009999123100000010000000000000BRUGPAACNOR8135
012015072902UGPA3       010ULTRAPAR    ON      NM   R$  000000000660500000000068100000000006605000000000675800000000068100000000006762000000000681005449000000000001033300000000006983272500000000000000009999123100000010000000000000BRUGPAACNOR8135
012015073002UGPA3       010ULTRAPAR    ON      NM   R$  000000000679400000000069040000000006740000000000684100000000069040000000006901000000000690404665000000000001274600000000008720452500000000000000009999123100000010000000000000BRUGPAACNOR8135
012015073102UGPA3       010ULTRAPAR    ON      NM   R$  000000000687900000000071160000000006878000000000702700000000070270000000007027000000000704107253000000000001994700000000014016764600000000000000009999123100000010000000000000BRUGPAACNOR8135
012015080302UGPA3       010ULTRAPAR    ON      NM   R$  000000000697000000000071030000000006908000000000694900000000069470000000006947000000000694904633000000000000983000000000006831372500000000000000009999123100000010000000000000BRUGPAACNOR8135
012015080402UGPA3       010ULTRAPAR    ON      NM   R$  000000000692500000000070620000000006922000000000701100000000070460000000007012000000000704603677000000000001227300000000008604755800000000000000009999123100000010000000000000BRUGPAACNOR8135
012015080502UGPA3       010ULTRAPAR    ON      NM   R$  000000000714900000000071510000000007043000000000708800000000070890000000007070000000000708903619000000000000769100000000005452003600000000000000009999123100000010000000000000BRUGPAACNOR8135
012015080602UGPA3       010ULTRAPAR    ON      NM   R$  000000000703900000000071440000000006915000000000696100000000069570000000006957000000000696006141000000000001170600000000008148803100000000000000009999123100000010000000000000BRUGPAACNOR8135
012015080702UGPA3       010ULTRAPAR    ON      NM   R$  000000000692200000000069290000000006554000000000667200000000066500000000006648000000000666509145000000000001814300000000012105437300000000000000009999123100000010000000000000BRUGPAACNOR8135
012015081002UGPA3       010ULTRAPAR    ON      NM   R$  000000000669700000000067600000000006620000000000670900000000066910000000006691000000000669506125000000000001363000000000009144626300000000000000009999123100000010000000000000BRUGPAACNOR8135
012015081102UGPA3       010ULTRAPAR    ON      NM   R$  000000000666900000000066690000000006538000000000660400000000066400000000006640000000000664206938000000000001583800000000010461202400000000000000009999123100000010000000000000BRUGPAACNOR8135
012015081202UGPA3       010ULTRAPAR    ON      NM   R$  000000000660500000000067890000000006538000000000666800000000067290000000006696000000000672910984000000000002181300000000014545346600000000000000009999123100000010000000000000BRUGPAACNOR8135
012015081302UGPA3       010ULTRAPAR    ON  ED  NM   R$  000000000665700000000066840000000006574000000000661800000000066150000000006613000000000661505311000000000001275300000000008440453000000000000000009999123100000010000000000000BRUGPAACNOR8136
012015081402UGPA3       010ULTRAPAR    ON  ED  NM   R$  000000000664800000000066810000000006531000000000656900000000065700000000006568000000000657504586000000000000889400000000005843028400000000000000009999123100000010000000000000BRUGPAACNOR8136
012015081702UGPA3       010ULTRAPAR    ON  ED  NM   R$  000000000654400000000066120000000006482000000000652900000000065280000000006519000000000652804337000000000000839300000000005480240500000000000000009999123100000010000000000000BRUGPAACNOR8136
012015081802UGPA3       010ULTRAPAR    ON  ED  NM   R$  000000000649000000000065100000000006395000000000641100000000064050000000006395000000000641809161000000000004616400000000029596471900000000000000009999123100000010000000000000BRUGPAACNOR8136
012015081902UGPA3       010ULTRAPAR    ON  ED  NM   R$  000000000634000000000063900000000006265000000000634800000000063800000000006375000000000638906584000000000001283400000000008147241800000000000000009999123100000010000000000000BRUGPAACNOR8136
012015082002UGPA3       010ULTRAPAR    ON  ED  NM   R$  000000000628000000000063420000000006249000000000630300000000063180000000006305000000000631807291000000000001382200000000008713034800000000000000009999123100000010000000000000BRUGPAACNOR8136
012015082102UGPA3       010ULTRAPAR    ON  ED  NM   R$  000000000629900000000063030000000006108000000000615900000000061500000000006150000000000616510017000000000001766900000000010883887900000000000000009999123100000010000000000000BRUGPAACNOR8136
012015082402UGPA3       010ULTRAPAR    ON  ED  NM   R$  000000000585000000000061280000000005800000000000599700000000059710000000005971000000000598013338000000000002498700000000014985106200000000000000009999123100000010000000000000BRUGPAACNOR8136
012015082502UGPA3       010ULTRAPAR    ON      NM   R$  000000000616900000000061690000000006000000000000605900000000060200000000006017000000000602009020000000000001401600000000008493136900000000000000009999123100000010000000000000BRUGPAACNOR8136
012015082602UGPA3       010ULTRAPAR    ON      NM   R$  000000000607100000000062400000000006044000000000611800000000062400000000006201000000000624012331000000000002660400000000016278493300000000000000009999123100000010000000000000BRUGPAACNOR8136
012015082702UGPA3       010ULTRAPAR    ON      NM   R$  000000000630300000000064680000000006278000000000638400000000064330000000006400000000000643312006000000000001997400000000012753146200000000000000009999123100000010000000000000BRUGPAACNOR8136
012015082802UGPA3       010ULTRAPAR    ON      NM   R$  000000000639000000000064200000000006264000000000635700000000063990000000006381000000000639908220000000000001611900000000010250665400000000000000009999123100000010000000000000BRUGPAACNOR8136
012015083102UGPA3       010ULTRAPAR    ON      NM   R$  000000000629100000000064000000000006164000000000629200000000063470000000006340000000000634711460000000000002648900000000016663521400000000000000009999123100000010000000000000BRUGPAACNOR8136
012015090102UGPA3       010ULTRAPAR    ON      NM   R$  000000000617300000000063270000000006154000000000626400000000062790000000006275000000000628010095000000000002566900000000016080998400000000000000009999123100000010000000000000BRUGPAACNOR8136
012015090202UGPA3       010ULTRAPAR    ON      NM   R$  000000000627900000000063880000000006277000000000633100000000063880000000006363000000000638808350000000000001587500000000010052171300000000000000009999123100000010000000000000BRUGPAACNOR8136
012015090302UGPA3       010ULTRAPAR    ON      NM   R$  000000000643000000000065430000000006382000000000647400000000064920000000006456000000000649209192000000000002097300000000013579023000000000000000009999123100000010000000000000BRUGPAACNOR8136
012015090402UGPA3       010ULTRAPAR    ON      NM   R$  000000000645400000000064970000000006370000000000644300000000064950000000006485000000000649507343000000000001955400000000012600960300000000000000009999123100000010000000000000BRUGPAACNOR8136
012015090802UGPA3       010ULTRAPAR    ON      NM   R$  000000000647500000000065660000000006409000000000648700000000064890000000006484000000000649807048000000000001280000000000008303919000000000000000009999123100000010000000000000BRUGPAACNOR8136
012015090902UGPA3       010ULTRAPAR    ON      NM   R$  000000000653400000000066060000000006364000000000643000000000063700000000006367000000000637006941000000000001579800000000010159266600000000000000009999123100000010000000000000BRUGPAACNOR8136
012015091002UGPA3       010ULTRAPAR    ON      NM   R$  000000000625000000000063980000000006246000000000633700000000063850000000006380000000000638506558000000000001212300000000007682493000000000000000009999123100000010000000000000BRUGPAACNOR8136
012015091102UGPA3       010ULTRAPAR    ON      NM   R$  000000000638900000000064570000000006328000000000641200000000064090000000006409000000000641006058000000000001432100000000009183029500000000000000009999123100000010000000000000BRUGPAACNOR8136
012015091402UGPA3       010ULTRAPAR    ON      NM   R$  000000000643100000000066400000000006400000000000653500000000066150000000006615000000000661609168000000000001616700000000010569904500000000000000009999123100000010000000000000BRUGPAACNOR8136
012015091502UGPA3       010ULTRAPAR    ON      NM   R$  000000000658000000000065980000000006498000000000655100000000065840000000006577000000000658403651000000000000920100000000006028302100000000000000009999123100000010000000000000BRUGPAACNOR8136
012015091602UGPA3       010ULTRAPAR    ON      NM   R$  000000000664700000000067280000000006584000000000669000000000067150000000006700000000000671506975000000000001436700000000009612330800000000000000009999123100000010000000000000BRUGPAACNOR8136
012015091702UGPA3       010ULTRAPAR    ON      NM   R$  000000000662600000000068440000000006598000000000673200000000067180000000006718000000000672005017000000000001424000000000009587333700000000000000009999123100000010000000000000BRUGPAACNOR8136
012015091802UGPA3       010ULTRAPAR    ON      NM   R$  000000000665000000000066950000000006560000000000660200000000065800000000006578000000000659806270000000000001510000000000009969227600000000000000009999123100000010000000000000BRUGPAACNOR8136
012015092102UGPA3       010ULTRAPAR    ON      NM   R$  000000000655000000000066240000000006520000000000657800000000065830000000006555000000000658304961000000000000873800000000005748059800000000000000009999123100000010000000000000BRUGPAACNOR8136
012015092202UGPA3       010ULTRAPAR    ON      NM   R$  000000000651700000000066390000000006457000000000655100000000066290000000006599000000000662905162000000000001108100000000007259627300000000000000009999123100000010000000000000BRUGPAACNOR8136
012015092302UGPA3       010ULTRAPAR    ON      NM   R$  000000000662400000000066500000000006460000000000649400000000064600000000006460000000000649005533000000000001172300000000007613362500000000000000009999123100000010000000000000BRUGPAACNOR8136
012015092402UGPA3       010ULTRAPAR    ON      NM   R$  000000000631100000000064480000000006290000000000639300000000064110000000006404000000000641108112000000000001560000000000009974417100000000000000009999123100000010000000000000BRUGPAACNOR8136
012015092502UGPA3       010ULTRAPAR    ON      NM   R$  000000000647500000000065200000000006387000000000644400000000064100000000006408000000000641106193000000000001298200000000008366775000000000000000009999123100000010000000000000BRUGPAACNOR8136
012015092802UGPA3       010ULTRAPAR    ON      NM   R$  000000000635200000000064600000000006311000000000636700000000063760000000006376000000000639806485000000000001345600000000008567929200000000000000009999123100000010000000000000BRUGPAACNOR8136
012015092902UGPA3       010ULTRAPAR    ON      NM   R$  000000000637600000000064200000000006298000000000634700000000063250000000006325000000000635205917000000000002338800000000014845852000000000000000009999123100000010000000000000BRUGPAACNOR8136
012015093002UGPA3       010ULTRAPAR    ON      NM   R$  000000000646800000000066800000000006400000000000660700000000066800000000006677000000000668008774000000000001806300000000011935007200000000000000009999123100000010000000000000BRUGPAACNOR8136
012015100102UGPA3       010ULTRAPAR    ON      NM   R$  000000000674700000000067930000000006602000000000669100000000067450000000006738000000000674507972000000000002065900000000013823671900000000000000009999123100000010000000000000BRUGPAACNOR8136
012015100202UGPA3       010ULTRAPAR    ON      NM   R$  000000000674800000000069230000000006654000000000681000000000069230000000006921000000000692309782000000000001579300000000010757417000000000000000009999123100000010000000000000BRUGPAACNOR8136
012015100502UGPA3       010ULTRAPAR    ON      NM   R$  000000000702900000000070350000000006830000000000689700000000069000000000006898000000000690007332000000000001761100000000012146698700000000000000009999123100000010000000000000BRUGPAACNOR8136
012015100602UGPA3       010ULTRAPAR    ON      NM   R$  000000000685100000000069620000000006819000000000688400000000068750000000006873000000000687905477000000000001381200000000009508862800000000000000009999123100000010000000000000BRUGPAACNOR8136
012015100702UGPA3       010ULTRAPAR    ON      NM   R$  000000000692200000000069960000000006761000000000686300000000068850000000006885000000000691410593000000000001954100000000013411182900000000000000009999123100000010000000000000BRUGPAACNOR8136
012015100802UGPA3       010ULTRAPAR    ON      NM   R$  000000000690000000000069890000000006850000000000688800000000068710000000006870000000000687806616000000000001348000000000009285907300000000000000009999123100000010000000000000BRUGPAACNOR8136
012015100902UGPA3       010ULTRAPAR    ON      NM   R$  000000000697500000000069750000000006842000000000690400000000068820000000006882000000000688406651000000000001259500000000008695300600000000000000009999123100000010000000000000BRUGPAACNOR8136
012015101302UGPA3       010ULTRAPAR    ON      NM   R$  000000000688900000000069200000000006725000000000681700000000068000000000006796000000000681508912000000000001868500000000012739128800000000000000009999123100000010000000000000BRUGPAACNOR8136
012015101402UGPA3       010ULTRAPAR    ON      NM   R$  000000000675500000000069050000000006665000000000678700000000067260000000006726000000000674118799000000000003866500000000026244519000000000000000009999123100000010000000000000BRUGPAACNOR8136
012015101502UGPA3       010ULTRAPAR    ON      NM   R$  000000000678800000000067980000000006607000000000667300000000066500000000006650000000000667511087000000000001771900000000011824443300000000000000009999123100000010000000000000BRUGPAACNOR8136
012015101602UGPA3       010ULTRAPAR    ON      NM   R$  000000000665000000000068410000000006608000000000675100000000067960000000006796000000000680307506000000000001381000000000009323794100000000000000009999123100000010000000000000BRUGPAACNOR8136
012015101902UGPA3       010ULTRAPAR    ON      NM   R$  000000000679600000000068500000000006677000000000679300000000068500000000006846000000000685004608000000000000935700000000006356768100000000000000009999123100000010000000000000BRUGPAACNOR8136
012015102002UGPA3       010ULTRAPAR    ON      NM   R$  000000000682500000000068810000000006761000000000683800000000068750000000006870000000000687505737000000000001030600000000007048474900000000000000009999123100000010000000000000BRUGPAACNOR8136
012015102102UGPA3       010ULTRAPAR    ON      NM   R$  000000000686900000000069000000000006801000000000685800000000069000000000006875000000000690006122000000000001485300000000010186434000000000000000009999123100000010000000000000BRUGPAACNOR8136
012015102202UGPA3       010ULTRAPAR    ON      NM   R$  000000000690900000000070000000000006870000000000696700000000069890000000006960000000000698906707000000000001318100000000009184415100000000000000009999123100000010000000000000BRUGPAACNOR8136
012015102302UGPA3       010ULTRAPAR    ON      NM   R$  000000000699500000000070950000000006930000000000699400000000069550000000006955000000000696907076000000000001538800000000010762072900000000000000009999123100000010000000000000BRUGPAACNOR8136
012015102602UGPA3       010ULTRAPAR    ON      NM   R$  000000000692900000000070110000000006903000000000693500000000069200000000006919000000000692205116000000000001110300000000007700982700000000000000009999123100000010000000000000BRUGPAACNOR8136
012015102702UGPA3       010ULTRAPAR    ON      NM   R$  000000000692000000000069800000000006862000000000693200000000069670000000006967000000000696804121000000000001159000000000008035035400000000000000009999123100000010000000000000BRUGPAACNOR8136
012015102802UGPA3       010ULTRAPAR    ON      NM   R$  000000000691200000000069460000000006748000000000682600000000067910000000006791000000000679905561000000000001997800000000013636810600000000000000009999123100000010000000000000BRUGPAACNOR8136
012015102902UGPA3       010ULTRAPAR    ON      NM   R$  000000000666500000000068350000000006665000000000674900000000067050000000006705000000000672005191000000000000995300000000006717371700000000000000009999123100000010000000000000BRUGPAACNOR8136
012015103002UGPA3       010ULTRAPAR    ON      NM   R$  000000000667200000000067890000000006638000000000669500000000067000000000006696000000000670306533000000000001547600000000010361883500000000000000009999123100000010000000000000BRUGPAACNOR8136
012015110302UGPA3       010ULTRAPAR    ON      NM   R$  000000000675800000000069640000000006758000000000690600000000069440000000006944000000000696111216000000000002711400000000018729839500000000000000009999123100000010000000000000BRUGPAACNOR8136
012015110402UGPA3       010ULTRAPAR    ON      NM   R$  000000000697000000000071300000000006857000000000696600000000069330000000006924000000000693308271000000000001624400000000011315909100000000000000009999123100000010000000000000BRUGPAACNOR8136
012015110502UGPA3       010ULTRAPAR    ON      NM   R$  000000000693200000000070490000000006790000000000686400000000068350000000006830000000000683507069000000000001518200000000010421280400000000000000009999123100000010000000000000BRUGPAACNOR8136
012015110602UGPA3       010ULTRAPAR    ON      NM   R$  000000000680300000000068340000000006584000000000664100000000067110000000006711000000000671806943000000000003464100000000023009116000000000000000009999123100000010000000000000BRUGPAACNOR8136
012015110902UGPA3       010ULTRAPAR    ON      NM   R$  000000000669900000000068020000000006660000000000672500000000067350000000006735000000000674304907000000000001037700000000006978512300000000000000009999123100000010000000000000BRUGPAACNOR8136
012015111002UGPA3       010ULTRAPAR    ON      NM   R$  000000000668800000000067190000000006590000000000665800000000067120000000006712000000000672407733000000000001230900000000008197116000000000000000009999123100000010000000000000BRUGPAACNOR8136
012015111102UGPA3       010ULTRAPAR    ON      NM   R$  000000000670500000000068690000000006682000000000681200000000068300000000006811000000000683307120000000000002019700000000013759247000000000000000009999123100000010000000000000BRUGPAACNOR8136
012015111202UGPA3       010ULTRAPAR    ON      NM   R$  000000000681100000000069000000000006729000000000679900000000067760000000006776000000000679806008000000000001851900000000012591087800000000000000009999123100000010000000000000BRUGPAACNOR8136
012015111302UGPA3       010ULTRAPAR    ON      NM   R$  000000000672900000000067850000000006642000000000672200000000067540000000006748000000000675407855000000000001591000000000010695815100000000000000009999123100000010000000000000BRUGPAACNOR8136
012015111602UGPA3       010ULTRAPAR    ON      NM   R$  000000000675200000000068380000000006725000000000680200000000068100000000006810000000000681404433000000000001278300000000008695147600000000000000009999123100000010000000000000BRUGPAACNOR8136
012015111702UGPA3       010ULTRAPAR    ON      NM   R$  000000000686900000000069000000000006802000000000684800000000068270000000006800000000000682705083000000000001312500000000008988752500000000000000009999123100000010000000000000BRUGPAACNOR8136
012015111802UGPA3       010ULTRAPAR    ON      NM   R$  000000000683000000000069100000000006799000000000687200000000068800000000006862000000000688005360000000000001589700000000010924519900000000000000009999123100000010000000000000BRUGPAACNOR8136
012015111902UGPA3       010ULTRAPAR    ON      NM   R$  000000000692000000000069530000000006839000000000689000000000069000000000006884000000000690006992000000000001260400000000008685395200000000000000009999123100000010000000000000BRUGPAACNOR8136
012015112302UGPA3       010ULTRAPAR    ON      NM   R$  000000000694400000000069600000000006791000000000683500000000068010000000006801000000000681405909000000000001359200000000009290419200000000000000009999123100000010000000000000BRUGPAACNOR8136
012015112402UGPA3       010ULTRAPAR    ON      NM   R$  000000000675400000000068000000000006679000000000674400000000067880000000006788000000000678906310000000000001712600000000011550882500000000000000009999123100000010000000000000BRUGPAACNOR8136
012015112502UGPA3       010ULTRAPAR    ON      NM   R$  000000000668000000000067040000000006501000000000660200000000065600000000006560000000000656208472000000000002036000000000013441723400000000000000009999123100000010000000000000BRUGPAACNOR8136
012015112602UGPA3       010ULTRAPAR    ON      NM   R$  000000000652700000000067200000000006527000000000668300000000067170000000006695000000000671702655000000000001138000000000007605909400000000000000009999123100000010000000000000BRUGPAACNOR8136
012015112702UGPA3       010ULTRAPAR    ON      NM   R$  000000000666300000000066690000000006454000000000652400000000065000000000006499000000000650007089000000000001522800000000009935334700000000000000009999123100000010000000000000BRUGPAACNOR8136
012015113002UGPA3       010ULTRAPAR    ON      NM   R$  000000000641800000000065330000000006273000000000634300000000062730000000006273000000000630410197000000000004293200000000027234179300000000000000009999123100000010000000000000BRUGPAACNOR8136
012015120102UGPA3       010ULTRAPAR    ON      NM   R$  000000000632800000000063840000000006283000000000633300000000063840000000006367000000000638407047000000000002223800000000014085085400000000000000009999123100000010000000000000BRUGPAACNOR8136
012015120202UGPA3       010ULTRAPAR    ON      NM   R$  000000000634000000000064740000000006304000000000637800000000063600000000006357000000000636006767000000000002252900000000014369882300000000000000009999123100000010000000000000BRUGPAACNOR8136
012015120302UGPA3       010ULTRAPAR    ON      NM   R$  000000000657900000000065790000000006414000000000651100000000065340000000006526000000000653408442000000000001611300000000010487543400000000000000009999123100000010000000000000BRUGPAACNOR8136
012015120402UGPA3       010ULTRAPAR    ON      NM   R$  000000000649600000000064990000000006287000000000637700000000064040000000006372000000000640408833000000000001667000000000010631809100000000000000009999123100000010000000000000BRUGPAACNOR8136
012015120702UGPA3       010ULTRAPAR    ON      NM   R$  000000000640400000000064620000000006294000000000634800000000062950000000006295000000000631909560000000000001633700000000010371489000000000000000009999123100000010000000000000BRUGPAACNOR8136
012015120802UGPA3       010ULTRAPAR    ON      NM   R$  000000000629500000000063360000000006220000000000627400000000062640000000006264000000000627005964000000000001184700000000007433083400000000000000009999123100000010000000000000BRUGPAACNOR8136
012015120902UGPA3       010ULTRAPAR    ON      NM   R$  000000000634900000000065300000000006340000000000648200000000065000000000006499000000000650011025000000000002069500000000013415477400000000000000009999123100000010000000000000BRUGPAACNOR8136
012015121002UGPA3       010ULTRAPAR    ON      NM   R$  000000000654600000000066200000000006260000000000638200000000064100000000006410000000000641409276000000000001892400000000012078344900000000000000009999123100000010000000000000BRUGPAACNOR8136
012015121102UGPA3       010ULTRAPAR    ON      NM   R$  000000000632100000000064780000000006304000000000636700000000063630000000006361000000000636306611000000000001223000000000007787231100000000000000009999123100000010000000000000BRUGPAACNOR8136
012015121402UGPA3       010ULTRAPAR    ON      NM   R$  000000000632500000000063440000000006217000000000624300000000062220000000006222000000000622704871000000000001013300000000006326368400000000000000009999123100000010000000000000BRUGPAACNOR8136
012015121502UGPA3       010ULTRAPAR    ON      NM   R$  000000000625500000000062980000000006213000000000625900000000062460000000006230000000000624605831000000000002017800000000012630614100000000000000009999123100000010000000000000BRUGPAACNOR8136
012015121602UGPA3       010ULTRAPAR    ON      NM   R$  000000000620200000000062700000000006117000000000622200000000062650000000006241000000000626607029000000000001216400000000007569356000000000000000009999123100000010000000000000BRUGPAACNOR8136
012015121702UGPA3       010ULTRAPAR    ON      NM   R$  000000000638700000000065050000000006223000000000632900000000062560000000006226000000000625607169000000000001570000000000009936250700000000000000009999123100000010000000000000BRUGPAACNOR8136
012015121802UGPA3       010ULTRAPAR    ON      NM   R$  000000000615500000000062500000000006085000000000619500000000062100000000006204000000000621007573000000000001729800000000010717286500000000000000009999123100000010000000000000BRUGPAACNOR8136
012015122102UGPA3       010ULTRAPAR    ON      NM   R$  000000000621100000000063250000000006175000000000622800000000062060000000006193000000000620606004000000000001353800000000008431919600000000000000009999123100000010000000000000BRUGPAACNOR8136
012015122202UGPA3       010ULTRAPAR    ON      NM   R$  000000000623900000000062770000000006143000000000620900000000061800000000006177000000000618004776000000000001569600000000009746256900000000000000009999123100000010000000000000BRUGPAACNOR8136
012015122302UGPA3       010ULTRAPAR    ON      NM   R$  000000000622700000000063150000000006186000000000627300000000063150000000006270000000000631504482000000000000790000000000004956053600000000000000009999123100000010000000000000BRUGPAACNOR8136
012015122802UGPA3       010ULTRAPAR    ON      NM   R$  000000000629900000000063250000000006225000000000628700000000063130000000006307000000000631303033000000000000657800000000004135977500000000000000009999123100000010000000000000BRUGPAACNOR8136
012015122902UGPA3       010ULTRAPAR    ON      NM   R$  000000000635000000000063880000000006178000000000623400000000062050000000006199000000000620503775000000000000894300000000005575147700000000000000009999123100000010000000000000BRUGPAACNOR8136
012015123002UGPA3       010ULTRAPAR    ON      NM   R$  000000000617400000000062090000000006045000000000608400000000060450000000006045000000000604906077000000000001778700000000010822040700000000000000009999123100000010000000000000BRUGPAACNOR8136
012015010202WEGE3       010WEG         ON      NM   R$  000000000307600000000031830000000003055000000000312800000000031060000000003104000000000310802784000000000000596600000000001866271800000000000000009999123100000010000000000000BRWEGEACNOR0163
012015010502WEGE3       010WEG         ON      NM   R$  000000000310100000000031060000000003042000000000307600000000030880000000003079000000000308803736000000000000738600000000002272541000000000000000009999123100000010000000000000BRWEGEACNOR0163
012015010602WEGE3       010WEG         ON      NM   R$  000000000308700000000030880000000002980000000000302900000000030410000000003041000000000304203898000000000000825900000000002501968000000000000000009999123100000010000000000000BRWEGEACNOR0163
012015010702WEGE3       010WEG         ON      NM   R$  000000000305800000000030730000000003000000000000303400000000030360000000003035000000000303601860000000000000348900000000001058832000000000000000009999123100000010000000000000BRWEGEACNOR0163
012015010802WEGE3       010WEG         ON      NM   R$  000000000304900000000030910000000003019000000000307200000000030750000000003075000000000307701331000000000000303900000000000933738300000000000000009999123100000010000000000000BRWEGEACNOR0163
012015010902WEGE3       010WEG         ON      NM   R$  000000000306400000000031070000000003033000000000306700000000030570000000003057000000000308801864000000000000348700000000001069722800000000000000009999123100000010000000000000BRWEGEACNOR0163
012015011202WEGE3       010WEG         ON      NM   R$  000000000305100000000030840000000003029000000000304200000000030400000000003040000000000305001607000000000000522600000000001590132500000000000000009999123100000010000000000000BRWEGEACNOR0163
012015011302WEGE3       010WEG         ON      NM   R$  000000000306000000000030900000000003033000000000306600000000030570000000003057000000000306001668000000000000364400000000001117512900000000000000009999123100000010000000000000BRWEGEACNOR0163
012015011402WEGE3       010WEG         ON      NM   R$  000000000307000000000031560000000003053000000000312000000000031000000000003096000000000311002534000000000000556800000000001737504300000000000000009999123100000010000000000000BRWEGEACNOR0163
012015011502WEGE3       010WEG         ON      NM   R$  000000000311500000000031380000000003087000000000310800000000031000000000003100000000000311602376000000000000601600000000001870356400000000000000009999123100000010000000000000BRWEGEACNOR0163
012015011602WEGE3       010WEG         ON      NM   R$  000000000312500000000031250000000003090000000000310500000000031000000000003100000000000311801777000000000000521900000000001620547800000000000000009999123100000010000000000000BRWEGEACNOR0163
012015011902WEGE3       010WEG         ON      NM   R$  000000000311200000000031180000000003082000000000310500000000031160000000003102000000000311602131000000000000416100000000001292394100000000000000009999123100000010000000000000BRWEGEACNOR0163
012015012002WEGE3       010WEG         ON      NM   R$  000000000312700000000031690000000003125000000000315100000000031420000000003142000000000315503173000000000000682700000000002151480700000000000000009999123100000010000000000000BRWEGEACNOR0163
012015012102WEGE3       010WEG         ON      NM   R$  000000000314700000000031810000000003110000000000314700000000031150000000003115000000000313204244000000000000593000000000001866497300000000000000009999123100000010000000000000BRWEGEACNOR0163
012015012202WEGE3       010WEG         ON      NM   R$  000000000313400000000031700000000003111000000000314200000000031470000000003114000000000314702831000000000000584100000000001835720200000000000000009999123100000010000000000000BRWEGEACNOR0163
012015012302WEGE3       010WEG         ON      NM   R$  000000000314700000000031880000000003116000000000317500000000031880000000003153000000000318901316000000000000852700000000002707752500000000000000009999123100000010000000000000BRWEGEACNOR0163
012015012602WEGE3       010WEG         ON      NM   R$  000000000318000000000031800000000003105000000000314100000000031400000000003140000000000314602174000000000000477800000000001500882100000000000000009999123100000010000000000000BRWEGEACNOR0163
012015012702WEGE3       010WEG         ON      NM   R$  000000000313900000000031950000000003125000000000316200000000031850000000003170000000000318501701000000000000585300000000001851254900000000000000009999123100000010000000000000BRWEGEACNOR0163
012015012802WEGE3       010WEG         ON      NM   R$  000000000320000000000032500000000003159000000000322400000000032300000000003225000000000323001807000000000000387500000000001249369500000000000000009999123100000010000000000000BRWEGEACNOR0163
012015012902WEGE3       010WEG         ON      NM   R$  000000000321500000000033270000000003215000000000326800000000033020000000003297000000000330203169000000000000645800000000002110964300000000000000009999123100000010000000000000BRWEGEACNOR0163
012015013002WEGE3       010WEG         ON      NM   R$  000000000330300000000033410000000003200000000000326100000000032000000000003199000000000320003045000000000000947500000000003090091900000000000000009999123100000010000000000000BRWEGEACNOR0163
012015020202WEGE3       010WEG         ON      NM   R$  000000000324000000000033000000000003212000000000326300000000032570000000003257000000000326002427000000000000396100000000001292790500000000000000009999123100000010000000000000BRWEGEACNOR0163
012015020302WEGE3       010WEG         ON      NM   R$  000000000326800000000033040000000003246000000000328100000000032830000000003270000000000328301770000000000000310200000000001017935900000000000000009999123100000010000000000000BRWEGEACNOR0163
012015020402WEGE3       010WEG         ON      NM   R$  000000000326800000000033060000000003262000000000328600000000032620000000003262000000000329002170000000000000626700000000002059469400000000000000009999123100000010000000000000BRWEGEACNOR0163
012015020502WEGE3       010WEG         ON      NM   R$  000000000327800000000032900000000003252000000000327600000000032750000000003270000000000329002756000000000000959800000000003145195200000000000000009999123100000010000000000000BRWEGEACNOR0163
012015020602WEGE3       010WEG         ON      NM   R$  000000000326900000000033010000000003249000000000327000000000032700000000003268000000000327003711000000000000774800000000002534365000000000000000009999123100000010000000000000BRWEGEACNOR0163
012015020902WEGE3       010WEG         ON      NM   R$  000000000328600000000032910000000003259000000000327200000000032700000000003269000000000327002617000000000000686900000000002248132400000000000000009999123100000010000000000000BRWEGEACNOR0163
012015021002WEGE3       010WEG         ON      NM   R$  000000000327000000000034020000000003259000000000331800000000033170000000003317000000000332003934000000000000968600000000003214821100000000000000009999123100000010000000000000BRWEGEACNOR0163
012015021102WEGE3       010WEG         ON      NM   R$  000000000331000000000033600000000003301000000000333300000000033350000000003333000000000333602921000000000000653800000000002179235500000000000000009999123100000010000000000000BRWEGEACNOR0163
012015021202WEGE3       010WEG         ON      NM   R$  000000000334000000000033730000000003229000000000331000000000032840000000003284000000000329002812000000000000616900000000002042233300000000000000009999123100000010000000000000BRWEGEACNOR0163
012015021302WEGE3       010WEG         ON      NM   R$  000000000330000000000033230000000003168000000000324800000000032400000000003239000000000324003579000000000000937000000000003041941400000000000000009999123100000010000000000000BRWEGEACNOR0163
012015021802WEGE3       010WEG         ON      NM   R$  000000000324200000000032690000000003200000000000324400000000032400000000003239000000000324302874000000000000687800000000002231882000000000000000009999123100000010000000000000BRWEGEACNOR0163
012015021902WEGE3       010WEG         ON      NM   R$  000000000325500000000032960000000003220000000000326600000000032670000000003266000000000326703332000000000000612100000000001999757300000000000000009999123100000010000000000000BRWEGEACNOR0163
012015022002WEGE3       010WEG         ON      NM   R$  000000000328700000000032870000000003241000000000326500000000032500000000003249000000000325001449000000000000415100000000001355675600000000000000009999123100000010000000000000BRWEGEACNOR0163
012015022302WEGE3       010WEG         ON      NM   R$  000000000325500000000032930000000003238000000000326300000000032680000000003251000000000326801944000000000000393000000000001282657300000000000000009999123100000010000000000000BRWEGEACNOR0163
012015022402WEGE3       010WEG         ON      NM   R$  000000000329000000000032900000000003243000000000325800000000032480000000003245000000000324801550000000000000627000000000002043289600000000000000009999123100000010000000000000BRWEGEACNOR0163
012015022502WEGE3       010WEG         ON  ED  NM   R$  000000000324700000000032550000000003152000000000318900000000031810000000003177000000000318102346000000000000687600000000002192917200000000000000009999123100000010000000000000BRWEGEACNOR0164
012015022602WEGE3       010WEG         ON  ED  NM   R$  000000000320000000000032000000000003136000000000316000000000031500000000003148000000000315001743000000000000560400000000001770637900000000000000009999123100000010000000000000BRWEGEACNOR0164
012015022702WEGE3       010WEG         ON  ED  NM   R$  000000000314100000000031620000000003070000000000310300000000030700000000003069000000000307003698000000000000969200000000003007491400000000000000009999123100000010000000000000BRWEGEACNOR0164
012015030202WEGE3       010WEG         ON  ED  NM   R$  000000000307100000000031140000000003015000000000307000000000031140000000003100000000000311404226000000000001328300000000004078168700000000000000009999123100000010000000000000BRWEGEACNOR0164
012015030302WEGE3       010WEG         ON  ED  NM   R$  000000000310100000000031790000000003092000000000314000000000031550000000003152000000000315504768000000000001314200000000004127352900000000000000009999123100000010000000000000BRWEGEACNOR0164
012015030402WEGE3       010WEG         ON  ED  NM   R$  000000000315500000000032180000000003155000000000319100000000031890000000003176000000000318903448000000000001263800000000004033457900000000000000009999123100000010000000000000BRWEGEACNOR0164
012015030502WEGE3       010WEG         ON  ED  NM   R$  000000000317000000000031880000000003124000000000316100000000031400000000003138000000000314003960000000000001098900000000003474629700000000000000009999123100000010000000000000BRWEGEACNOR0164
012015030602WEGE3       010WEG         ON  ED  NM   R$  000000000313400000000031780000000003082000000000314800000000031250000000003123000000000314703197000000000000915400000000002881744500000000000000009999123100000010000000000000BRWEGEACNOR0164
012015030902WEGE3       010WEG         ON      NM   R$  000000000311900000000031490000000003046000000000308700000000031050000000003105000000000311904053000000000000862500000000002662589800000000000000009999123100000010000000000000BRWEGEACNOR0164
012015031002WEGE3       010WEG         ON      NM   R$  000000000310400000000031190000000003060000000000307600000000030600000000003060000000000309103807000000000000571400000000001758012200000000000000009999123100000010000000000000BRWEGEACNOR0164
012015031102WEGE3       010WEG         ON      NM   R$  000000000311500000000031220000000003095000000000310600000000031050000000003100000000000310502059000000000000477500000000001483297400000000000000009999123100000010000000000000BRWEGEACNOR0164
012015031202WEGE3       010WEG         ON      NM   R$  000000000314000000000031760000000003112000000000314800000000031650000000003150000000000316503260000000000000612000000000001926957000000000000000009999123100000010000000000000BRWEGEACNOR0164
012015031302WEGE3       010WEG         ON      NM   R$  000000000315500000000031800000000003123000000000314500000000031500000000003143000000000315001661000000000000439700000000001383112700000000000000009999123100000010000000000000BRWEGEACNOR0164
012015031602WEGE3       010WEG         ON      NM   R$  000000000315000000000031600000000003060000000000307700000000030700000000003068000000000307003125000000000000921800000000002836523400000000000000009999123100000010000000000000BRWEGEACNOR0164
012015031702WEGE3       010WEG         ON      NM   R$  000000000306400000000031210000000003053000000000308600000000030680000000003068000000000308004998000000000000804300000000002482301600000000000000009999123100000010000000000000BRWEGEACNOR0164
012015031802WEGE3       010WEG         ON      NM   R$  000000000306800000000031560000000003068000000000313400000000031300000000003129000000000313002855000000000000578700000000001813727400000000000000009999123100000010000000000000BRWEGEACNOR0164
012015031902WEGE3       010WEG         ON      NM   R$  000000000312300000000031590000000003100000000000313000000000031300000000003130000000000313901468000000000000351000000000001098835300000000000000009999123100000010000000000000BRWEGEACNOR0164
012015032002WEGE3       010WEG         ON      NM   R$  000000000316100000000031700000000003095000000000312700000000031300000000003130000000000314002189000000000000734100000000002296258100000000000000009999123100000010000000000000BRWEGEACNOR0164
012015032302WEGE3       010WEG         ON      NM   R$  000000000315000000000031500000000003065000000000309900000000030800000000003080000000000308704466000000000001253900000000003885904600000000000000009999123100000010000000000000BRWEGEACNOR0164
012015032402WEGE3       010WEG         ON      NM   R$  000000000308400000000031120000000003066000000000308200000000030750000000003075000000000309502992000000000000827500000000002550929300000000000000009999123100000010000000000000BRWEGEACNOR0164
012015032502WEGE3       010WEG         ON  EJ  NM   R$  000000000308400000000031120000000003051000000000307500000000030650000000003063000000000306901444000000000000292600000000000899972700000000000000009999123100000010000000000000BRWEGEACNOR0165
012015032602WEGE3       010WEG         ON  EJ  NM   R$  000000000305600000000030850000000002971000000000304200000000030410000000003041000000000305501889000000000000631000000000001919629900000000000000009999123100000010000000000000BRWEGEACNOR0165
012015032702WEGE3       010WEG         ON  EJ  NM   R$  000000000304500000000031290000000003000000000000308900000000030960000000003096000000000310903441000000000000711600000000002198744200000000000000009999123100000010000000000000BRWEGEACNOR0165
012015033002WEGE3       010WEG         ON  EJ  NM   R$  000000000307700000000031950000000003077000000000315800000000031860000000003186000000000318901975000000000001290400000000004075909700000000000000009999123100000010000000000000BRWEGEACNOR0165
012015033102WEGE3       010WEG         ON  EJ  NM   R$  000000000319000000000032290000000003161000000000318600000000031800000000003180000000000319603879000000000001011600000000003223518700000000000000009999123100000010000000000000BRWEGEACNOR0165
012015040102WEGE3       010WEG         ON  EJB NM   R$  000000000160000000000016330000000001591000000000161600000000016150000000001615000000000161706796000000000002279200000000003684603400000000000000009999123100000010000000000000BRWEGEACNOR0166
012015040202WEGE3       010WEG         ON  EJB NM   R$  000000000163500000000016530000000001613000000000162300000000016200000000001619000000000162006380000000000001838000000000002984366100000000000000009999123100000010000000000000BRWEGEACNOR0166
012015040602WEGE3       010WEG         ON  EJB NM   R$  000000000163900000000016440000000001614000000000162500000000016210000000001621000000000163208302000000000001997800000000003247862900000000000000009999123100000010000000000000BRWEGEACNOR0166
012015040702WEGE3       010WEG         ON  EB  NM   R$  000000000163700000000016570000000001628000000000163800000000016410000000001640000000000164103824000000000000940600000000001541121400000000000000009999123100000010000000000000BRWEGEACNOR0166
012015040802WEGE3       010WEG         ON  EB  NM   R$  000000000164000000000016550000000001596000000000163100000000016230000000001623000000000162407248000000000001445300000000002357810500000000000000009999123100000010000000000000BRWEGEACNOR0166
012015040902WEGE3       010WEG         ON  EB  NM   R$  000000000162900000000016430000000001598000000000161700000000016170000000001616000000000161705883000000000001353300000000002188229500000000000000009999123100000010000000000000BRWEGEACNOR0166
012015041002WEGE3       010WEG         ON  EB  NM   R$  000000000160700000000016290000000001604000000000161600000000016210000000001612000000000162102025000000000000480200000000000776267000000000000000009999123100000010000000000000BRWEGEACNOR0166
012015041302WEGE3       010WEG         ON  EB  NM   R$  000000000162200000000016250000000001601000000000160700000000016050000000001605000000000160903542000000000001040900000000001673170700000000000000009999123100000010000000000000BRWEGEACNOR0166
012015041402WEGE3       010WEG         ON      NM   R$  000000000160100000000016330000000001595000000000161900000000016200000000001613000000000162003253000000000000910300000000001474233500000000000000009999123100000010000000000000BRWEGEACNOR0166
012015041502WEGE3       010WEG         ON      NM   R$  000000000162100000000016350000000001613000000000162600000000016250000000001616000000000162504793000000000000900400000000001464344600000000000000009999123100000010000000000000BRWEGEACNOR0166
012015041602WEGE3       010WEG         ON      NM   R$  000000000162500000000016250000000001586000000000160100000000015970000000001593000000000159804126000000000001234800000000001977168700000000000000009999123100000010000000000000BRWEGEACNOR0166
012015041702WEGE3       010WEG         ON      NM   R$  000000000159400000000016160000000001571000000000159700000000015990000000001591000000000159905011000000000001338200000000002138032800000000000000009999123100000010000000000000BRWEGEACNOR0166
012015042002WEGE3       010WEG         ON      NM   R$  000000000159500000000016030000000001573000000000158200000000015730000000001572000000000157302429000000000001097800000000001737372200000000000000009999123100000010000000000000BRWEGEACNOR0166
012015042202WEGE3       010WEG         ON      NM   R$  000000000156400000000015940000000001555000000000156800000000015670000000001563000000000156704735000000000002285000000000003583715900000000000000009999123100000010000000000000BRWEGEACNOR0166
012015042302WEGE3       010WEG         ON      NM   R$  000000000157600000000015860000000001559000000000157200000000015730000000001573000000000157504664000000000001209500000000001902485500000000000000009999123100000010000000000000BRWEGEACNOR0166
012015042402WEGE3       010WEG         ON      NM   R$  000000000158200000000016050000000001573000000000158300000000015900000000001590000000000159206941000000000001564900000000002478393500000000000000009999123100000010000000000000BRWEGEACNOR0166
012015042702WEGE3       010WEG         ON      NM   R$  000000000160000000000016030000000001575000000000158300000000015800000000001580000000000158503131000000000000851800000000001349004700000000000000009999123100000010000000000000BRWEGEACNOR0166
012015042802WEGE3       010WEG         ON      NM   R$  000000000159000000000015900000000001551000000000156700000000015700000000001569000000000157102985000000000000961200000000001506652500000000000000009999123100000010000000000000BRWEGEACNOR0166
012015042902WEGE3       010WEG         ON      NM   R$  000000000157700000000015890000000001565000000000158100000000015890000000001589000000000159003712000000000001202800000000001902026500000000000000009999123100000010000000000000BRWEGEACNOR0166
012015043002WEGE3       010WEG         ON      NM   R$  000000000159500000000016120000000001582000000000160400000000016050000000001605000000000161106109000000000002078800000000003335642100000000000000009999123100000010000000000000BRWEGEACNOR0166
012015050402WEGE3       010WEG         ON      NM   R$  000000000160300000000016630000000001603000000000164800000000016490000000001647000000000164905185000000000001754700000000002892264200000000000000009999123100000010000000000000BRWEGEACNOR0166
012015050502WEGE3       010WEG         ON      NM   R$  000000000165100000000016810000000001644000000000166500000000016810000000001680000000000168105069000000000001554100000000002589017800000000000000009999123100000010000000000000BRWEGEACNOR0166
012015050602WEGE3       010WEG         ON      NM   R$  000000000168000000000016940000000001655000000000166500000000016720000000001665000000000167204312000000000001161700000000001934586100000000000000009999123100000010000000000000BRWEGEACNOR0166
012015050702WEGE3       010WEG         ON      NM   R$  000000000167700000000016820000000001661000000000167000000000016720000000001672000000000167403176000000000000724700000000001210404100000000000000009999123100000010000000000000BRWEGEACNOR0166
012015050802WEGE3       010WEG         ON      NM   R$  000000000167500000000016880000000001662000000000168100000000016880000000001676000000000168803040000000000000736900000000001238903900000000000000009999123100000010000000000000BRWEGEACNOR0166
012015051102WEGE3       010WEG         ON      NM   R$  000000000169000000000017080000000001689000000000170000000000017030000000001703000000000170406715000000000001611500000000002740900100000000000000009999123100000010000000000000BRWEGEACNOR0166
012015051202WEGE3       010WEG         ON      NM   R$  000000000170800000000017240000000001691000000000171300000000017150000000001711000000000171504546000000000001890300000000003238752000000000000000009999123100000010000000000000BRWEGEACNOR0166
012015051302WEGE3       010WEG         ON      NM   R$  000000000171500000000017200000000001683000000000169500000000016920000000001692000000000169905274000000000001322300000000002241868400000000000000009999123100000010000000000000BRWEGEACNOR0166
012015051402WEGE3       010WEG         ON      NM   R$  000000000169900000000017470000000001692000000000172800000000017450000000001735000000000174505606000000000000982600000000001698831300000000000000009999123100000010000000000000BRWEGEACNOR0166
012015051502WEGE3       010WEG         ON      NM   R$  000000000174400000000017660000000001720000000000173500000000017420000000001732000000000174203821000000000000779600000000001353247200000000000000009999123100000010000000000000BRWEGEACNOR0166
012015051802WEGE3       010WEG         ON      NM   R$  000000000174100000000017450000000001709000000000172000000000017210000000001709000000000172102877000000000001128900000000001942685100000000000000009999123100000010000000000000BRWEGEACNOR0166
012015051902WEGE3       010WEG         ON      NM   R$  000000000172500000000017250000000001695000000000170600000000017010000000001701000000000171503229000000000000804500000000001373182000000000000000009999123100000010000000000000BRWEGEACNOR0166
012015052002WEGE3       010WEG         ON      NM   R$  000000000170000000000017370000000001695000000000171500000000017140000000001713000000000171503903000000000001282400000000002199775300000000000000009999123100000010000000000000BRWEGEACNOR0166
012015052102WEGE3       010WEG         ON      NM   R$  000000000171400000000017250000000001692000000000171200000000017200000000001712000000000172002648000000000000999300000000001711519800000000000000009999123100000010000000000000BRWEGEACNOR0166
012015052202WEGE3       010WEG         ON      NM   R$  000000000171900000000017440000000001700000000000172100000000017240000000001724000000000172805801000000000001312800000000002260010000000000000000009999123100000010000000000000BRWEGEACNOR0166
012015052502WEGE3       010WEG         ON      NM   R$  000000000172400000000017860000000001724000000000174700000000017640000000001756000000000176402214000000000000720900000000001259996500000000000000009999123100000010000000000000BRWEGEACNOR0166
012015052602WEGE3       010WEG         ON      NM   R$  000000000177100000000017730000000001706000000000171600000000017090000000001708000000000172006248000000000001974400000000003389531100000000000000009999123100000010000000000000BRWEGEACNOR0166
012015052702WEGE3       010WEG         ON      NM   R$  000000000169800000000017420000000001688000000000171700000000017310000000001725000000000173104027000000000001112000000000001909923500000000000000009999123100000010000000000000BRWEGEACNOR0166
012015052802WEGE3       010WEG         ON      NM   R$  000000000172800000000017280000000001708000000000171800000000017200000000001720000000000172303487000000000000885200000000001521288100000000000000009999123100000010000000000000BRWEGEACNOR0166
012015052902WEGE3       010WEG         ON      NM   R$  000000000172400000000017420000000001702000000000172100000000017210000000001721000000000173303355000000000001415500000000002437076800000000000000009999123100000010000000000000BRWEGEACNOR0166
012015060102WEGE3       010WEG         ON      NM   R$  000000000174300000000017430000000001700000000000171700000000017290000000001716000000000172902849000000000000935300000000001606579500000000000000009999123100000010000000000000BRWEGEACNOR0166
012015060202WEGE3       010WEG         ON      NM   R$  000000000173200000000017750000000001727000000000175800000000017750000000001764000000000177504903000000000001716700000000003018148200000000000000009999123100000010000000000000BRWEGEACNOR0166
012015060302WEGE3       010WEG         ON      NM   R$  000000000177000000000017880000000001760000000000177300000000017750000000001769000000000177506629000000000001549400000000002747578500000000000000009999123100000010000000000000BRWEGEACNOR0166
012015060502WEGE3       010WEG         ON      NM   R$  000000000178500000000017950000000001767000000000178300000000017860000000001786000000000178904336000000000001040800000000001856728300000000000000009999123100000010000000000000BRWEGEACNOR0166
012015060802WEGE3       010WEG         ON      NM   R$  000000000177500000000018150000000001771000000000178700000000017850000000001785000000000179003950000000000001606500000000002871763300000000000000009999123100000010000000000000BRWEGEACNOR0166
012015060902WEGE3       010WEG         ON      NM   R$  000000000178500000000018310000000001776000000000180600000000018090000000001804000000000180905584000000000001498300000000002706869200000000000000009999123100000010000000000000BRWEGEACNOR0166
012015061002WEGE3       010WEG         ON      NM   R$  000000000180400000000018180000000001783000000000179900000000018150000000001814000000000181704729000000000001120500000000002016152800000000000000009999123100000010000000000000BRWEGEACNOR0166
012015061102WEGE3       010WEG         ON      NM   R$  000000000181500000000018370000000001814000000000182700000000018300000000001830000000000183602862000000000001280200000000002340170000000000000000009999123100000010000000000000BRWEGEACNOR0166
012015061202WEGE3       010WEG         ON      NM   R$  000000000182100000000018360000000001809000000000182600000000018200000000001817000000000182103069000000000001295500000000002365902300000000000000009999123100000010000000000000BRWEGEACNOR0166
012015061502WEGE3       010WEG         ON      NM   R$  000000000182500000000018250000000001795000000000180400000000018000000000001800000000000181102872000000000000594800000000001073053100000000000000009999123100000010000000000000BRWEGEACNOR0166
012015061602WEGE3       010WEG         ON      NM   R$  000000000180600000000018440000000001806000000000183400000000018330000000001829000000000183305022000000000001162100000000002131571300000000000000009999123100000010000000000000BRWEGEACNOR0166
012015061702WEGE3       010WEG         ON      NM   R$  000000000183200000000018510000000001820000000000183900000000018400000000001837000000000184002254000000000000690600000000001270172900000000000000009999123100000010000000000000BRWEGEACNOR0166
012015061802WEGE3       010WEG         ON      NM   R$  000000000184000000000018640000000001832000000000184700000000018550000000001850000000000185504012000000000001607600000000002969826200000000000000009999123100000010000000000000BRWEGEACNOR0166
012015061902WEGE3       010WEG         ON      NM   R$  000000000185400000000018770000000001842000000000186200000000018700000000001869000000000187004643000000000002533200000000004717237400000000000000009999123100000010000000000000BRWEGEACNOR0166
012015062202WEGE3       010WEG         ON      NM   R$  000000000187800000000019000000000001875000000000189000000000018900000000001890000000000189505389000000000002305900000000004359577000000000000000009999123100000010000000000000BRWEGEACNOR0166
012015062302WEGE3       010WEG         ON      NM   R$  000000000190000000000019160000000001891000000000190200000000018910000000001891000000000190703891000000000001571000000000002988158900000000000000009999123100000010000000000000BRWEGEACNOR0166
012015062402WEGE3       010WEG         ON  EJ  NM   R$  000000000188800000000019110000000001880000000000189200000000018800000000001880000000000188705011000000000001469200000000002780187300000000000000009999123100000010000000000000BRWEGEACNOR0167
012015062502WEGE3       010WEG         ON  EJ  NM   R$  000000000188900000000019120000000001872000000000189200000000019000000000001900000000000191002841000000000001173300000000002220705600000000000000009999123100000010000000000000BRWEGEACNOR0167
012015062602WEGE3       010WEG         ON  EJ  NM   R$  000000000190000000000019340000000001900000000000192000000000019230000000001923000000000193003819000000000000883400000000001696356800000000000000009999123100000010000000000000BRWEGEACNOR0167
012015062902WEGE3       010WEG         ON  EJ  NM   R$  000000000192000000000019300000000001878000000000190200000000019000000000001898000000000190003187000000000000765200000000001455429900000000000000009999123100000010000000000000BRWEGEACNOR0167
012015063002WEGE3       010WEG         ON  EJ  NM   R$  000000000191000000000019300000000001901000000000191500000000019050000000001904000000000192206782000000000002009800000000003849477600000000000000009999123100000010000000000000BRWEGEACNOR0167
012015070102WEGE3       010WEG         ON  EJ  NM   R$  000000000191600000000019600000000001913000000000194100000000019400000000001940000000000194806429000000000001320100000000002563573100000000000000009999123100000010000000000000BRWEGEACNOR0167
012015070202WEGE3       010WEG         ON  EJ  NM   R$  000000000194500000000019720000000001945000000000195800000000019600000000001955000000000196004009000000000001107300000000002168806800000000000000009999123100000010000000000000BRWEGEACNOR0167
012015070302WEGE3       010WEG         ON  EJ  NM   R$  000000000196000000000020170000000001953000000000198500000000019820000000001981000000000198206665000000000001279900000000002540648500000000000000009999123100000010000000000000BRWEGEACNOR0167
012015070602WEGE3       010WEG         ON      NM   R$  000000000198600000000019900000000001972000000000197900000000019770000000001974000000000197803961000000000001858100000000003678274700000000000000009999123100000010000000000000BRWEGEACNOR0167
012015070702WEGE3       010WEG         ON      NM   R$  000000000199000000000020000000000001969000000000198400000000020000000000001980000000000200007779000000000003670900000000007286249200000000000000009999123100000010000000000000BRWEGEACNOR0167
012015070802WEGE3       010WEG         ON      NM   R$  000000000199800000000020180000000001964000000000199400000000019780000000001978000000000197906772000000000001724900000000003439626800000000000000009999123100000010000000000000BRWEGEACNOR0167
012015071002WEGE3       010WEG         ON      NM   R$  000000000197000000000019850000000001954000000000197000000000019720000000001967000000000197204714000000000001131200000000002228857300000000000000009999123100000010000000000000BRWEGEACNOR0167
012015071302WEGE3       010WEG         ON      NM   R$  000000000197500000000019750000000001954000000000196500000000019700000000001960000000000197003293000000000000818600000000001609187600000000000000009999123100000010000000000000BRWEGEACNOR0167
012015071402WEGE3       010WEG         ON      NM   R$  000000000197000000000019890000000001961000000000197200000000019770000000001974000000000197705882000000000001448200000000002857252700000000000000009999123100000010000000000000BRWEGEACNOR0167
012015071502WEGE3       010WEG         ON      NM   R$  000000000197800000000019840000000001963000000000197000000000019700000000001969000000000197009861000000000002970200000000005853605600000000000000009999123100000010000000000000BRWEGEACNOR0167
012015071602WEGE3       010WEG         ON      NM   R$  000000000197500000000019820000000001967000000000197400000000019730000000001973000000000197503987000000000001668700000000003295362200000000000000009999123100000010000000000000BRWEGEACNOR0167
012015071702WEGE3       010WEG         ON      NM   R$  000000000197300000000019800000000001955000000000196900000000019610000000001960000000000196404351000000000001303400000000002566957300000000000000009999123100000010000000000000BRWEGEACNOR0167
012015072002WEGE3       010WEG         ON      NM   R$  000000000196100000000019720000000001938000000000196100000000019600000000001958000000000196004183000000000001053200000000002065965000000000000000009999123100000010000000000000BRWEGEACNOR0167
012015072102WEGE3       010WEG         ON      NM   R$  000000000196000000000019960000000001960000000000197900000000019800000000001979000000000198009348000000000002525900000000004999376700000000000000009999123100000010000000000000BRWEGEACNOR0167
012015072202WEGE3       010WEG         ON      NM   R$  000000000198000000000020020000000001970000000000198700000000019900000000001989000000000199204503000000000001261500000000002506931000000000000000009999123100000010000000000000BRWEGEACNOR0167
012015072302WEGE3       010WEG         ON      NM   R$  000000000199000000000020050000000001963000000000198900000000019900000000001985000000000199204782000000000002567700000000005108904800000000000000009999123100000010000000000000BRWEGEACNOR0167
012015072402WEGE3       010WEG         ON      NM   R$  000000000199400000000020050000000001960000000000199000000000020000000000001998000000000200005429000000000001491800000000002969766300000000000000009999123100000010000000000000BRWEGEACNOR0167
012015072702WEGE3       010WEG         ON      NM   R$  000000000198800000000020120000000001962000000000197900000000019670000000001967000000000197003093000000000000903600000000001788604300000000000000009999123100000010000000000000BRWEGEACNOR0167
012015072802WEGE3       010WEG         ON      NM   R$  000000000196700000000019760000000001900000000000191900000000019000000000001900000000000190807056000000000002266000000000004348553800000000000000009999123100000010000000000000BRWEGEACNOR0167
012015072902WEGE3       010WEG         ON  ED  NM   R$  000000000188000000000019000000000001820000000000185000000000018300000000001825000000000183212205000000000002853700000000005280218600000000000000009999123100000010000000000000BRWEGEACNOR0168
012015073002WEGE3       010WEG         ON  ED  NM   R$  000000000182900000000018490000000001809000000000182400000000018200000000001819000000000182808171000000000001929500000000003520666300000000000000009999123100000010000000000000BRWEGEACNOR0168
012015073102WEGE3       010WEG         ON  ED  NM   R$  000000000181900000000018880000000001819000000000187000000000018800000000001869000000000188007137000000000002482600000000004644885000000000000000009999123100000010000000000000BRWEGEACNOR0168
012015080302WEGE3       010WEG         ON  ED  NM   R$  000000000189000000000019000000000001861000000000187600000000018770000000001876000000000187905015000000000001048700000000001967850300000000000000009999123100000010000000000000BRWEGEACNOR0168
012015080402WEGE3       010WEG         ON  ED  NM   R$  000000000187000000000019120000000001869000000000188700000000019060000000001896000000000190606743000000000001466700000000002768803200000000000000009999123100000010000000000000BRWEGEACNOR0168
012015080502WEGE3       010WEG         ON  ED  NM   R$  000000000191800000000019250000000001855000000000188500000000018550000000001855000000000186805910000000000001380800000000002602880000000000000000009999123100000010000000000000BRWEGEACNOR0168
012015080602WEGE3       010WEG         ON  ED  NM   R$  000000000186500000000018710000000001822000000000184900000000018500000000001847000000000185003991000000000001234200000000002282981400000000000000009999123100000010000000000000BRWEGEACNOR0168
012015080702WEGE3       010WEG         ON  ED  NM   R$  000000000185000000000018640000000001833000000000184800000000018440000000001844000000000185403823000000000000738900000000001364593900000000000000009999123100000010000000000000BRWEGEACNOR0168
012015081002WEGE3       010WEG         ON      NM   R$  000000000184900000000018530000000001829000000000184600000000018500000000001848000000000185003208000000000000611300000000001128686500000000000000009999123100000010000000000000BRWEGEACNOR0168
012015081102WEGE3       010WEG         ON      NM   R$  000000000185900000000018590000000001832000000000184500000000018370000000001837000000000185003294000000000000695200000000001282946100000000000000009999123100000010000000000000BRWEGEACNOR0168
012015081202WEGE3       010WEG         ON      NM   R$  000000000184600000000018550000000001786000000000181000000000018050000000001798000000000180505127000000000001261800000000002285071100000000000000009999123100000010000000000000BRWEGEACNOR0168
012015081302WEGE3       010WEG         ON      NM   R$  000000000179600000000018080000000001752000000000178200000000017750000000001771000000000178207317000000000001208700000000002154515200000000000000009999123100000010000000000000BRWEGEACNOR0168
012015081402WEGE3       010WEG         ON      NM   R$  000000000178400000000017840000000001733000000000175000000000017410000000001741000000000175104932000000000000797000000000001395019500000000000000009999123100000010000000000000BRWEGEACNOR0168
012015081702WEGE3       010WEG         ON      NM   R$  000000000172900000000017690000000001700000000000172300000000017120000000001712000000000173007330000000000001342600000000002313653600000000000000009999123100000010000000000000BRWEGEACNOR0168
012015081802WEGE3       010WEG         ON      NM   R$  000000000171200000000017860000000001712000000000174300000000017500000000001750000000000176408967000000000003071100000000005355262700000000000000009999123100000010000000000000BRWEGEACNOR0168
012015081902WEGE3       010WEG         ON      NM   R$  000000000175600000000017700000000001718000000000174900000000017650000000001753000000000176505700000000000001035600000000001811344200000000000000009999123100000010000000000000BRWEGEACNOR0168
012015082002WEGE3       010WEG         ON      NM   R$  000000000175900000000017900000000001669000000000169300000000016690000000001668000000000166905845000000000001554400000000002631728700000000000000009999123100000010000000000000BRWEGEACNOR0168
