Headerzao daora
012015010202UGPA3       010ULTRAPAR    ON      NM   R$  000000000511000000000051380000000005016000000000505100000000050660000000005037000000000506606687000000000001317900000000006657046200000000000000009999123100000010000000000000BRUGPAACNOR8134
012015010296UGPA3F      020ULTRAPAR    ON      NM   R$  000000000510000000000052920000000005011000000000504600000000050160000000005016000000000514800055000000000000001795000000000009058008000000000000009999123100000010000000000000BRUGPAACNOR8134
012015010262UGPA3T      030ULTRAPAR    ON      NM017R$  000000000507700000000050780000000005077000000000507700000000050780000000000000000000000000000002000000000000000500000000000002538630000000000000009999123100000010000000000000BRUGPAACNOR8134
012015010502UGPA3       010ULTRAPAR    ON      NM   R$  000000000496500000000050250000000004930000000000495700000000049410000000004941000000000494908126000000000001463100000000007253042700000000000000009999123100000010000000000000BRUGPAACNOR8134
012015010596UGPA3F      020ULTRAPAR    ON      NM   R$  000000000496500000000050120000000004920000000000496000000000049400000000004940000000000498100218000000000000002532000000000012559464000000000000009999123100000010000000000000BRUGPAACNOR8134
012015010602UGPA3       010ULTRAPAR    ON      NM   R$  000000000493300000000049840000000004888000000000491200000000049100000000004910000000000491406959000000000002010900000000009879439800000000000000009999123100000010000000000000BRUGPAACNOR8134
012015010696UGPA3F      020ULTRAPAR    ON      NM   R$  000000000497000000000049790000000004887000000000492300000000049340000000004900000000000493400192000000000000001683000000000008286481000000000000009999123100000010000000000000BRUGPAACNOR8134
012015010702UGPA3       010ULTRAPAR    ON      NM   R$  000000000497500000000051500000000004955000000000506500000000050400000000005040000000000504709991000000000002106900000000010672820300000000000000009999123100000010000000000000BRUGPAACNOR8134
012015010796UGPA3F      020ULTRAPAR    ON      NM   R$  000000000498800000000051450000000004988000000000506800000000050380000000004891000000000503800579000000000000002863000000000014511552000000000000009999123100000010000000000000BRUGPAACNOR8134
012015010762UGPA3T      030ULTRAPAR    ON      NM030R$  000000000512100000000051220000000005118000000000512000000000051210000000000000000000000000000010000000000000003000000000000015362058000000000000009999123100000010000000000000BRUGPAACNOR8134
012015010762UGPA3T      030ULTRAPAR    ON      NM061R$  000000000514400000000051450000000005144000000000514400000000051450000000000000000000000000000002000000000000000500000000000002572233000000000000009999123100000010000000000000BRUGPAACNOR8134
012015010802UGPA3       010ULTRAPAR    ON      NM   R$  000000000507800000000051160000000004978000000000503300000000050240000000005024000000000503105467000000000000847300000000004265068000000000000000009999123100000010000000000000BRUGPAACNOR8134
012015010896UGPA3F      020ULTRAPAR    ON      NM   R$  000000000509000000000051390000000004983000000000505800000000049900000000004990000000000513900200000000000000001328000000000006716002000000000000009999123100000010000000000000BRUGPAACNOR8134
012015010862UGPA3T      030ULTRAPAR    ON      NM018R$  000000000501500000000050160000000005015000000000501500000000050160000000000000000000000000000002000000000000000500000000000002507974000000000000009999123100000010000000000000BRUGPAACNOR8134
012015010902UGPA3       010ULTRAPAR    ON      NM   R$  000000000498000000000050090000000004891000000000493600000000049500000000004903000000000495805734000000000001327500000000006553272600000000000000009999123100000010000000000000BRUGPAACNOR8134
012015010996UGPA3F      020ULTRAPAR    ON      NM   R$  000000000500000000000050000000000004900000000000494500000000049980000000004890000000000499800146000000000000001372000000000006785383000000000000009999123100000010000000000000BRUGPAACNOR8134
012015010962UGPA3T      030ULTRAPAR    ON      NM017R$  000000000500400000000050050000000004939000000000496900000000049400000000000000000000000000000010000000000000000500000000000002484661000000000000009999123100000010000000000000BRUGPAACNOR8134
012015011202UGPA3       010ULTRAPAR    ON      NM   R$  000000000490200000000049500000000004853000000000489100000000049000000000004893000000000490005507000000000000938300000000004589698900000000000000009999123100000010000000000000BRUGPAACNOR8134
012015011296UGPA3F      020ULTRAPAR    ON      NM   R$  000000000489500000000049520000000004855000000000489700000000048550000000004858000000000495300066000000000000001314000000000006435220000000000000009999123100000010000000000000BRUGPAACNOR8134
012015011262UGPA3T      030ULTRAPAR    ON      NM016R$  000000000492000000000049210000000004920000000000492000000000049210000000000000000000000000000002000000000000000500000000000002460227000000000000009999123100000010000000000000BRUGPAACNOR8134
012015011262UGPA3T      030ULTRAPAR    ON      NM030R$  000000000494200000000049430000000004942000000000494200000000049430000000000000000000000000000002000000000000001600000000000007907970000000000000009999123100000010000000000000BRUGPAACNOR8134
012015011262UGPA3T      030ULTRAPAR    ON      NM360R$  000000000553800000000055390000000005538000000000553800000000055390000000000000000000000000000002000000000000000100000000000000553896000000000000009999123100000010000000000000BRUGPAACNOR8134
012015011302UGPA3       010ULTRAPAR    ON      NM   R$  000000000491100000000049820000000004864000000000492400000000049240000000004920000000000492405092000000000000945500000000004656194500000000000000009999123100000010000000000000BRUGPAACNOR8134
012015011396UGPA3F      020ULTRAPAR    ON      NM   R$  000000000491400000000049650000000004862000000000491900000000049000000000004862000000000490000085000000000000002179000000000010721674000000000000009999123100000010000000000000BRUGPAACNOR8134
012015011362UGPA3T      030ULTRAPAR    ON      NM020R$  000000000497400000000049750000000004974000000000497400000000049750000000000000000000000000000002000000000000000200000000000000994840000000000000009999123100000010000000000000BRUGPAACNOR8134
012015011402UGPA3       010ULTRAPAR    ON      NM   R$  000000000491900000000049880000000004885000000000492800000000049250000000004925000000000493004880000000000000830200000000004091962500000000000000009999123100000010000000000000BRUGPAACNOR8134
012015011496UGPA3F      020ULTRAPAR    ON      NM   R$  000000000495000000000049980000000004893000000000493100000000049980000000004892000000000499800043000000000000000939000000000004630941000000000000009999123100000010000000000000BRUGPAACNOR8134
012015011462UGPA3T      030ULTRAPAR    ON      NM016R$  000000000491900000000049600000000004919000000000495100000000049600000000000000000000000000000004000000000000002675000000000013245823000000000000009999123100000010000000000000BRUGPAACNOR8134
012015011502UGPA3       010ULTRAPAR    ON      NM   R$  000000000495400000000050390000000004943000000000498100000000049550000000004954000000000497506181000000000001288700000000006419158800000000000000009999123100000010000000000000BRUGPAACNOR8134
012015011596UGPA3F      020ULTRAPAR    ON      NM   R$  000000000499000000000050580000000004950000000000499700000000050580000000004892000000000505800084000000000000001889000000000009438494000000000000009999123100000010000000000000BRUGPAACNOR8134
012015011602UGPA3       010ULTRAPAR    ON      NM   R$  000000000496800000000051370000000004934000000000504800000000050650000000005031000000000506605943000000000001000900000000005052608700000000000000009999123100000010000000000000BRUGPAACNOR8134
012015011696UGPA3F      020ULTRAPAR    ON      NM   R$  000000000493900000000051260000000004939000000000504800000000050040000000005004000000000514900087000000000000002341000000000011822462000000000000009999123100000010000000000000BRUGPAACNOR8134
012015011902UGPA3       010ULTRAPAR    ON      NM   R$  000000000502600000000050780000000004906000000000499400000000049930000000004910000000000499303528000000000000789000000000003940413800000000000000009999123100000010000000000000BRUGPAACNOR8134
012015011996UGPA3F      020ULTRAPAR    ON      NM   R$  000000000509700000000050970000000004910000000000500300000000049360000000004934000000000504900105000000000000001327000000000006638065000000000000009999123100000010000000000000BRUGPAACNOR8134
012015011962UGPA3T      030ULTRAPAR    ON      NM045R$  000000000499200000000050640000000004992000000000503200000000050230000000000000000000000000000008000000000000001000000000000005032514000000000000009999123100000010000000000000BRUGPAACNOR8134
012015012002UGPA3       010ULTRAPAR    ON      NM   R$  000000000506000000000050920000000005020000000000506300000000050580000000005058000000000508004622000000000001091600000000005527621900000000000000009999123100000010000000000000BRUGPAACNOR8134
012015012096UGPA3F      020ULTRAPAR    ON      NM   R$  000000000499300000000050830000000004993000000000504600000000050690000000005002000000000508100104000000000000001532000000000007731581000000000000009999123100000010000000000000BRUGPAACNOR8134
012015012102UGPA3       010ULTRAPAR    ON      NM   R$  000000000510000000000052830000000005065000000000516900000000052050000000005182000000000520507136000000000001577500000000008155042800000000000000009999123100000010000000000000BRUGPAACNOR8134
012015012196UGPA3F      020ULTRAPAR    ON      NM   R$  000000000509200000000052760000000005084000000000519900000000052760000000005154000000000527600101000000000000002955000000000015367852000000000000009999123100000010000000000000BRUGPAACNOR8134
012015012162UGPA3T      030ULTRAPAR    ON      NM030R$  000000000515900000000051600000000005154000000000515800000000051550000000000000000000000000000006000000000000001000000000000005158390000000000000009999123100000010000000000000BRUGPAACNOR8134
012015012162UGPA3T      030ULTRAPAR    ON      NM061R$  000000000519100000000051920000000005191000000000519100000000051920000000000000000000000000000002000000000000001000000000000005191294000000000000009999123100000010000000000000BRUGPAACNOR8134
012015012162UGPA3T      030ULTRAPAR    ON      NM091R$  000000000523200000000052330000000005232000000000523200000000052330000000000000000000000000000002000000000000005000000000000026162600000000000000009999123100000010000000000000BRUGPAACNOR8134
012015012202UGPA3       010ULTRAPAR    ON      NM   R$  000000000528100000000053800000000005152000000000524500000000052500000000005219000000000525006708000000000001250000000000006557314500000000000000009999123100000010000000000000BRUGPAACNOR8134
012015012296UGPA3F      020ULTRAPAR    ON      NM   R$  000000000522000000000053530000000005199000000000527200000000052700000000005200000000000526900178000000000000001665000000000008776897000000000000009999123100000010000000000000BRUGPAACNOR8134
012015012302UGPA3       010ULTRAPAR    ON      NM   R$  000000000525000000000053160000000005222000000000527300000000052900000000005234000000000529005994000000000001004000000000005294263800000000000000009999123100000010000000000000BRUGPAACNOR8134
012015012396UGPA3F      020ULTRAPAR    ON      NM   R$  000000000518000000000053050000000005180000000000525900000000052700000000005270000000000530400078000000000000001339000000000007040165000000000000009999123100000010000000000000BRUGPAACNOR8134
012015012602UGPA3       010ULTRAPAR    ON      NM   R$  000000000521100000000052890000000005179000000000521900000000052410000000005232000000000524105709000000000000892000000000004656121500000000000000009999123100000010000000000000BRUGPAACNOR8134
012015012696UGPA3F      020ULTRAPAR    ON      NM   R$  000000000521000000000053570000000005183000000000525700000000053570000000005180000000000535700090000000000000001192000000000006267358000000000000009999123100000010000000000000BRUGPAACNOR8134
012015012702UGPA3       010ULTRAPAR    ON      NM   R$  000000000519300000000052780000000005065000000000518300000000052500000000005250000000000527208334000000000001355000000000007024156600000000000000009999123100000010000000000000BRUGPAACNOR8134
012015012796UGPA3F      020ULTRAPAR    ON      NM   R$  000000000523700000000052590000000005067000000000518600000000052590000000005112000000000525900209000000000000001568000000000008133532000000000000009999123100000010000000000000BRUGPAACNOR8134
012015012762UGPA3T      030ULTRAPAR    ON      NM030R$  000000000529700000000052980000000005297000000000529700000000052980000000000000000000000000000002000000000000001100000000000005827553000000000000009999123100000010000000000000BRUGPAACNOR8134
012015012802UGPA3       010ULTRAPAR    ON      NM   R$  000000000517700000000052560000000005082000000000519700000000052110000000005211000000000522006454000000000001351200000000007024921200000000000000009999123100000010000000000000BRUGPAACNOR8134
012015012896UGPA3F      020ULTRAPAR    ON      NM   R$  000000000519800000000052500000000005079000000000519200000000052470000000005180000000000525000107000000000000000976000000000005068140000000000000009999123100000010000000000000BRUGPAACNOR8134
012015012902UGPA3       010ULTRAPAR    ON      NM   R$  000000000520500000000052990000000005142000000000523300000000052990000000005239000000000529905196000000000001177200000000006161876700000000000000009999123100000010000000000000BRUGPAACNOR8134
012015012996UGPA3F      020ULTRAPAR    ON      NM   R$  000000000526600000000053000000000005148000000000521100000000053000000000005151000000000530000419000000000000001469000000000007654966000000000000009999123100000010000000000000BRUGPAACNOR8134
012015013002UGPA3       010ULTRAPAR    ON      NM   R$  000000000517300000000053000000000005173000000000526700000000053000000000005300000000000530107006000000000001806100000000009516257500000000000000009999123100000010000000000000BRUGPAACNOR8134
012015013096UGPA3F      020ULTRAPAR    ON      NM   R$  000000000528600000000052980000000005175000000000524300000000052010000000005201000000000528400065000000000000001421000000000007458408000000000000009999123100000010000000000000BRUGPAACNOR8134
012015020202UGPA3       010ULTRAPAR    ON      NM   R$  000000000530100000000054590000000005262000000000538600000000054370000000005420000000000543706670000000000001256100000000006766215100000000000000009999123100000010000000000000BRUGPAACNOR8134
012015020296UGPA3F      020ULTRAPAR    ON      NM   R$  000000000526000000000054480000000005260000000000537600000000054010000000005401000000000544300135000000000000003305000000000017769101000000000000009999123100000010000000000000BRUGPAACNOR8134
012015020262UGPA3T      030ULTRAPAR    ON      NM030R$  000000000549500000000054980000000005495000000000549600000000054970000000000000000000000000000006000000000000001000000000000005496891000000000000009999123100000010000000000000BRUGPAACNOR8134
012015020302UGPA3       010ULTRAPAR    ON      NM   R$  000000000548000000000055100000000005376000000000541800000000054500000000005447000000000545010280000000000001596700000000008651043500000000000000009999123100000010000000000000BRUGPAACNOR8134
012015020396UGPA3F      020ULTRAPAR    ON      NM   R$  000000000549900000000055000000000005377000000000541400000000054990000000005420000000000549900138000000000000002715000000000014701056000000000000009999123100000010000000000000BRUGPAACNOR8134
012015020402UGPA3       010ULTRAPAR    ON      NM   R$  000000000544700000000055220000000005358000000000545000000000054600000000005460000000000547809278000000000002451300000000013359984700000000000000009999123100000010000000000000BRUGPAACNOR8134
012015020496UGPA3F      020ULTRAPAR    ON      NM   R$  000000000544000000000055120000000005378000000000545300000000054510000000005451000000000549000151000000000000001503000000000008195970000000000000009999123100000010000000000000BRUGPAACNOR8134
012015020502UGPA3       010ULTRAPAR    ON      NM   R$  000000000540500000000055520000000005405000000000550900000000055520000000005524000000000555206372000000000001509400000000008316760200000000000000009999123100000010000000000000BRUGPAACNOR8134
012015020596UGPA3F      020ULTRAPAR    ON      NM   R$  000000000544700000000055300000000005433000000000548900000000055300000000005509000000000553100102000000000000002078000000000011414809000000000000009999123100000010000000000000BRUGPAACNOR8134
012015020602UGPA3       010ULTRAPAR    ON      NM   R$  000000000559000000000056180000000005460000000000556200000000056180000000005610000000000561808940000000000002164800000000012041517100000000000000009999123100000010000000000000BRUGPAACNOR8134
012015020696UGPA3F      020ULTRAPAR    ON      NM   R$  000000000557000000000056000000000005470000000000553200000000056000000000005540000000000560000114000000000000002184000000000012088102000000000000009999123100000010000000000000BRUGPAACNOR8134
012015020662UGPA3T      030ULTRAPAR    ON      NM031R$  000000000557200000000055730000000005572000000000557200000000055730000000000000000000000000000002000000000000001600000000000008916024000000000000009999123100000010000000000000BRUGPAACNOR8134
012015020902UGPA3       010ULTRAPAR    ON      NM   R$  000000000560000000000057690000000005509000000000562900000000056730000000005640000000000567309811000000000002069500000000011651923200000000000000009999123100000010000000000000BRUGPAACNOR8134
012015020996UGPA3F      020ULTRAPAR    ON      NM   R$  000000000560200000000057230000000005518000000000561800000000056040000000005604000000000569800128000000000000002402000000000013497329000000000000009999123100000010000000000000BRUGPAACNOR8134
012015021002UGPA3       010ULTRAPAR    ON      NM   R$  000000000561200000000056480000000005573000000000559800000000055900000000005590000000000560208390000000000001736000000000009719012700000000000000009999123100000010000000000000BRUGPAACNOR8134
012015021096UGPA3F      020ULTRAPAR    ON      NM   R$  000000000564800000000056480000000005558000000000559500000000055980000000005588000000000559800066000000000000002099000000000011743584000000000000009999123100000010000000000000BRUGPAACNOR8134
012015021102UGPA3       010ULTRAPAR    ON      NM   R$  000000000558100000000055970000000005453000000000552400000000055590000000005559000000000556006277000000000001206400000000006665556800000000000000009999123100000010000000000000BRUGPAACNOR8134
012015021196UGPA3F      020ULTRAPAR    ON      NM   R$  000000000554800000000055840000000005459000000000550500000000054660000000005466000000000555000095000000000000001525000000000008398055000000000000009999123100000010000000000000BRUGPAACNOR8134
012015021162UGPA3T      030ULTRAPAR    ON      NM016R$  000000000559400000000055950000000005594000000000559400000000055950000000000000000000000000000002000000000000009500000000000053149901000000000000009999123100000010000000000000BRUGPAACNOR8134
012015021202UGPA3       010ULTRAPAR    ON      NM   R$  000000000559800000000057250000000005576000000000568700000000056910000000005691000000000570006460000000000001937000000000011015824000000000000000009999123100000010000000000000BRUGPAACNOR8134
012015021296UGPA3F      020ULTRAPAR    ON      NM   R$  000000000558600000000057380000000005521000000000566700000000057150000000005669000000000573700087000000000000002121000000000012020601000000000000009999123100000010000000000000BRUGPAACNOR8134
012015021302UGPA3       010ULTRAPAR    ON      NM   R$  000000000573200000000058000000000005676000000000573200000000057900000000005764000000000579007469000000000001871100000000010726888900000000000000009999123100000010000000000000BRUGPAACNOR8134
012015021396UGPA3F      020ULTRAPAR    ON      NM   R$  000000000570000000000057800000000005691000000000572500000000057500000000005749000000000575000111000000000000001865000000000010677580000000000000009999123100000010000000000000BRUGPAACNOR8134
012015021802UGPA3       010ULTRAPAR    ON      NM   R$  000000000578900000000058830000000005741000000000580800000000057940000000005790000000000579409218000000000001728400000000010040035400000000000000009999123100000010000000000000BRUGPAACNOR8134
012015021896UGPA3F      020ULTRAPAR    ON      NM   R$  000000000576000000000058800000000005530000000000580100000000055300000000005530000000000582500116000000000000001585000000000009178963000000000000009999123100000010000000000000BRUGPAACNOR8134
012015021902UGPA3       010ULTRAPAR    ON      NM   R$  000000000580000000000058090000000005700000000000575000000000057810000000005779000000000578105259000000000001359800000000007820218900000000000000009999123100000010000000000000BRUGPAACNOR8134
012015021996UGPA3F      020ULTRAPAR    ON      NM   R$  000000000573100000000058080000000005703000000000575300000000057650000000005697000000000576500165000000000000001747000000000010051158000000000000009999123100000010000000000000BRUGPAACNOR8134
012015021962UGPA3T      030ULTRAPAR    ON      NM032R$  000000000585500000000058560000000005855000000000585500000000058560000000000000000000000000000002000000000000001000000000000005855980000000000000009999123100000010000000000000BRUGPAACNOR8134
012015022002UGPA3       010ULTRAPAR    ON      NM   R$  000000000579000000000058400000000005670000000000570400000000057000000000005691000000000570005946000000000001561200000000008906399500000000000000009999123100000010000000000000BRUGPAACNOR8134
012015022096UGPA3F      020ULTRAPAR    ON      NM   R$  000000000580800000000058250000000005667000000000572200000000056810000000005681000000000580000100000000000000001372000000000007851811000000000000009999123100000010000000000000BRUGPAACNOR8134
012015022302UGPA3       010ULTRAPAR    ON      NM   R$  000000000563400000000058220000000005634000000000572900000000057500000000005725000000000575005165000000000000993200000000005689941000000000000000009999123100000010000000000000BRUGPAACNOR8134
012015022396UGPA3F      020ULTRAPAR    ON      NM   R$  000000000569000000000058100000000005638000000000570900000000057000000000005700000000000573000068000000000000001694000000000009671649000000000000009999123100000010000000000000BRUGPAACNOR8134
012015022402UGPA3       010ULTRAPAR    ON      NM   R$  000000000576400000000058430000000005690000000000579000000000058340000000005800000000000583407111000000000001423100000000008240309100000000000000009999123100000010000000000000BRUGPAACNOR8134
012015022496UGPA3F      020ULTRAPAR    ON      NM   R$  000000000575000000000058430000000005688000000000578300000000058400000000005792000000000584000117000000000000002651000000000015328652000000000000009999123100000010000000000000BRUGPAACNOR8134
012015022462UGPA3T      030ULTRAPAR    ON      NM030R$  000000000585600000000058570000000005856000000000585600000000058570000000000000000000000000000002000000000000006901000000000040414177000000000000009999123100000010000000000000BRUGPAACNOR8134
012015022502UGPA3       010ULTRAPAR    ON      NM   R$  000000000579800000000059000000000005692000000000580000000000058590000000005859000000000586206051000000000001458600000000008461731700000000000000009999123100000010000000000000BRUGPAACNOR8134
012015022596UGPA3F      020ULTRAPAR    ON      NM   R$  000000000580700000000058330000000005688000000000578500000000058330000000005833000000000583500079000000000000001879000000000010874369000000000000009999123100000010000000000000BRUGPAACNOR8134
012015022602UGPA3       010ULTRAPAR    ON      NM   R$  000000000599000000000059980000000005751000000000590000000000059500000000005944000000000595007774000000000002097500000000012377166100000000000000009999123100000010000000000000BRUGPAACNOR8134
012015022696UGPA3F      020ULTRAPAR    ON      NM   R$  000000000585400000000060000000000005739000000000587200000000059300000000005907000000000593000117000000000000002870000000000016856091000000000000009999123100000010000000000000BRUGPAACNOR8134
012015022702UGPA3       010ULTRAPAR    ON      NM   R$  000000000591500000000061000000000005866000000000596300000000059580000000005956000000000595809268000000000001817200000000010835487400000000000000009999123100000010000000000000BRUGPAACNOR8134
012015022796UGPA3F      020ULTRAPAR    ON      NM   R$  000000000594000000000060800000000005878000000000597100000000059880000000005930000000000598800130000000000000002863000000000017093590000000000000009999123100000010000000000000BRUGPAACNOR8134
012015030202UGPA3       010ULTRAPAR    ON      NM   R$  000000000590800000000059450000000005842000000000589500000000059130000000005913000000000591505386000000000001022200000000006026449600000000000000009999123100000010000000000000BRUGPAACNOR8134
012015030296UGPA3F      020ULTRAPAR    ON      NM   R$  000000000592400000000059640000000005850000000000589000000000058680000000005868000000000596400082000000000000002204000000000012981600000000000000009999123100000010000000000000BRUGPAACNOR8134
012015030302UGPA3       010ULTRAPAR    ON      NM   R$  000000000590600000000060100000000005901000000000595700000000060100000000006009000000000601006139000000000001505700000000008970957000000000000000009999123100000010000000000000BRUGPAACNOR8134
012015030396UGPA3F      020ULTRAPAR    ON      NM   R$  000000000592000000000060320000000005906000000000594800000000059890000000005967000000000598900086000000000000002053000000000012216876000000000000009999123100000010000000000000BRUGPAACNOR8134
012015030402UGPA3       010ULTRAPAR    ON      NM   R$  000000000596000000000059600000000005825000000000587300000000058850000000005885000000000590007206000000000001432600000000008414493900000000000000009999123100000010000000000000BRUGPAACNOR8134
012015030496UGPA3F      020ULTRAPAR    ON      NM   R$  000000000599700000000059970000000005825000000000586800000000058550000000005855000000000590000088000000000000001988000000000011666849000000000000009999123100000010000000000000BRUGPAACNOR8134
012015030502UGPA3       010ULTRAPAR    ON  ED  NM   R$  000000000586600000000058810000000005775000000000581100000000058520000000005852000000000586006409000000000001595400000000009271325900000000000000009999123100000010000000000000BRUGPAACNOR8135
012015030596UGPA3F      020ULTRAPAR    ON  ED  NM   R$  000000000585500000000058800000000005775000000000580600000000058550000000005791000000000585500049000000000000001442000000000008373571000000000000009999123100000010000000000000BRUGPAACNOR8135
012015030602UGPA3       010ULTRAPAR    ON  ED  NM   R$  000000000584800000000059020000000005800000000000583300000000058400000000005837000000000584005048000000000002273300000000013261150800000000000000009999123100000010000000000000BRUGPAACNOR8135
012015030696UGPA3F      020ULTRAPAR    ON  ED  NM   R$  000000000589700000000058970000000005801000000000582800000000058040000000005801000000000591800062000000000000001811000000000010555837000000000000009999123100000010000000000000BRUGPAACNOR8135
012015030902UGPA3       010ULTRAPAR    ON  ED  NM   R$  000000000588300000000058830000000005722000000000576400000000057500000000005745000000000575007503000000000001654800000000009539367500000000000000009999123100000010000000000000BRUGPAACNOR8135
012015030996UGPA3F      020ULTRAPAR    ON  ED  NM   R$  000000000585200000000059500000000005663000000000577600000000059500000000005765000000000600000321000000000000001678000000000009697028000000000000009999123100000010000000000000BRUGPAACNOR8135
012015031002UGPA3       010ULTRAPAR    ON  ED  NM   R$  000000000570000000000057430000000005635000000000568200000000056700000000005667000000000567008608000000000001577900000000008966629300000000000000009999123100000010000000000000BRUGPAACNOR8135
012015031096UGPA3F      020ULTRAPAR    ON  ED  NM   R$  000000000572000000000057420000000005615000000000568300000000057420000000005670000000000574200274000000000000001913000000000010880228000000000000009999123100000010000000000000BRUGPAACNOR8135
012015031102UGPA3       010ULTRAPAR    ON  ED  NM   R$  000000000566000000000057190000000005650000000000569200000000057090000000005697000000000570906920000000000002245000000000012778859300000000000000009999123100000010000000000000BRUGPAACNOR8135
012015031196UGPA3F      020ULTRAPAR    ON  ED  NM   R$  000000000568900000000057370000000005551000000000567800000000056000000000005600000000000574200187000000000000001516000000000008608855000000000000009999123100000010000000000000BRUGPAACNOR8135
012015031202UGPA3       010ULTRAPAR    ON  ED  NM   R$  000000000580000000000058710000000005760000000000581700000000058480000000005821000000000584806725000000000002295900000000013355849800000000000000009999123100000010000000000000BRUGPAACNOR8135
012015031296UGPA3F      020ULTRAPAR    ON  ED  NM   R$  000000000574900000000059010000000005748000000000581400000000058350000000005785000000000583500192000000000000001239000000000007204127000000000000009999123100000010000000000000BRUGPAACNOR8135
012015031302UGPA3       010ULTRAPAR    ON  ED  NM   R$  000000000571000000000058110000000005695000000000575200000000058110000000005798000000000581109481000000000001603700000000009225566200000000000000009999123100000010000000000000BRUGPAACNOR8135
012015031396UGPA3F      020ULTRAPAR    ON  ED  NM   R$  000000000574700000000058500000000005700000000000574900000000057520000000005752000000000580000111000000000000001714000000000009854568000000000000009999123100000010000000000000BRUGPAACNOR8135
012015031362UGPA3T      030ULTRAPAR    ON  ED  NM031R$  000000000578400000000057850000000005784000000000578400000000057850000000000000000000000000000002000000000000002000000000000011569469000000000000009999123100000010000000000000BRUGPAACNOR8135
012015031602UGPA3       010ULTRAPAR    ON  ED  NM   R$  000000000584000000000059100000000005827000000000586600000000059040000000005898000000000590907285000000000002081700000000012211409500000000000000009999123100000010000000000000BRUGPAACNOR8135
012015031696UGPA3F      020ULTRAPAR    ON  ED  NM   R$  000000000582100000000058920000000005794000000000585700000000058880000000005885000000000588800139000000000000002158000000000012641241000000000000009999123100000010000000000000BRUGPAACNOR8135
012015031702UGPA3       010ULTRAPAR    ON      NM   R$  000000000590000000000060570000000005862000000000595100000000059940000000005994000000000600007407000000000001841200000000010957050900000000000000009999123100000010000000000000BRUGPAACNOR8135
012015031796UGPA3F      020ULTRAPAR    ON      NM   R$  000000000590400000000060440000000005872000000000595100000000059880000000005984000000000598800132000000000000002613000000000015551706000000000000009999123100000010000000000000BRUGPAACNOR8135
012015031762UGPA3T      030ULTRAPAR    ON      NM016R$  000000000603000000000060310000000006030000000000603000000000060310000000000000000000000000000002000000000000000500000000000003015494000000000000009999123100000010000000000000BRUGPAACNOR8135
012015031802UGPA3       010ULTRAPAR    ON      NM   R$  000000000597000000000061790000000005942000000000607200000000061200000000006120000000000613108804000000000002527500000000015348753800000000000000009999123100000010000000000000BRUGPAACNOR8135
012015031896UGPA3F      020ULTRAPAR    ON      NM   R$  000000000599400000000061670000000005945000000000607500000000061360000000006100000000000613600320000000000000002812000000000017091011000000000000009999123100000010000000000000BRUGPAACNOR8135
012015031862UGPA3T      030ULTRAPAR    ON      NM019R$  000000000606800000000060690000000006068000000000606800000000060690000000000000000000000000000002000000000000000300000000000001820458000000000000009999123100000010000000000000BRUGPAACNOR8135
012015031862UGPA3T      030ULTRAPAR    ON      NM030R$  000000000603800000000060390000000006038000000000603800000000060390000000000000000000000000000002000000000000001000000000000006038006000000000000009999123100000010000000000000BRUGPAACNOR8135
012015031862UGPA3T      030ULTRAPAR    ON      NM180R$  000000000645600000000064570000000006456000000000645600000000064570000000000000000000000000000002000000000000000500000000000003228280000000000000009999123100000010000000000000BRUGPAACNOR8135
012015031902UGPA3       010ULTRAPAR    ON      NM   R$  000000000613800000000061530000000006050000000000609700000000061150000000006075000000000611504990000000000003353800000000020449708700000000000000009999123100000010000000000000BRUGPAACNOR8135
012015031996UGPA3F      020ULTRAPAR    ON      NM   R$  000000000613600000000061360000000006057000000000607800000000060820000000006082000000000610000094000000000000001593000000000009683330000000000000009999123100000010000000000000BRUGPAACNOR8135
012015032002UGPA3       010ULTRAPAR    ON      NM   R$  000000000618000000000062410000000006141000000000620800000000062300000000006210000000000623009149000000000003442000000000021369677100000000000000009999123100000010000000000000BRUGPAACNOR8135
012015032096UGPA3F      020ULTRAPAR    ON      NM   R$  000000000614500000000062330000000006145000000000619900000000062110000000006185000000000621200134000000000000002859000000000017725393000000000000009999123100000010000000000000BRUGPAACNOR8135
012015032302UGPA3       010ULTRAPAR    ON      NM   R$  000000000624100000000062600000000006105000000000615600000000061950000000006150000000000619506965000000000001668300000000010270968800000000000000009999123100000010000000000000BRUGPAACNOR8135
012015032396UGPA3F      020ULTRAPAR    ON      NM   R$  000000000621000000000062410000000006103000000000615300000000061540000000006154000000000622600107000000000000001861000000000011455223000000000000009999123100000010000000000000BRUGPAACNOR8135
012015032362UGPA3T      030ULTRAPAR    ON      NM016R$  000000000620700000000062080000000006207000000000620700000000062080000000000000000000000000000002000000000000001921000000000011923858000000000000009999123100000010000000000000BRUGPAACNOR8135
012015032362UGPA3T      030ULTRAPAR    ON      NM030R$  000000000629200000000062930000000006250000000000628400000000062510000000000000000000000000000006000000000000000500000000000003142060000000000000009999123100000010000000000000BRUGPAACNOR8135
012015032402UGPA3       010ULTRAPAR    ON      NM   R$  000000000620300000000062540000000006095000000000616900000000061950000000006152000000000619509752000000000002213000000000013653761700000000000000009999123100000010000000000000BRUGPAACNOR8135
012015032496UGPA3F      020ULTRAPAR    ON      NM   R$  000000000619200000000062410000000006100000000000616700000000061970000000006151000000000619700143000000000000002322000000000014323204000000000000009999123100000010000000000000BRUGPAACNOR8135
012015032502UGPA3       010ULTRAPAR    ON      NM   R$  000000000623000000000062910000000006190000000000624000000000062910000000006270000000000629106603000000000003422400000000021358143200000000000000009999123100000010000000000000BRUGPAACNOR8135
012015032596UGPA3F      020ULTRAPAR    ON      NM   R$  000000000621900000000062800000000006187000000000622600000000062120000000006212000000000628100116000000000000001745000000000010870293000000000000009999123100000010000000000000BRUGPAACNOR8135
012015032602UGPA3       010ULTRAPAR    ON      NM   R$  000000000622200000000062480000000006154000000000620000000000062010000000006191000000000620809018000000000001898600000000011771553700000000000000009999123100000010000000000000BRUGPAACNOR8135
012015032696UGPA3F      020ULTRAPAR    ON      NM   R$  000000000625200000000062520000000006151000000000619100000000061760000000006170000000000622900089000000000000001224000000000007578388000000000000009999123100000010000000000000BRUGPAACNOR8135
012015032702UGPA3       010ULTRAPAR    ON      NM   R$  000000000616600000000062600000000006159000000000618500000000062260000000006192000000000622606311000000000002631100000000016274335000000000000000009999123100000010000000000000BRUGPAACNOR8135
012015032796UGPA3F      020ULTRAPAR    ON      NM   R$  000000000615200000000062570000000006152000000000618600000000062000000000006173000000000620000059000000000000001186000000000007338153000000000000009999123100000010000000000000BRUGPAACNOR8135
012015033002UGPA3       010ULTRAPAR    ON      NM   R$  000000000627900000000064150000000006264000000000634900000000064150000000006406000000000641905577000000000001514800000000009618328500000000000000009999123100000010000000000000BRUGPAACNOR8135
012015033096UGPA3F      020ULTRAPAR    ON      NM   R$  000000000624900000000064000000000006249000000000632400000000064000000000006396000000000640000179000000000000002435000000000015413852000000000000009999123100000010000000000000BRUGPAACNOR8135
012015033102UGPA3       010ULTRAPAR    ON      NM   R$  000000000642000000000064930000000006346000000000643300000000064830000000006451000000000648307556000000000002340500000000015057090100000000000000009999123100000010000000000000BRUGPAACNOR8135
012015033196UGPA3F      020ULTRAPAR    ON      NM   R$  000000000644600000000064790000000006370000000000642000000000064790000000006440000000000647900202000000000000003102000000000019923686000000000000009999123100000010000000000000BRUGPAACNOR8135
012015040102UGPA3       010ULTRAPAR    ON      NM   R$  000000000654000000000066460000000006501000000000659600000000066460000000006608000000000664609434000000000001785800000000011781031900000000000000009999123100000010000000000000BRUGPAACNOR8135
012015040196UGPA3F      020ULTRAPAR    ON      NM   R$  000000000656900000000066200000000006515000000000657600000000066000000000006600000000000663000275000000000000003395000000000022336946000000000000009999123100000010000000000000BRUGPAACNOR8135
012015040202UGPA3       010ULTRAPAR    ON      NM   R$  000000000664600000000067000000000006447000000000656100000000065760000000006573000000000657610914000000000002032800000000013338688500000000000000009999123100000010000000000000BRUGPAACNOR8135
012015040296UGPA3F      020ULTRAPAR    ON      NM   R$  000000000664700000000066950000000006449000000000657000000000065320000000006532000000000656000223000000000000003014000000000019802320000000000000009999123100000010000000000000BRUGPAACNOR8135
012015040262UGPA3T      030ULTRAPAR    ON      NM032R$  000000000655600000000066260000000006556000000000661500000000066260000000000000000000000000000004000000000000001050000000000006946648000000000000009999123100000010000000000000BRUGPAACNOR8135
012015040602UGPA3       010ULTRAPAR    ON      NM   R$  000000000658100000000066720000000006460000000000663400000000066550000000006651000000000665505306000000000001132800000000007515684000000000000000009999123100000010000000000000BRUGPAACNOR8135
012015040696UGPA3F      020ULTRAPAR    ON      NM   R$  000000000657700000000066650000000006465000000000660600000000066470000000006610000000000664700146000000000000002768000000000018289130000000000000009999123100000010000000000000BRUGPAACNOR8135
012015040662UGPA3T      030ULTRAPAR    ON      NM030R$  000000000667000000000066710000000006640000000000664600000000066410000000000000000000000000000006000000000000000500000000000003323439000000000000009999123100000010000000000000BRUGPAACNOR8135
012015040702UGPA3       010ULTRAPAR    ON      NM   R$  000000000666000000000066650000000006527000000000659500000000065750000000006575000000000659505404000000000001415300000000009334705200000000000000009999123100000010000000000000BRUGPAACNOR8135
012015040796UGPA3F      020ULTRAPAR    ON      NM   R$  000000000669200000000066920000000006539000000000661000000000065980000000006597000000000659800066000000000000001177000000000007780524000000000000009999123100000010000000000000BRUGPAACNOR8135
012015040802UGPA3       010ULTRAPAR    ON      NM   R$  000000000664000000000066770000000006539000000000661200000000066270000000006623000000000662706648000000000001216800000000008046379300000000000000009999123100000010000000000000BRUGPAACNOR8135
012015040896UGPA3F      020ULTRAPAR    ON      NM   R$  000000000660000000000066670000000006543000000000661600000000066020000000006600000000000660200104000000000000001374000000000009090434000000000000009999123100000010000000000000BRUGPAACNOR8135
012015040902UGPA3       010ULTRAPAR    ON      NM   R$  000000000658600000000066840000000006584000000000662000000000066130000000006612000000000661807107000000000001535700000000010167718300000000000000009999123100000010000000000000BRUGPAACNOR8135
012015040996UGPA3F      020ULTRAPAR    ON      NM   R$  000000000661700000000066650000000006603000000000663100000000066460000000006522000000000664600082000000000000001255000000000008322701000000000000009999123100000010000000000000BRUGPAACNOR8135
012015041002UGPA3       010ULTRAPAR    ON      NM   R$  000000000659500000000066360000000006570000000000659500000000065860000000006585000000000658906376000000000001737200000000011457384600000000000000009999123100000010000000000000BRUGPAACNOR8135
012015041096UGPA3F      020ULTRAPAR    ON      NM   R$  000000000660000000000066180000000006511000000000658200000000065320000000006532000000000661800051000000000000001032000000000006793115000000000000009999123100000010000000000000BRUGPAACNOR8135
012015041302UGPA3       010ULTRAPAR    ON      NM   R$  000000000652200000000066390000000006516000000000659900000000066390000000006612000000000663905549000000000001281800000000008459403600000000000000009999123100000010000000000000BRUGPAACNOR8135
012015041396UGPA3F      020ULTRAPAR    ON      NM   R$  000000000659300000000066300000000006500000000000659300000000066300000000006612000000000663000074000000000000001647000000000010868858000000000000009999123100000010000000000000BRUGPAACNOR8135
012015041402UGPA3       010ULTRAPAR    ON      NM   R$  000000000666000000000066710000000006576000000000663100000000066560000000006649000000000665605898000000000001478300000000009802804700000000000000009999123100000010000000000000BRUGPAACNOR8135
012015041496UGPA3F      020ULTRAPAR    ON      NM   R$  000000000666300000000066700000000006541000000000662000000000065510000000006551000000000665200083000000000000001447000000000009580443000000000000009999123100000010000000000000BRUGPAACNOR8135
012015041502UGPA3       010ULTRAPAR    ON      NM   R$  000000000669500000000067700000000006650000000000671300000000067340000000006734000000000674905735000000000001986000000000013333169200000000000000009999123100000010000000000000BRUGPAACNOR8135
012015041596UGPA3F      020ULTRAPAR    ON      NM   R$  000000000663900000000067980000000006605000000000670300000000067040000000006704000000000677000095000000000000001957000000000013120785000000000000009999123100000010000000000000BRUGPAACNOR8135
012015041602UGPA3       010ULTRAPAR    ON      NM   R$  000000000671300000000067470000000006635000000000667000000000066720000000006672000000000667406420000000000001596100000000010646123400000000000000009999123100000010000000000000BRUGPAACNOR8135
012015041696UGPA3F      020ULTRAPAR    ON      NM   R$  000000000674000000000067400000000006643000000000667600000000066730000000006668000000000667300098000000000000001490000000000009948283000000000000009999123100000010000000000000BRUGPAACNOR8135
012015041662UGPA3T      030ULTRAPAR    ON      NM026R$  000000000670300000000067040000000006703000000000670300000000067040000000000000000000000000000002000000000000007000000000000046927462000000000000009999123100000010000000000000BRUGPAACNOR8135
012015041702UGPA3       010ULTRAPAR    ON      NM   R$  000000000657900000000066300000000006536000000000656800000000065700000000006570000000000657406848000000000001883700000000012372169300000000000000009999123100000010000000000000BRUGPAACNOR8135
012015041796UGPA3F      020ULTRAPAR    ON      NM   R$  000000000665500000000066550000000006533000000000656200000000065330000000006533000000000658100076000000000000000953000000000006254586000000000000009999123100000010000000000000BRUGPAACNOR8135
012015042002UGPA3       010ULTRAPAR    ON      NM   R$  000000000657000000000066460000000006516000000000656000000000065770000000006563000000000658505171000000000001681500000000011030820700000000000000009999123100000010000000000000BRUGPAACNOR8135
012015042096UGPA3F      020ULTRAPAR    ON      NM   R$  000000000657000000000066510000000006521000000000657400000000065960000000006554000000000659600094000000000000001191000000000007830661000000000000009999123100000010000000000000BRUGPAACNOR8135
012015042202UGPA3       010ULTRAPAR    ON      NM   R$  000000000660100000000066800000000006577000000000664000000000066720000000006663000000000667205465000000000001799400000000011949798300000000000000009999123100000010000000000000BRUGPAACNOR8135
012015042296UGPA3F      020ULTRAPAR    ON      NM   R$  000000000663600000000066960000000006580000000000664300000000066960000000006654000000000669600071000000000000001659000000000011021788000000000000009999123100000010000000000000BRUGPAACNOR8135
012015042302UGPA3       010ULTRAPAR    ON      NM   R$  000000000663900000000068100000000006620000000000676400000000068000000000006757000000000680007650000000000001999400000000013525727700000000000000009999123100000010000000000000BRUGPAACNOR8135
012015042396UGPA3F      020ULTRAPAR    ON      NM   R$  000000000667000000000067990000000006655000000000675400000000067990000000006725000000000679900051000000000000001676000000000011322817000000000000009999123100000010000000000000BRUGPAACNOR8135
012015042402UGPA3       010ULTRAPAR    ON      NM   R$  000000000680000000000068350000000006698000000000678500000000068350000000006807000000000683505483000000000001139700000000007733459700000000000000009999123100000010000000000000BRUGPAACNOR8135
012015042496UGPA3F      020ULTRAPAR    ON      NM   R$  000000000685000000000068500000000006708000000000675500000000067380000000006738000000000681900110000000000000002156000000000014565101000000000000009999123100000010000000000000BRUGPAACNOR8135
012015042702UGPA3       010ULTRAPAR    ON      NM   R$  000000000684900000000068640000000006696000000000674100000000067250000000006725000000000673605792000000000001342800000000009051910000000000000000009999123100000010000000000000BRUGPAACNOR8135
012015042796UGPA3F      020ULTRAPAR    ON      NM   R$  000000000683000000000068590000000006700000000000675600000000067210000000006721000000000677500077000000000000001693000000000011438915000000000000009999123100000010000000000000BRUGPAACNOR8135
012015042802UGPA3       010ULTRAPAR    ON      NM   R$  000000000675800000000067990000000006646000000000668900000000066900000000006689000000000669005918000000000001765600000000011810236800000000000000009999123100000010000000000000BRUGPAACNOR8135
012015042896UGPA3F      020ULTRAPAR    ON      NM   R$  000000000674100000000067730000000006632000000000670700000000066790000000006679000000000670500053000000000000001133000000000007597589000000000000009999123100000010000000000000BRUGPAACNOR8135
012015042902UGPA3       010ULTRAPAR    ON      NM   R$  000000000661600000000067760000000006586000000000667600000000067760000000006772000000000677607635000000000001808100000000012072889100000000000000009999123100000010000000000000BRUGPAACNOR8135
012015042996UGPA3F      020ULTRAPAR    ON      NM   R$  000000000661400000000067430000000006600000000000666000000000067430000000006726000000000674300078000000000000001338000000000008912010000000000000009999123100000010000000000000BRUGPAACNOR8135
012015043002UGPA3       010ULTRAPAR    ON      NM   R$  000000000670800000000069340000000006704000000000686300000000069340000000006897000000000693409304000000000002666700000000018303212000000000000000009999123100000010000000000000BRUGPAACNOR8135
012015043096UGPA3F      020ULTRAPAR    ON      NM   R$  000000000673100000000068910000000006687000000000679300000000068000000000006800000000000690000149000000000000003403000000000023120692000000000000009999123100000010000000000000BRUGPAACNOR8135
012015050402UGPA3       010ULTRAPAR    ON      NM   R$  000000000695000000000071190000000006919000000000702200000000070050000000007005000000000703008325000000000001652200000000011603138700000000000000009999123100000010000000000000BRUGPAACNOR8135
012015050496UGPA3F      020ULTRAPAR    ON      NM   R$  000000000690000000000071040000000006900000000000702700000000070600000000007060000000000706300144000000000000003896000000000027378393000000000000009999123100000010000000000000BRUGPAACNOR8135
012015050502UGPA3       010ULTRAPAR    ON      NM   R$  000000000695300000000070370000000006938000000000698500000000069870000000006987000000000700006437000000000001342800000000009380397200000000000000009999123100000010000000000000BRUGPAACNOR8135
012015050596UGPA3F      020ULTRAPAR    ON      NM   R$  000000000695400000000070740000000006942000000000698500000000070220000000006961000000000702300062000000000000001922000000000013427408000000000000009999123100000010000000000000BRUGPAACNOR8135
012015050602UGPA3       010ULTRAPAR    ON      NM   R$  000000000696800000000070920000000006951000000000703500000000070920000000007023000000000709207135000000000001482200000000010428199200000000000000009999123100000010000000000000BRUGPAACNOR8135
012015050696UGPA3F      020ULTRAPAR    ON      NM   R$  000000000700500000000070890000000006950000000000702200000000070790000000007079000000000708000116000000000000003107000000000021838190000000000000009999123100000010000000000000BRUGPAACNOR8135
012015050702UGPA3       010ULTRAPAR    ON      NM   R$  000000000732000000000073340000000006990000000000707200000000070850000000007085000000000709208398000000000001556700000000011009890900000000000000009999123100000010000000000000BRUGPAACNOR8135
012015050796UGPA3F      020ULTRAPAR    ON      NM   R$  000000000715200000000073150000000006932000000000712600000000070220000000007021000000000702200088000000000000002011000000000014330538000000000000009999123100000010000000000000BRUGPAACNOR8135
012015050802UGPA3       010ULTRAPAR    ON      NM   R$  000000000709700000000072820000000007017000000000715600000000071620000000007162000000000717507992000000000003612200000000025852482600000000000000009999123100000010000000000000BRUGPAACNOR8135
012015050896UGPA3F      020ULTRAPAR    ON      NM   R$  000000000708500000000072600000000007040000000000714200000000071130000000007113000000000720000082000000000000001920000000000013714606000000000000009999123100000010000000000000BRUGPAACNOR8135
012015051102UGPA3       010ULTRAPAR    ON      NM   R$  000000000716200000000072590000000007070000000000714800000000071350000000007135000000000714006047000000000001675600000000011978299900000000000000009999123100000010000000000000BRUGPAACNOR8135
012015051196UGPA3F      020ULTRAPAR    ON      NM   R$  000000000719800000000072480000000007053000000000714400000000070530000000007053000000000716600081000000000000001767000000000012623953000000000000009999123100000010000000000000BRUGPAACNOR8135
012015051202UGPA3       010ULTRAPAR    ON      NM   R$  000000000713000000000072050000000007085000000000716400000000071700000000007161000000000717006071000000000001618600000000011595681200000000000000009999123100000010000000000000BRUGPAACNOR8135
012015051296UGPA3F      020ULTRAPAR    ON      NM   R$  000000000713300000000072060000000007100000000000714600000000071790000000007142000000000724900056000000000000002057000000000014700135000000000000009999123100000010000000000000BRUGPAACNOR8135
012015051302UGPA3       010ULTRAPAR    ON      NM   R$  000000000714500000000072050000000007043000000000713800000000071700000000007168000000000717006966000000000001500500000000010710683400000000000000009999123100000010000000000000BRUGPAACNOR8135
012015051396UGPA3F      020ULTRAPAR    ON      NM   R$  000000000721600000000072160000000007071000000000713100000000071620000000007162000000000718000099000000000000001778000000000012679370000000000000009999123100000010000000000000BRUGPAACNOR8135
012015051402UGPA3       010ULTRAPAR    ON      NM   R$  000000000717900000000072460000000007139000000000719800000000072280000000007228000000000723108174000000000002843000000000020464437000000000000000009999123100000010000000000000BRUGPAACNOR8135
012015051496UGPA3F      020ULTRAPAR    ON      NM   R$  000000000719800000000072320000000007149000000000718200000000071640000000007164000000000723200085000000000000001267000000000009100618000000000000009999123100000010000000000000BRUGPAACNOR8135
012015051502UGPA3       010ULTRAPAR    ON      NM   R$  000000000719400000000073850000000007194000000000729500000000073850000000007370000000000738607296000000000002539600000000018527692400000000000000009999123100000010000000000000BRUGPAACNOR8135
012015051596UGPA3F      020ULTRAPAR    ON      NM   R$  000000000722000000000074000000000007208000000000729100000000073570000000007357000000000750000127000000000000001927000000000014050780000000000000009999123100000010000000000000BRUGPAACNOR8135
012015051562UGPA3T      030ULTRAPAR    ON      NM031R$  000000000741900000000074200000000007419000000000741900000000074200000000000000000000000000000002000000000000000200000000000001483965000000000000009999123100000010000000000000BRUGPAACNOR8135
012015051802UGPA3       010ULTRAPAR    ON      NM   R$  000000000736200000000074370000000007273000000000730600000000072760000000007276000000000728006144000000000001581800000000011557128200000000000000009999123100000010000000000000BRUGPAACNOR8135
012015051896UGPA3F      020ULTRAPAR    ON      NM   R$  000000000739800000000073990000000007255000000000732400000000072550000000007255000000000740000049000000000000001175000000000008598332000000000000009999123100000010000000000000BRUGPAACNOR8135
012015051902UGPA3       010ULTRAPAR    ON      NM   R$  000000000727700000000072960000000007160000000000720500000000072100000000007203000000000721004633000000000001204400000000008677912200000000000000009999123100000010000000000000BRUGPAACNOR8135
012015051996UGPA3F      020ULTRAPAR    ON      NM   R$  000000000726400000000072810000000007151000000000719400000000072110000000007210000000000738900081000000000000001512000000000010878598000000000000009999123100000010000000000000BRUGPAACNOR8135
012015052002UGPA3       010ULTRAPAR    ON      NM   R$  000000000723000000000072590000000007130000000000720200000000072100000000007210000000000722004681000000000001240500000000008934209700000000000000009999123100000010000000000000BRUGPAACNOR8135
012015052096UGPA3F      020ULTRAPAR    ON      NM   R$  000000000715900000000072380000000007080000000000719400000000072320000000007232000000000725000064000000000000001425000000000010252785000000000000009999123100000010000000000000BRUGPAACNOR8135
012015052102UGPA3       010ULTRAPAR    ON      NM   R$  000000000719000000000073210000000007166000000000725000000000073210000000007287000000000732104103000000000000828200000000006004862900000000000000009999123100000010000000000000BRUGPAACNOR8135
012015052196UGPA3F      020ULTRAPAR    ON      NM   R$  000000000719000000000072890000000007173000000000722100000000072150000000007215000000000729000064000000000000001130000000000008159898000000000000009999123100000010000000000000BRUGPAACNOR8135
012015052202UGPA3       010ULTRAPAR    ON      NM   R$  000000000730800000000073100000000007121000000000720400000000072310000000007226000000000723106990000000000001496800000000010784382100000000000000009999123100000010000000000000BRUGPAACNOR8135
012015052296UGPA3F      020ULTRAPAR    ON      NM   R$  000000000730000000000073030000000007127000000000719800000000071510000000007151000000000720900120000000000000001520000000000010942847000000000000009999123100000010000000000000BRUGPAACNOR8135
012015052502UGPA3       010ULTRAPAR    ON      NM   R$  000000000723100000000072310000000007081000000000715200000000071750000000007175000000000718003638000000000000711200000000005087059400000000000000009999123100000010000000000000BRUGPAACNOR8135
012015052596UGPA3F      020ULTRAPAR    ON      NM   R$  000000000726800000000072680000000007082000000000713500000000071190000000007119000000000720600119000000000000001768000000000012616877000000000000009999123100000010000000000000BRUGPAACNOR8135
012015052562UGPA3T      030ULTRAPAR    ON      NM091R$  000000000734600000000073470000000007346000000000734600000000073470000000000000000000000000000002000000000000009200000000000067590634000000000000009999123100000010000000000000BRUGPAACNOR8135
012015052602UGPA3       010ULTRAPAR    ON      NM   R$  000000000712300000000071500000000007031000000000708800000000071000000000007100000000000710906140000000000001277100000000009052267000000000000000009999123100000010000000000000BRUGPAACNOR8135
012015052696UGPA3F      020ULTRAPAR    ON      NM   R$  000000000717000000000071700000000007040000000000707600000000070870000000007087000000000709700040000000000000000632000000000004472309000000000000009999123100000010000000000000BRUGPAACNOR8135
012015052702UGPA3       010ULTRAPAR    ON      NM   R$  000000000710000000000071190000000006903000000000700000000000070230000000007023000000000703008110000000000001525600000000010680586400000000000000009999123100000010000000000000BRUGPAACNOR8135
012015052796UGPA3F      020ULTRAPAR    ON      NM   R$  000000000710100000000071090000000006906000000000699000000000070300000000007030000000000711000115000000000000002092000000000014624970000000000000009999123100000010000000000000BRUGPAACNOR8135
012015052762UGPA3T      030ULTRAPAR    ON      NM030R$  000000000707100000000070720000000007071000000000707100000000070720000000000000000000000000000002000000000000002000000000000014142800000000000000009999123100000010000000000000BRUGPAACNOR8135
012015052802UGPA3       010ULTRAPAR    ON      NM   R$  000000000696000000000070140000000006938000000000697500000000069820000000006980000000000698204926000000000001266500000000008834774600000000000000009999123100000010000000000000BRUGPAACNOR8135
012015052896UGPA3F      020ULTRAPAR    ON      NM   R$  000000000700000000000070130000000006940000000000697900000000069900000000006990000000000701100064000000000000001370000000000009561942000000000000009999123100000010000000000000BRUGPAACNOR8135
012015052862UGPA3T      030ULTRAPAR    ON      NM032R$  000000000704100000000070710000000007041000000000706000000000070710000000000000000000000000000004000000000000000300000000000002118187000000000000009999123100000010000000000000BRUGPAACNOR8135
012015052902UGPA3       010ULTRAPAR    ON      NM   R$  000000000694800000000070440000000006860000000000691100000000068640000000006864000000000687008075000000000002385900000000016490747400000000000000009999123100000010000000000000BRUGPAACNOR8135
012015052996UGPA3F      020ULTRAPAR    ON      NM   R$  000000000698700000000070240000000006860000000000692600000000069010000000006901000000000693000096000000000000001872000000000012965961000000000000009999123100000010000000000000BRUGPAACNOR8135
012015060102UGPA3       010ULTRAPAR    ON      NM   R$  000000000688400000000069600000000006841000000000693000000000069600000000006960000000000696304101000000000000864000000000005988168800000000000000009999123100000010000000000000BRUGPAACNOR8135
012015060196UGPA3F      020ULTRAPAR    ON      NM   R$  000000000687700000000069600000000006851000000000691500000000069600000000006956000000000696000172000000000000003100000000000021439916000000000000009999123100000010000000000000BRUGPAACNOR8135
012015060202UGPA3       010ULTRAPAR    ON      NM   R$  000000000696800000000070390000000006938000000000699500000000070310000000007031000000000703904677000000000001028700000000007196349300000000000000009999123100000010000000000000BRUGPAACNOR8135
012015060296UGPA3F      020ULTRAPAR    ON      NM   R$  000000000696700000000070350000000006943000000000698400000000070140000000007014000000000703000216000000000000002613000000000018256978000000000000009999123100000010000000000000BRUGPAACNOR8135
012015060262UGPA3T      030ULTRAPAR    ON      NM062R$  000000000716300000000071640000000007163000000000716300000000071640000000000000000000000000000002000000000000000500000000000003581859000000000000009999123100000010000000000000BRUGPAACNOR8135
012015060302UGPA3       010ULTRAPAR    ON      NM   R$  000000000699100000000070650000000006907000000000696500000000069700000000006970000000000698404392000000000000892300000000006215487300000000000000009999123100000010000000000000BRUGPAACNOR8135
012015060396UGPA3F      020ULTRAPAR    ON      NM   R$  000000000704600000000070480000000006833000000000696300000000069870000000006967000000000698700267000000000000002531000000000017625420000000000000009999123100000010000000000000BRUGPAACNOR8135
012015060502UGPA3       010ULTRAPAR    ON      NM   R$  000000000687600000000070020000000006858000000000693500000000069460000000006946000000000694904523000000000000972200000000006742291700000000000000009999123100000010000000000000BRUGPAACNOR8135
012015060596UGPA3F      020ULTRAPAR    ON      NM   R$  000000000699100000000069990000000006863000000000691400000000069220000000006922000000000695000506000000000000003694000000000025542284000000000000009999123100000010000000000000BRUGPAACNOR8135
012015060802UGPA3       010ULTRAPAR    ON      NM   R$  000000000694700000000070000000000006875000000000691100000000069020000000006902000000000691004435000000000001004200000000006940912000000000000000009999123100000010000000000000BRUGPAACNOR8135
012015060896UGPA3F      020ULTRAPAR    ON      NM   R$  000000000696000000000070070000000006879000000000692200000000069230000000006915000000000692300086000000000000001986000000000013749999000000000000009999123100000010000000000000BRUGPAACNOR8135
012015060902UGPA3       010ULTRAPAR    ON      NM   R$  000000000687400000000068990000000006772000000000683800000000068720000000006867000000000687207378000000000001880400000000012858997100000000000000009999123100000010000000000000BRUGPAACNOR8135
012015060996UGPA3F      020ULTRAPAR    ON      NM   R$  000000000688000000000068800000000006773000000000683500000000068770000000006855000000000687700070000000000000001210000000000008271085000000000000009999123100000010000000000000BRUGPAACNOR8135
012015061002UGPA3       010ULTRAPAR    ON      NM   R$  000000000694800000000069990000000006807000000000686700000000068380000000006838000000000684507292000000000001982000000000013610391300000000000000009999123100000010000000000000BRUGPAACNOR8135
012015061096UGPA3F      020ULTRAPAR    ON      NM   R$  000000000686200000000070010000000006820000000000688500000000070010000000006851000000000700100098000000000000002374000000000016344519000000000000009999123100000010000000000000BRUGPAACNOR8135
012015061062UGPA3T      030ULTRAPAR    ON      NM030R$  000000000695500000000069560000000006955000000000695500000000069560000000000000000000000000000002000000000000000200000000000001391127000000000000009999123100000010000000000000BRUGPAACNOR8135
012015061102UGPA3       010ULTRAPAR    ON      NM   R$  000000000686000000000069110000000006787000000000684000000000068500000000006847000000000685005600000000000001131800000000007741282200000000000000009999123100000010000000000000BRUGPAACNOR8135
012015061196UGPA3F      020ULTRAPAR    ON      NM   R$  000000000685500000000070020000000006785000000000684600000000070020000000006856000000000700200099000000000000002181000000000014933388000000000000009999123100000010000000000000BRUGPAACNOR8135
012015061202UGPA3       010ULTRAPAR    ON      NM   R$  000000000680500000000068500000000006733000000000680000000000068300000000006820000000000683504115000000000000749300000000005095472600000000000000009999123100000010000000000000BRUGPAACNOR8135
012015061296UGPA3F      020ULTRAPAR    ON      NM   R$  000000000677900000000068490000000006744000000000678600000000068100000000006810000000000682800095000000000000002006000000000013614721000000000000009999123100000010000000000000BRUGPAACNOR8135
012015061262UGPA3T      030ULTRAPAR    ON      NM060R$  000000000689800000000068990000000006898000000000689800000000068990000000000000000000000000000002000000000000000100000000000000689850000000000000009999123100000010000000000000BRUGPAACNOR8135
012015061502UGPA3       010ULTRAPAR    ON      NM   R$  000000000678600000000068610000000006702000000000678800000000068300000000006825000000000683004120000000000000916400000000006221205400000000000000009999123100000010000000000000BRUGPAACNOR8135
012015061596UGPA3F      020ULTRAPAR    ON      NM   R$  000000000675200000000068500000000006707000000000678600000000068500000000006833000000000685000072000000000000001424000000000009664183000000000000009999123100000010000000000000BRUGPAACNOR8135
012015061602UGPA3       010ULTRAPAR    ON      NM   R$  000000000686000000000069110000000006824000000000686500000000068600000000006857000000000686003896000000000001297700000000008909409800000000000000009999123100000010000000000000BRUGPAACNOR8135
012015061696UGPA3F      020ULTRAPAR    ON      NM   R$  000000000685000000000069050000000006835000000000686600000000068630000000006862000000000687000161000000000000001107000000000007601307000000000000009999123100000010000000000000BRUGPAACNOR8135
012015061702UGPA3       010ULTRAPAR    ON      NM   R$  000000000683900000000069170000000006783000000000684600000000068700000000006860000000000687005378000000000001203900000000008242910000000000000000009999123100000010000000000000BRUGPAACNOR8135
012015061796UGPA3F      020ULTRAPAR    ON      NM   R$  000000000685900000000069100000000006788000000000685500000000068670000000006838000000000686700058000000000000001205000000000008260818000000000000009999123100000010000000000000BRUGPAACNOR8135
012015061802UGPA3       010ULTRAPAR    ON      NM   R$  000000000690000000000069400000000006833000000000688100000000069040000000006885000000000690505316000000000001723400000000011859192100000000000000009999123100000010000000000000BRUGPAACNOR8135
012015061896UGPA3F      020ULTRAPAR    ON      NM   R$  000000000686200000000069260000000006829000000000687000000000068830000000006883000000000693200062000000000000001677000000000011522658000000000000009999123100000010000000000000BRUGPAACNOR8135
012015061902UGPA3       010ULTRAPAR    ON      NM   R$  000000000684500000000069190000000006819000000000684100000000068340000000006834000000000684003132000000000001127800000000007716161500000000000000009999123100000010000000000000BRUGPAACNOR8135
012015061996UGPA3F      020ULTRAPAR    ON      NM   R$  000000000687300000000069210000000006782000000000686200000000068730000000006790000000000687300095000000000000002519000000000017284617000000000000009999123100000010000000000000BRUGPAACNOR8135
012015062202UGPA3       010ULTRAPAR    ON      NM   R$  000000000685200000000068960000000006774000000000680900000000067850000000006785000000000679905005000000000000995800000000006780834700000000000000009999123100000010000000000000BRUGPAACNOR8135
012015062296UGPA3F      020ULTRAPAR    ON      NM   R$  000000000693000000000069300000000006758000000000682000000000068210000000006757000000000682100330000000000000002323000000000015838572000000000000009999123100000010000000000000BRUGPAACNOR8135
012015062302UGPA3       010ULTRAPAR    ON      NM   R$  000000000682700000000068480000000006755000000000677700000000067550000000006755000000000677403023000000000000766800000000005197036500000000000000009999123100000010000000000000BRUGPAACNOR8135
012015062396UGPA3F      020ULTRAPAR    ON      NM   R$  000000000682800000000068300000000006770000000000680300000000068230000000006771000000000682300203000000000000001868000000000012707573000000000000009999123100000010000000000000BRUGPAACNOR8135
012015062402UGPA3       010ULTRAPAR    ON      NM   R$  000000000677900000000068080000000006686000000000672700000000067000000000006697000000000670905453000000000001042600000000007014299600000000000000009999123100000010000000000000BRUGPAACNOR8135
012015062496UGPA3F      020ULTRAPAR    ON      NM   R$  000000000675000000000068080000000006680000000000672900000000067300000000006705000000000673000086000000000000002139000000000014395212000000000000009999123100000010000000000000BRUGPAACNOR8135
012015062502UGPA3       010ULTRAPAR    ON      NM   R$  000000000670000000000067290000000006624000000000667900000000066800000000006679000000000668005368000000000001893600000000012648984900000000000000009999123100000010000000000000BRUGPAACNOR8135
012015062596UGPA3F      020ULTRAPAR    ON      NM   R$  000000000675400000000067540000000006627000000000667900000000067450000000006630000000000674500175000000000000001667000000000011134990000000000000009999123100000010000000000000BRUGPAACNOR8135
012015062562UGPA3T      030ULTRAPAR    ON      NM018R$  000000000671200000000067130000000006712000000000671200000000067130000000000000000000000000000002000000000000000100000000000000671203000000000000009999123100000010000000000000BRUGPAACNOR8135
012015062602UGPA3       010ULTRAPAR    ON      NM   R$  000000000671300000000067440000000006605000000000665600000000066390000000006638000000000663907320000000000001403900000000009344814700000000000000009999123100000010000000000000BRUGPAACNOR8135
012015062696UGPA3F      020ULTRAPAR    ON      NM   R$  000000000673000000000067400000000006610000000000665100000000066100000000006610000000000661600216000000000000002179000000000014493047000000000000009999123100000010000000000000BRUGPAACNOR8135
012015062662UGPA3T      030ULTRAPAR    ON      NM031R$  000000000669300000000066940000000006693000000000669300000000066940000000000000000000000000000004000000000000000200000000000001338710000000000000009999123100000010000000000000BRUGPAACNOR8135
012015062902UGPA3       010ULTRAPAR    ON      NM   R$  000000000656000000000066400000000006488000000000656400000000065860000000006585000000000658604016000000000000738000000000004844853300000000000000009999123100000010000000000000BRUGPAACNOR8135
012015062996UGPA3F      020ULTRAPAR    ON      NM   R$  000000000656800000000067210000000006493000000000656400000000065320000000006532000000000670000086000000000000001950000000000012801292000000000000009999123100000010000000000000BRUGPAACNOR8135
012015062962UGPA3T      030ULTRAPAR    ON      NM030R$  000000000665000000000066510000000006650000000000665000000000066510000000000000000000000000000002000000000000000100000000000000665076000000000000009999123100000010000000000000BRUGPAACNOR8135
012015063002UGPA3       010ULTRAPAR    ON      NM   R$  000000000657800000000066380000000006531000000000656700000000065700000000006568000000000657007876000000000001483700000000009744710300000000000000009999123100000010000000000000BRUGPAACNOR8135
012015063096UGPA3F      020ULTRAPAR    ON      NM   R$  000000000659400000000066320000000006505000000000656900000000065690000000006546000000000656900071000000000000001795000000000011791445000000000000009999123100000010000000000000BRUGPAACNOR8135
012015070102UGPA3       010ULTRAPAR    ON      NM   R$  000000000656000000000066200000000006401000000000650200000000065150000000006510000000000652708031000000000001826600000000011876761400000000000000009999123100000010000000000000BRUGPAACNOR8135
012015070196UGPA3F      020ULTRAPAR    ON      NM   R$  000000000650200000000066170000000006404000000000649500000000065200000000006500000000000652000159000000000000002991000000000019429352000000000000009999123100000010000000000000BRUGPAACNOR8135
012015070162UGPA3T      030ULTRAPAR    ON      NM030R$  000000000656400000000065750000000006564000000000656900000000065750000000000000000000000000000004000000000000004000000000000026278200000000000000009999123100000010000000000000BRUGPAACNOR8135
012015070202UGPA3       010ULTRAPAR    ON      NM   R$  000000000655600000000065880000000006488000000000655500000000065880000000006554000000000658803975000000000001220900000000008003376700000000000000009999123100000010000000000000BRUGPAACNOR8135
012015070296UGPA3F      020ULTRAPAR    ON      NM   R$  000000000650500000000065840000000006490000000000654000000000064900000000006490000000000655700071000000000000001831000000000011977301000000000000009999123100000010000000000000BRUGPAACNOR8135
012015070302UGPA3       010ULTRAPAR    ON      NM   R$  000000000654300000000065860000000006477000000000655100000000065800000000006570000000000658002281000000000000493800000000003235306400000000000000009999123100000010000000000000BRUGPAACNOR8135
012015070396UGPA3F      020ULTRAPAR    ON      NM   R$  000000000654700000000065750000000006483000000000653700000000065640000000006564000000000659000084000000000000001227000000000008021397000000000000009999123100000010000000000000BRUGPAACNOR8135
012015070602UGPA3       010ULTRAPAR    ON      NM   R$  000000000650400000000066000000000006465000000000656500000000066000000000006600000000000660504820000000000001879600000000012340399700000000000000009999123100000010000000000000BRUGPAACNOR8135
012015070696UGPA3F      020ULTRAPAR    ON      NM   R$  000000000650000000000065860000000006435000000000652800000000065700000000006503000000000657800105000000000000001980000000000012940221000000000000009999123100000010000000000000BRUGPAACNOR8135
012015070702UGPA3       010ULTRAPAR    ON      NM   R$  000000000655000000000065980000000006443000000000654500000000065810000000006581000000000658906585000000000001303800000000008534048600000000000000009999123100000010000000000000BRUGPAACNOR8135
012015070796UGPA3F      020ULTRAPAR    ON      NM   R$  000000000653000000000065940000000006450000000000651400000000065800000000006580000000000663700077000000000000002276000000000014828046000000000000009999123100000010000000000000BRUGPAACNOR8135
012015070802UGPA3       010ULTRAPAR    ON      NM   R$  000000000657400000000066090000000006501000000000654800000000065200000000006519000000000652004474000000000001315700000000008615666300000000000000009999123100000010000000000000BRUGPAACNOR8135
012015070896UGPA3F      020ULTRAPAR    ON      NM   R$  000000000663400000000066340000000006446000000000655600000000064500000000006450000000000655100067000000000000001430000000000009374577000000000000009999123100000010000000000000BRUGPAACNOR8135
012015071002UGPA3       010ULTRAPAR    ON      NM   R$  000000000655300000000066950000000006524000000000664600000000066770000000006655000000000667704971000000000001494700000000009934755000000000000000009999123100000010000000000000BRUGPAACNOR8135
012015071096UGPA3F      020ULTRAPAR    ON      NM   R$  000000000650300000000067300000000006503000000000663300000000065260000000006526000000000666400089000000000000002126000000000014104535000000000000009999123100000010000000000000BRUGPAACNOR8135
012015071062UGPA3T      030ULTRAPAR    ON      NM017R$  000000000671000000000067110000000006710000000000671000000000067110000000000000000000000000000004000000000000010000000000000067100396000000000000009999123100000010000000000000BRUGPAACNOR8135
012015071302UGPA3       010ULTRAPAR    ON      NM   R$  000000000673200000000067550000000006630000000000668700000000067160000000006716000000000671704516000000000000838500000000005607227300000000000000009999123100000010000000000000BRUGPAACNOR8135
012015071396UGPA3F      020ULTRAPAR    ON      NM   R$  000000000672000000000068000000000006630000000000670700000000067300000000006692000000000673000200000000000000002225000000000014925590000000000000009999123100000010000000000000BRUGPAACNOR8135
012015071362UGPA3T      030ULTRAPAR    ON      NM030R$  000000000677700000000067780000000006773000000000677500000000067740000000000000000000000000000004000000000000000200000000000001355078000000000000009999123100000010000000000000BRUGPAACNOR8135
012015071402UGPA3       010ULTRAPAR    ON      NM   R$  000000000668300000000067890000000006648000000000674200000000067760000000006753000000000677603510000000000000680600000000004588632400000000000000009999123100000010000000000000BRUGPAACNOR8135
012015071496UGPA3F      020ULTRAPAR    ON      NM   R$  000000000678800000000068030000000006660000000000673800000000067980000000006712000000000679800183000000000000002606000000000017564617000000000000009999123100000010000000000000BRUGPAACNOR8135
012015071462UGPA3T      030ULTRAPAR    ON      NM030R$  000000000678700000000067880000000006787000000000678700000000067880000000000000000000000000000002000000000000000500000000000003393559000000000000009999123100000010000000000000BRUGPAACNOR8135
012015071462UGPA3T      030ULTRAPAR    ON      NM181R$  000000000723500000000072360000000007235000000000723500000000072360000000000000000000000000000002000000000000000200000000000001447017000000000000009999123100000010000000000000BRUGPAACNOR8135
012015071502UGPA3       010ULTRAPAR    ON      NM   R$  000000000676200000000068410000000006717000000000680700000000068410000000006804000000000684105026000000000001637900000000011149735500000000000000009999123100000010000000000000BRUGPAACNOR8135
012015071596UGPA3F      020ULTRAPAR    ON      NM   R$  000000000677600000000068480000000006728000000000681200000000068480000000006825000000000684800169000000000000002490000000000016962191000000000000009999123100000010000000000000BRUGPAACNOR8135
012015071602UGPA3       010ULTRAPAR    ON      NM   R$  000000000690000000000069120000000006737000000000679800000000067990000000006793000000000680004259000000000000937200000000006371914700000000000000009999123100000010000000000000BRUGPAACNOR8135
012015071696UGPA3F      020ULTRAPAR    ON      NM   R$  000000000687500000000069710000000006705000000000682300000000067920000000006703000000000679200225000000000000002350000000000016033196000000000000009999123100000010000000000000BRUGPAACNOR8135
012015071702UGPA3       010ULTRAPAR    ON      NM   R$  000000000683100000000068390000000006684000000000673700000000067270000000006727000000000674504185000000000000770200000000005188922400000000000000009999123100000010000000000000BRUGPAACNOR8135
012015071796UGPA3F      020ULTRAPAR    ON      NM   R$  000000000683100000000069190000000006522000000000672600000000069190000000006747000000000691900231000000000000002023000000000013608485000000000000009999123100000010000000000000BRUGPAACNOR8135
012015072002UGPA3       010ULTRAPAR    ON      NM   R$  000000000672600000000067910000000006670000000000672900000000067140000000006714000000000672503875000000000000640700000000004311745400000000000000009999123100000010000000000000BRUGPAACNOR8135
012015072096UGPA3F      020ULTRAPAR    ON      NM   R$  000000000675900000000067810000000006679000000000673500000000067810000000006732000000000678100087000000000000001746000000000011759698000000000000009999123100000010000000000000BRUGPAACNOR8135
012015072102UGPA3       010ULTRAPAR    ON      NM   R$  000000000671200000000068140000000006700000000000675800000000067660000000006732000000000676603908000000000000814200000000005502823300000000000000009999123100000010000000000000BRUGPAACNOR8135
012015072196UGPA3F      020ULTRAPAR    ON      NM   R$  000000000674000000000068030000000006700000000000675700000000067620000000006762000000000681300069000000000000001671000000000011292719000000000000009999123100000010000000000000BRUGPAACNOR8135
012015072202UGPA3       010ULTRAPAR    ON      NM   R$  000000000669500000000068370000000006685000000000678000000000068370000000006800000000000683705180000000000001257700000000008528239300000000000000009999123100000010000000000000BRUGPAACNOR8135
012015072296UGPA3F      020ULTRAPAR    ON      NM   R$  000000000681200000000068840000000006715000000000677000000000068840000000006760000000000688400063000000000000001689000000000011434043000000000000009999123100000010000000000000BRUGPAACNOR8135
012015072262UGPA3T      030ULTRAPAR    ON      NM016R$  000000000684000000000068410000000006794000000000682500000000067950000000000000000000000000000004000000000000001500000000000010237547000000000000009999123100000010000000000000BRUGPAACNOR8135
012015072262UGPA3T      030ULTRAPAR    ON      NM030R$  000000000683300000000068340000000006833000000000683300000000068340000000000000000000000000000004000000000000000200000000000001366670000000000000009999123100000010000000000000BRUGPAACNOR8135
012015072302UGPA3       010ULTRAPAR    ON      NM   R$  000000000685000000000068690000000006682000000000675700000000067480000000006741000000000674806549000000000001322700000000008937361400000000000000009999123100000010000000000000BRUGPAACNOR8135
012015072396UGPA3F      020ULTRAPAR    ON      NM   R$  000000000683900000000068550000000006700000000000678200000000067420000000006742000000000675000102000000000000002319000000000015727697000000000000009999123100000010000000000000BRUGPAACNOR8135
012015072402UGPA3       010ULTRAPAR    ON      NM   R$  000000000679700000000067970000000006637000000000671700000000067500000000006747000000000675004202000000000000905100000000006080340200000000000000009999123100000010000000000000BRUGPAACNOR8135
012015072496UGPA3F      020ULTRAPAR    ON      NM   R$  000000000670000000000067630000000006648000000000670200000000067370000000006737000000000675900083000000000000002070000000000013874710000000000000009999123100000010000000000000BRUGPAACNOR8135
012015072462UGPA3T      030ULTRAPAR    ON      NM017R$  000000000675900000000067600000000006759000000000675900000000067600000000000000000000000000000002000000000000000300000000000002027993000000000000009999123100000010000000000000BRUGPAACNOR8135
012015072462UGPA3T      030ULTRAPAR    ON      NM031R$  000000000677600000000067770000000006776000000000677600000000067770000000000000000000000000000002000000000000000100000000000000677675000000000000009999123100000010000000000000BRUGPAACNOR8135
012015072702UGPA3       010ULTRAPAR    ON      NM   R$  000000000670000000000067490000000006617000000000668200000000066700000000006663000000000667003865000000000001699700000000011358526800000000000000009999123100000010000000000000BRUGPAACNOR8135
012015072796UGPA3F      020ULTRAPAR    ON      NM   R$  000000000669700000000067800000000006601000000000667100000000066700000000006644000000000667000112000000000000002264000000000015104646000000000000009999123100000010000000000000BRUGPAACNOR8135
012015072802UGPA3       010ULTRAPAR    ON      NM   R$  000000000670300000000067740000000006620000000000668600000000066660000000006666000000000668006042000000000001654100000000011060800200000000000000009999123100000010000000000000BRUGPAACNOR8135
012015072896UGPA3F      020ULTRAPAR    ON      NM   R$  000000000670000000000067990000000006633000000000669300000000066750000000006623000000000667500095000000000000001997000000000013365043000000000000009999123100000010000000000000BRUGPAACNOR8135
012015072902UGPA3       010ULTRAPAR    ON      NM   R$  000000000660500000000068100000000006605000000000675800000000068100000000006762000000000681005449000000000001033300000000006983272500000000000000009999123100000010000000000000BRUGPAACNOR8135
012015072996UGPA3F      020ULTRAPAR    ON      NM   R$  000000000658300000000067850000000006583000000000674300000000067850000000006759000000000678500091000000000000001819000000000012267594000000000000009999123100000010000000000000BRUGPAACNOR8135
012015073002UGPA3       010ULTRAPAR    ON      NM   R$  000000000679400000000069040000000006740000000000684100000000069040000000006901000000000690404665000000000001274600000000008720452500000000000000009999123100000010000000000000BRUGPAACNOR8135
012015073096UGPA3F      020ULTRAPAR    ON      NM   R$  000000000680000000000068920000000006631000000000682700000000068920000000006892000000000689600082000000000000001443000000000009851943000000000000009999123100000010000000000000BRUGPAACNOR8135
012015073062UGPA3T      030ULTRAPAR    ON      NM018R$  000000000688100000000068820000000006881000000000688100000000068820000000000000000000000000000002000000000000000200000000000001376208000000000000009999123100000010000000000000BRUGPAACNOR8135
012015073102UGPA3       010ULTRAPAR    ON      NM   R$  000000000687900000000071160000000006878000000000702700000000070270000000007027000000000704107253000000000001994700000000014016764600000000000000009999123100000010000000000000BRUGPAACNOR8135
012015073196UGPA3F      020ULTRAPAR    ON      NM   R$  000000000690400000000071090000000006880000000000701100000000070400000000007008000000000704000157000000000000003778000000000026490725000000000000009999123100000010000000000000BRUGPAACNOR8135
012015073162UGPA3T      030ULTRAPAR    ON      NM031R$  000000000702200000000070230000000007022000000000702200000000070230000000000000000000000000000002000000000000000500000000000003511386000000000000009999123100000010000000000000BRUGPAACNOR8135
012015080302UGPA3       010ULTRAPAR    ON      NM   R$  000000000697000000000071030000000006908000000000694900000000069470000000006947000000000694904633000000000000983000000000006831372500000000000000009999123100000010000000000000BRUGPAACNOR8135
012015080396UGPA3F      020ULTRAPAR    ON      NM   R$  000000000702500000000070530000000006913000000000697200000000069440000000006906000000000694400363000000000000002913000000000020303992000000000000009999123100000010000000000000BRUGPAACNOR8135
012015080402UGPA3       010ULTRAPAR    ON      NM   R$  000000000692500000000070620000000006922000000000701100000000070460000000007012000000000704603677000000000001227300000000008604755800000000000000009999123100000010000000000000BRUGPAACNOR8135
012015080496UGPA3F      020ULTRAPAR    ON      NM   R$  000000000693900000000070690000000006900000000000701300000000070690000000007011000000000706900176000000000000001403000000000009839645000000000000009999123100000010000000000000BRUGPAACNOR8135
012015080502UGPA3       010ULTRAPAR    ON      NM   R$  000000000714900000000071510000000007043000000000708800000000070890000000007070000000000708903619000000000000769100000000005452003600000000000000009999123100000010000000000000BRUGPAACNOR8135
012015080596UGPA3F      020ULTRAPAR    ON      NM   R$  000000000714800000000071500000000007047000000000708900000000070520000000007052000000000708900226000000000000001589000000000011263931000000000000009999123100000010000000000000BRUGPAACNOR8135
012015080602UGPA3       010ULTRAPAR    ON      NM   R$  000000000703900000000071440000000006915000000000696100000000069570000000006957000000000696006141000000000001170600000000008148803100000000000000009999123100000010000000000000BRUGPAACNOR8135
012015080696UGPA3F      020ULTRAPAR    ON      NM   R$  000000000704400000000070440000000006920000000000695000000000069480000000006901000000000694800209000000000000002222000000000015445034000000000000009999123100000010000000000000BRUGPAACNOR8135
012015080702UGPA3       010ULTRAPAR    ON      NM   R$  000000000692200000000069290000000006554000000000667200000000066500000000006648000000000666509145000000000001814300000000012105437300000000000000009999123100000010000000000000BRUGPAACNOR8135
012015080796UGPA3F      020ULTRAPAR    ON      NM   R$  000000000698700000000069880000000006559000000000669000000000066520000000006614000000000665200309000000000000002343000000000015673788000000000000009999123100000010000000000000BRUGPAACNOR8135
012015080762UGPA3T      030ULTRAPAR    ON      NM032R$  000000000669400000000066950000000006694000000000669400000000066950000000000000000000000000000002000000000000001500000000000010041131000000000000009999123100000010000000000000BRUGPAACNOR8135
012015081002UGPA3       010ULTRAPAR    ON      NM   R$  000000000669700000000067600000000006620000000000670900000000066910000000006691000000000669506125000000000001363000000000009144626300000000000000009999123100000010000000000000BRUGPAACNOR8135
012015081096UGPA3F      020ULTRAPAR    ON      NM   R$  000000000673100000000067450000000006650000000000671200000000067230000000006697000000000672300085000000000000001613000000000010827788000000000000009999123100000010000000000000BRUGPAACNOR8135
012015081102UGPA3       010ULTRAPAR    ON      NM   R$  000000000666900000000066690000000006538000000000660400000000066400000000006640000000000664206938000000000001583800000000010461202400000000000000009999123100000010000000000000BRUGPAACNOR8135
012015081196UGPA3F      020ULTRAPAR    ON      NM   R$  000000000668200000000066990000000006539000000000660800000000066190000000006619000000000666100074000000000000001661000000000010978162000000000000009999123100000010000000000000BRUGPAACNOR8135
012015081202UGPA3       010ULTRAPAR    ON      NM   R$  000000000660500000000067890000000006538000000000666800000000067290000000006696000000000672910984000000000002181300000000014545346600000000000000009999123100000010000000000000BRUGPAACNOR8135
012015081296UGPA3F      020ULTRAPAR    ON      NM   R$  000000000661000000000067930000000006545000000000664000000000067900000000006659000000000679000065000000000000001688000000000011208821000000000000009999123100000010000000000000BRUGPAACNOR8135
012015081302UGPA3       010ULTRAPAR    ON  ED  NM   R$  000000000665700000000066840000000006574000000000661800000000066150000000006613000000000661505311000000000001275300000000008440453000000000000000009999123100000010000000000000BRUGPAACNOR8136
012015081396UGPA3F      020ULTRAPAR    ON  ED  NM   R$  000000000674800000000067480000000006548000000000662400000000066050000000006605000000000664200148000000000000001437000000000009518230000000000000009999123100000010000000000000BRUGPAACNOR8136
012015081402UGPA3       010ULTRAPAR    ON  ED  NM   R$  000000000664800000000066810000000006531000000000656900000000065700000000006568000000000657504586000000000000889400000000005843028400000000000000009999123100000010000000000000BRUGPAACNOR8136
012015081496UGPA3F      020ULTRAPAR    ON  ED  NM   R$  000000000664700000000066710000000006539000000000657800000000065650000000006554000000000656500052000000000000001190000000000007828687000000000000009999123100000010000000000000BRUGPAACNOR8136
012015081702UGPA3       010ULTRAPAR    ON  ED  NM   R$  000000000654400000000066120000000006482000000000652900000000065280000000006519000000000652804337000000000000839300000000005480240500000000000000009999123100000010000000000000BRUGPAACNOR8136
012015081796UGPA3F      020ULTRAPAR    ON  ED  NM   R$  000000000660700000000066070000000006486000000000654300000000065770000000006501000000000657700100000000000000002002000000000013094213000000000000009999123100000010000000000000BRUGPAACNOR8136
012015081762UGPA3T      030ULTRAPAR    ON  ED  NM030R$  000000000664200000000066430000000006642000000000664200000000066430000000000000000000000000000004000000000000000200000000000001328404000000000000009999123100000010000000000000BRUGPAACNOR8136
012015081802UGPA3       010ULTRAPAR    ON  ED  NM   R$  000000000649000000000065100000000006395000000000641100000000064050000000006395000000000641809161000000000004616400000000029596471900000000000000009999123100000010000000000000BRUGPAACNOR8136
012015081896UGPA3F      020ULTRAPAR    ON  ED  NM   R$  000000000648800000000065590000000006396000000000644100000000064090000000006397000000000640900074000000000000001938000000000012482667000000000000009999123100000010000000000000BRUGPAACNOR8136
012015081862UGPA3T      030ULTRAPAR    ON  ED  NM030R$  000000000649800000000064990000000006498000000000649800000000064990000000000000000000000000000002000000000000000300000000000001949558000000000000009999123100000010000000000000BRUGPAACNOR8136
012015081902UGPA3       010ULTRAPAR    ON  ED  NM   R$  000000000634000000000063900000000006265000000000634800000000063800000000006375000000000638906584000000000001283400000000008147241800000000000000009999123100000010000000000000BRUGPAACNOR8136
012015081996UGPA3F      020ULTRAPAR    ON  ED  NM   R$  000000000640000000000064000000000006280000000000635100000000063870000000006367000000000638700088000000000000002316000000000014710329000000000000009999123100000010000000000000BRUGPAACNOR8136
012015081962UGPA3T      030ULTRAPAR    ON  ED  NM090R$  000000000653600000000065370000000006536000000000653600000000065370000000000000000000000000000002000000000000010700000000000069935784000000000000009999123100000010000000000000BRUGPAACNOR8136
012015082002UGPA3       010ULTRAPAR    ON  ED  NM   R$  000000000628000000000063420000000006249000000000630300000000063180000000006305000000000631807291000000000001382200000000008713034800000000000000009999123100000010000000000000BRUGPAACNOR8136
012015082096UGPA3F      020ULTRAPAR    ON  ED  NM   R$  000000000636000000000063600000000006252000000000629300000000062560000000006256000000000632500106000000000000002348000000000014776496000000000000009999123100000010000000000000BRUGPAACNOR8136
012015082102UGPA3       010ULTRAPAR    ON  ED  NM   R$  000000000629900000000063030000000006108000000000615900000000061500000000006150000000000616510017000000000001766900000000010883887900000000000000009999123100000010000000000000BRUGPAACNOR8136
012015082196UGPA3F      020ULTRAPAR    ON  ED  NM   R$  000000000624400000000062510000000006125000000000617700000000061740000000006122000000000617400115000000000000002495000000000015410146000000000000009999123100000010000000000000BRUGPAACNOR8136
012015082402UGPA3       010ULTRAPAR    ON  ED  NM   R$  000000000585000000000061280000000005800000000000599700000000059710000000005971000000000598013338000000000002498700000000014985106200000000000000009999123100000010000000000000BRUGPAACNOR8136
012015082496UGPA3F      020ULTRAPAR    ON  ED  NM   R$  000000000580000000000061220000000005800000000000593400000000059860000000005986000000000610800656000000000000005141000000000030513911000000000000009999123100000010000000000000BRUGPAACNOR8136
012015082462UGPA3T      030ULTRAPAR    ON  ED  NM016R$  000000000584400000000058450000000005844000000000584400000000058450000000000000000000000000000002000000000000000100000000000000584497000000000000009999123100000010000000000000BRUGPAACNOR8136
012015082462UGPA3T      030ULTRAPAR    ON  ED  NM030R$  000000000591600000000059170000000005916000000000591600000000059170000000000000000000000000000004000000000000000200000000000001183296000000000000009999123100000010000000000000BRUGPAACNOR8136
012015082502UGPA3       010ULTRAPAR    ON      NM   R$  000000000616900000000061690000000006000000000000605900000000060200000000006017000000000602009020000000000001401600000000008493136900000000000000009999123100000010000000000000BRUGPAACNOR8136
012015082596UGPA3F      020ULTRAPAR    ON      NM   R$  000000000614900000000061490000000006005000000000606200000000060310000000006000000000000603100377000000000000002925000000000017730863000000000000009999123100000010000000000000BRUGPAACNOR8136
012015082602UGPA3       010ULTRAPAR    ON      NM   R$  000000000607100000000062400000000006044000000000611800000000062400000000006201000000000624012331000000000002660400000000016278493300000000000000009999123100000010000000000000BRUGPAACNOR8136
012015082696UGPA3F      020ULTRAPAR    ON      NM   R$  000000000608300000000062160000000006000000000000613500000000062160000000006216000000000622700415000000000000002297000000000014094577000000000000009999123100000010000000000000BRUGPAACNOR8136
012015082662UGPA3T      030ULTRAPAR    ON      NM030R$  000000000615200000000061530000000006152000000000615200000000061530000000000000000000000000000002000000000000000500000000000003076467000000000000009999123100000010000000000000BRUGPAACNOR8136
012015082702UGPA3       010ULTRAPAR    ON      NM   R$  000000000630300000000064680000000006278000000000638400000000064330000000006400000000000643312006000000000001997400000000012753146200000000000000009999123100000010000000000000BRUGPAACNOR8136
012015082796UGPA3F      020ULTRAPAR    ON      NM   R$  000000000642200000000064720000000006294000000000638900000000063970000000006089000000000639700355000000000000003515000000000022463721000000000000009999123100000010000000000000BRUGPAACNOR8136
012015082802UGPA3       010ULTRAPAR    ON      NM   R$  000000000639000000000064200000000006264000000000635700000000063990000000006381000000000639908220000000000001611900000000010250665400000000000000009999123100000010000000000000BRUGPAACNOR8136
012015082896UGPA3F      020ULTRAPAR    ON      NM   R$  000000000649800000000065610000000006267000000000636000000000063810000000006381000000000644000155000000000000002408000000000015317743000000000000009999123100000010000000000000BRUGPAACNOR8136
012015083102UGPA3       010ULTRAPAR    ON      NM   R$  000000000629100000000064000000000006164000000000629200000000063470000000006340000000000634711460000000000002648900000000016663521400000000000000009999123100000010000000000000BRUGPAACNOR8136
012015083196UGPA3F      020ULTRAPAR    ON      NM   R$  000000000630000000000064430000000006167000000000630500000000064430000000006350000000000644300112000000000000002075000000000013083611000000000000009999123100000010000000000000BRUGPAACNOR8136
012015090102UGPA3       010ULTRAPAR    ON      NM   R$  000000000617300000000063270000000006154000000000626400000000062790000000006275000000000628010095000000000002566900000000016080998400000000000000009999123100000010000000000000BRUGPAACNOR8136
012015090196UGPA3F      020ULTRAPAR    ON      NM   R$  000000000612000000000063210000000006037000000000625600000000062840000000006224000000000628400170000000000000004421000000000027664239000000000000009999123100000010000000000000BRUGPAACNOR8136
012015090162UGPA3T      030ULTRAPAR    ON      NM063R$  000000000641100000000064120000000006411000000000641100000000064120000000000000000000000000000002000000000000002000000000000012823123000000000000009999123100000010000000000000BRUGPAACNOR8136
012015090202UGPA3       010ULTRAPAR    ON      NM   R$  000000000627900000000063880000000006277000000000633100000000063880000000006363000000000638808350000000000001587500000000010052171300000000000000009999123100000010000000000000BRUGPAACNOR8136
012015090296UGPA3F      020ULTRAPAR    ON      NM   R$  000000000631500000000065600000000006270000000000632200000000063550000000006355000000000637500097000000000000002612000000000016515670000000000000009999123100000010000000000000BRUGPAACNOR8136
012015090302UGPA3       010ULTRAPAR    ON      NM   R$  000000000643000000000065430000000006382000000000647400000000064920000000006456000000000649209192000000000002097300000000013579023000000000000000009999123100000010000000000000BRUGPAACNOR8136
012015090396UGPA3F      020ULTRAPAR    ON      NM   R$  000000000645500000000065350000000006381000000000646400000000064760000000006380000000000647600093000000000000002230000000000014414978000000000000009999123100000010000000000000BRUGPAACNOR8136
012015090402UGPA3       010ULTRAPAR    ON      NM   R$  000000000645400000000064970000000006370000000000644300000000064950000000006485000000000649507343000000000001955400000000012600960300000000000000009999123100000010000000000000BRUGPAACNOR8136
012015090496UGPA3F      020ULTRAPAR    ON      NM   R$  000000000648800000000064920000000006202000000000640500000000063580000000006358000000000654900113000000000000002981000000000019095465000000000000009999123100000010000000000000BRUGPAACNOR8136
012015090802UGPA3       010ULTRAPAR    ON      NM   R$  000000000647500000000065660000000006409000000000648700000000064890000000006484000000000649807048000000000001280000000000008303919000000000000000009999123100000010000000000000BRUGPAACNOR8136
012015090896UGPA3F      020ULTRAPAR    ON      NM   R$  000000000654000000000065580000000006401000000000650100000000064780000000006465000000000647800162000000000000003454000000000022454805000000000000009999123100000010000000000000BRUGPAACNOR8136
012015090862UGPA3T      030ULTRAPAR    ON      NM030R$  000000000655300000000065540000000006553000000000655300000000065540000000000000000000000000000002000000000000000400000000000002621316000000000000009999123100000010000000000000BRUGPAACNOR8136
012015090902UGPA3       010ULTRAPAR    ON      NM   R$  000000000653400000000066060000000006364000000000643000000000063700000000006367000000000637006941000000000001579800000000010159266600000000000000009999123100000010000000000000BRUGPAACNOR8136
012015090996UGPA3F      020ULTRAPAR    ON      NM   R$  000000000660000000000066000000000006370000000000645800000000063700000000006370000000000640000109000000000000001949000000000012572114000000000000009999123100000010000000000000BRUGPAACNOR8136
012015090962UGPA3T      030ULTRAPAR    ON      NM180R$  000000000703800000000070390000000007038000000000703800000000070390000000000000000000000000000002000000000000000500000000000003519376000000000000009999123100000010000000000000BRUGPAACNOR8136
012015091002UGPA3       010ULTRAPAR    ON      NM   R$  000000000625000000000063980000000006246000000000633700000000063850000000006380000000000638506558000000000001212300000000007682493000000000000000009999123100000010000000000000BRUGPAACNOR8136
