012014010202UGPA3       010ULTRAPAR    ON      NM   R$  000000000559500000000056280000000005447000000000550900000000054470000000005447000000000545304578000000000001073100000000005911883900000000000000009999123100000010000000000000BRUGPAACNOR8132
012014010302UGPA3       010ULTRAPAR    ON      NM   R$  000000000548000000000054810000000005364000000000540300000000054000000000005400000000000540505948000000000002540800000000013728918900000000000000009999123100000010000000000000BRUGPAACNOR8132
012014010602UGPA3       010ULTRAPAR    ON      NM   R$  000000000538300000000053990000000005315000000000534200000000053310000000005325000000000533108769000000000001500700000000008017522200000000000000009999123100000010000000000000BRUGPAACNOR8132
012014010702UGPA3       010ULTRAPAR    ON      NM   R$  000000000536500000000054080000000005328000000000537100000000053530000000005351000000000535306139000000000001330200000000007145406600000000000000009999123100000010000000000000BRUGPAACNOR8132
012014010802UGPA3       010ULTRAPAR    ON      NM   R$  000000000537800000000054490000000005334000000000541400000000054350000000005421000000000543506090000000000001005100000000005441985900000000000000009999123100000010000000000000BRUGPAACNOR8132
012014010902UGPA3       010ULTRAPAR    ON      NM   R$  000000000542000000000054350000000005306000000000534500000000053380000000005330000000000533805765000000000001567800000000008380125900000000000000009999123100000010000000000000BRUGPAACNOR8132
012014011002UGPA3       010ULTRAPAR    ON      NM   R$  000000000535300000000054060000000005271000000000531700000000053920000000005353000000000539206333000000000001950600000000010372882300000000000000009999123100000010000000000000BRUGPAACNOR8132
012014011302UGPA3       010ULTRAPAR    ON      NM   R$  000000000539700000000054150000000005322000000000535700000000053500000000005350000000000537204151000000000000871300000000004668395900000000000000009999123100000010000000000000BRUGPAACNOR8132
012014011402UGPA3       010ULTRAPAR    ON      NM   R$  000000000532900000000054560000000005312000000000540900000000054190000000005419000000000542105336000000000000960100000000005193650400000000000000009999123100000010000000000000BRUGPAACNOR8132
012014011502UGPA3       010ULTRAPAR    ON      NM   R$  000000000547000000000054740000000005355000000000539300000000053920000000005368000000000539304580000000000000808200000000004359365300000000000000009999123100000010000000000000BRUGPAACNOR8132
012014011602UGPA3       010ULTRAPAR    ON      NM   R$  000000000539200000000055130000000005392000000000543300000000054000000000005400000000000541005142000000000001038700000000005642531700000000000000009999123100000010000000000000BRUGPAACNOR8132
012014011702UGPA3       010ULTRAPAR    ON      NM   R$  000000000540000000000054360000000005284000000000533700000000053000000000005300000000000530604145000000000001088300000000005808705800000000000000009999123100000010000000000000BRUGPAACNOR8132
012014012002UGPA3       010ULTRAPAR    ON      NM   R$  000000000530800000000053930000000005301000000000536200000000053530000000005342000000000535301708000000000000368700000000001977231700000000000000009999123100000010000000000000BRUGPAACNOR8132
012014012102UGPA3       010ULTRAPAR    ON      NM   R$  000000000538700000000053990000000005327000000000536900000000053790000000005359000000000538004866000000000001193100000000006406578200000000000000009999123100000010000000000000BRUGPAACNOR8132
012014012202UGPA3       010ULTRAPAR    ON      NM   R$  000000000536500000000054490000000005342000000000539900000000054260000000005425000000000542605102000000000000992000000000005356551200000000000000009999123100000010000000000000BRUGPAACNOR8132
012014012302UGPA3       010ULTRAPAR    ON      NM   R$  000000000538200000000054380000000005326000000000535800000000053400000000005340000000000534106459000000000001256700000000006733677200000000000000009999123100000010000000000000BRUGPAACNOR8132
012014012402UGPA3       010ULTRAPAR    ON      NM   R$  000000000532300000000053830000000005245000000000529700000000052780000000005268000000000527908758000000000001861400000000009860356700000000000000009999123100000010000000000000BRUGPAACNOR8132
012014012702UGPA3       010ULTRAPAR    ON      NM   R$  000000000530100000000053060000000005185000000000522700000000051850000000005185000000000519507505000000000002103400000000010994207200000000000000009999123100000010000000000000BRUGPAACNOR8132
012014012802UGPA3       010ULTRAPAR    ON      NM   R$  000000000521000000000052810000000005210000000000526000000000052800000000005280000000000528104590000000000001077300000000005666696000000000000000009999123100000010000000000000BRUGPAACNOR8132
012014012902UGPA3       010ULTRAPAR    ON      NM   R$  000000000528100000000053940000000005280000000000535600000000053470000000005345000000000534707070000000000001690200000000009053412300000000000000009999123100000010000000000000BRUGPAACNOR8132
012014013002UGPA3       010ULTRAPAR    ON      NM   R$  000000000532100000000054490000000005280000000000534800000000053310000000005323000000000533206732000000000001337600000000007154557400000000000000009999123100000010000000000000BRUGPAACNOR8132
012014013102UGPA3       010ULTRAPAR    ON      NM   R$  000000000526900000000053580000000005242000000000532800000000053300000000005320000000000533004971000000000001215100000000006474443000000000000000009999123100000010000000000000BRUGPAACNOR8132
012014020302UGPA3       010ULTRAPAR    ON      NM   R$  000000000536500000000053870000000005155000000000521400000000051660000000005163000000000516606947000000000001138100000000005934536000000000000000009999123100000010000000000000BRUGPAACNOR8132
012014020402UGPA3       010ULTRAPAR    ON      NM   R$  000000000520000000000052900000000005178000000000523100000000052440000000005240000000000524407277000000000001547700000000008098025100000000000000009999123100000010000000000000BRUGPAACNOR8132
012014020502UGPA3       010ULTRAPAR    ON      NM   R$  000000000521500000000052340000000005003000000000512400000000050950000000005095000000000510406670000000000001726600000000008847221600000000000000009999123100000010000000000000BRUGPAACNOR8132
012014020602UGPA3       010ULTRAPAR    ON      NM   R$  000000000509100000000052700000000005081000000000519300000000052700000000005257000000000527005976000000000001634300000000008488995700000000000000009999123100000010000000000000BRUGPAACNOR8132
012014020702UGPA3       010ULTRAPAR    ON      NM   R$  000000000525200000000053620000000005180000000000523000000000051950000000005191000000000519507113000000000001470700000000007692459600000000000000009999123100000010000000000000BRUGPAACNOR8132
012014021002UGPA3       010ULTRAPAR    ON      NM   R$  000000000518100000000052570000000005100000000000517900000000051310000000005131000000000514704071000000000000947500000000004906046200000000000000009999123100000010000000000000BRUGPAACNOR8132
012014021102UGPA3       010ULTRAPAR    ON      NM   R$  000000000517400000000052650000000005102000000000518200000000052330000000005219000000000523305678000000000001043100000000005406103200000000000000009999123100000010000000000000BRUGPAACNOR8132
012014021202UGPA3       010ULTRAPAR    ON      NM   R$  000000000523300000000052870000000005153000000000521000000000052000000000005196000000000520205105000000000000925200000000004820420300000000000000009999123100000010000000000000BRUGPAACNOR8132
012014021302UGPA3       010ULTRAPAR    ON      NM   R$  000000000522500000000052250000000005060000000000511400000000051510000000005144000000000515103512000000000000694100000000003550161000000000000000009999123100000010000000000000BRUGPAACNOR8132
012014021402UGPA3       010ULTRAPAR    ON      NM   R$  000000000516200000000052000000000005085000000000514400000000051590000000005131000000000515903296000000000000648000000000003333879100000000000000009999123100000010000000000000BRUGPAACNOR8132
012014021702UGPA3       010ULTRAPAR    ON      NM   R$  000000000515000000000052500000000005150000000000522700000000052460000000005246000000000524902279000000000000435700000000002277761600000000000000009999123100000010000000000000BRUGPAACNOR8132
012014021802UGPA3       010ULTRAPAR    ON      NM   R$  000000000523000000000052580000000005170000000000521000000000051860000000005181000000000518606146000000000001109800000000005782912900000000000000009999123100000010000000000000BRUGPAACNOR8132
012014021902UGPA3       010ULTRAPAR    ON      NM   R$  000000000517100000000052830000000005161000000000523800000000052830000000005251000000000528306824000000000001154000000000006045230100000000000000009999123100000010000000000000BRUGPAACNOR8132
012014022002UGPA3       010ULTRAPAR    ON      NM   R$  000000000524000000000052670000000005195000000000521500000000052000000000005200000000000521006404000000000001150000000000005998253100000000000000009999123100000010000000000000BRUGPAACNOR8132
012014022102UGPA3       010ULTRAPAR    ON      NM   R$  000000000520000000000053160000000005152000000000524900000000052700000000005270000000000527105020000000000000949100000000004982410500000000000000009999123100000010000000000000BRUGPAACNOR8132
012014022402UGPA3       010ULTRAPAR    ON      NM   R$  000000000526700000000052830000000005196000000000524500000000052660000000005260000000000526603871000000000000748700000000003927276000000000000000009999123100000010000000000000BRUGPAACNOR8132
012014022502UGPA3       010ULTRAPAR    ON      NM   R$  000000000523800000000052430000000005171000000000520100000000051910000000005191000000000519904079000000000000704400000000003663191200000000000000009999123100000010000000000000BRUGPAACNOR8132
012014022602UGPA3       010ULTRAPAR    ON      NM   R$  000000000524100000000052790000000005190000000000525500000000052600000000005255000000000526004271000000000000930400000000004889567800000000000000009999123100000010000000000000BRUGPAACNOR8132
012014022702UGPA3       010ULTRAPAR    ON  ED  NM   R$  000000000522500000000053300000000005198000000000528600000000053000000000005300000000000532405507000000000000885100000000004678859100000000000000009999123100000010000000000000BRUGPAACNOR8133
012014022802UGPA3       010ULTRAPAR    ON  ED  NM   R$  000000000530100000000053600000000005215000000000525500000000052150000000005215000000000522607863000000000001662900000000008739425300000000000000009999123100000010000000000000BRUGPAACNOR8133
012014030502UGPA3       010ULTRAPAR    ON  ED  NM   R$  000000000521500000000052150000000005140000000000516100000000051630000000005162000000000516305051000000000001020800000000005268159500000000000000009999123100000010000000000000BRUGPAACNOR8133
012014030602UGPA3       010ULTRAPAR    ON  ED  NM   R$  000000000517300000000052450000000005132000000000518500000000052250000000005225000000000522806326000000000001254400000000006505395400000000000000009999123100000010000000000000BRUGPAACNOR8133
012014030702UGPA3       010ULTRAPAR    ON  ED  NM   R$  000000000519400000000053300000000005179000000000523900000000052000000000005199000000000520006939000000000001290400000000006758916100000000000000009999123100000010000000000000BRUGPAACNOR8133
012014031002UGPA3       010ULTRAPAR    ON  ED  NM   R$  000000000517400000000052350000000005145000000000518400000000051910000000005190000000000519105457000000000001107600000000005741833700000000000000009999123100000010000000000000BRUGPAACNOR8133
012014031102UGPA3       010ULTRAPAR    ON  ED  NM   R$  000000000521300000000052450000000005115000000000517400000000051490000000005141000000000515005865000000000001129900000000005845322500000000000000009999123100000010000000000000BRUGPAACNOR8133
012014031202UGPA3       010ULTRAPAR    ON  ED  NM   R$  000000000513100000000051750000000005110000000000513400000000051350000000005132000000000513504179000000000000838200000000004303623600000000000000009999123100000010000000000000BRUGPAACNOR8133
012014031302UGPA3       010ULTRAPAR    ON      NM   R$  000000000519900000000051990000000005061000000000509400000000050610000000005061000000000506405950000000000001763700000000008985486400000000000000009999123100000010000000000000BRUGPAACNOR8133
012014031402UGPA3       010ULTRAPAR    ON      NM   R$  000000000506000000000050890000000005001000000000504700000000050050000000005005000000000500804665000000000001319500000000006659292400000000000000009999123100000010000000000000BRUGPAACNOR8133
012014031702UGPA3       010ULTRAPAR    ON      NM   R$  000000000501300000000051060000000005005000000000505500000000050540000000005045000000000505404546000000000000766300000000003873659400000000000000009999123100000010000000000000BRUGPAACNOR8133
012014031802UGPA3       010ULTRAPAR    ON      NM   R$  000000000507700000000051920000000005007000000000511700000000051920000000005192000000000519307079000000000001434000000000007338922400000000000000009999123100000010000000000000BRUGPAACNOR8133
012014031902UGPA3       010ULTRAPAR    ON      NM   R$  000000000516500000000053170000000005108000000000524500000000052650000000005265000000000528007231000000000001304800000000006843683300000000000000009999123100000010000000000000BRUGPAACNOR8133
012014032002UGPA3       010ULTRAPAR    ON      NM   R$  000000000521800000000053060000000005144000000000524600000000052600000000005253000000000526006921000000000001272300000000006674841200000000000000009999123100000010000000000000BRUGPAACNOR8133
012014032102UGPA3       010ULTRAPAR    ON      NM   R$  000000000520900000000053780000000005209000000000531900000000053020000000005302000000000533010391000000000003399400000000018081786000000000000000009999123100000010000000000000BRUGPAACNOR8133
012014032402UGPA3       010ULTRAPAR    ON      NM   R$  000000000535600000000054070000000005246000000000532600000000053250000000005315000000000532506073000000000000991600000000005281840700000000000000009999123100000010000000000000BRUGPAACNOR8133
012014032502UGPA3       010ULTRAPAR    ON      NM   R$  000000000537000000000054280000000005329000000000535900000000053560000000005354000000000535606157000000000001047100000000005611595900000000000000009999123100000010000000000000BRUGPAACNOR8133
012014032602UGPA3       010ULTRAPAR    ON      NM   R$  000000000541000000000054540000000005311000000000535600000000053400000000005338000000000534005818000000000001074900000000005757551600000000000000009999123100000010000000000000BRUGPAACNOR8133
012014032702UGPA3       010ULTRAPAR    ON      NM   R$  000000000538000000000055590000000005365000000000546300000000054500000000005449000000000546011956000000000002427900000000013265214000000000000000009999123100000010000000000000BRUGPAACNOR8133
012014032802UGPA3       010ULTRAPAR    ON      NM   R$  000000000550300000000055940000000005411000000000546100000000054720000000005440000000000547209215000000000001602100000000008749520300000000000000009999123100000010000000000000BRUGPAACNOR8133
012014033102UGPA3       010ULTRAPAR    ON      NM   R$  000000000549400000000055030000000005413000000000546200000000054910000000005455000000000549104581000000000001123300000000006135500400000000000000009999123100000010000000000000BRUGPAACNOR8133
012014040102UGPA3       010ULTRAPAR    ON      NM   R$  000000000550000000000055720000000005440000000000552100000000055660000000005540000000000556606186000000000001176400000000006496708500000000000000009999123100000010000000000000BRUGPAACNOR8133
012014040202UGPA3       010ULTRAPAR    ON      NM   R$  000000000556600000000057190000000005556000000000565100000000056700000000005661000000000567009696000000000001786600000000010096690900000000000000009999123100000010000000000000BRUGPAACNOR8133
012014040302UGPA3       010ULTRAPAR    ON      NM   R$  000000000568000000000057290000000005510000000000556400000000055400000000005540000000000554410903000000000001995300000000011102018500000000000000009999123100000010000000000000BRUGPAACNOR8133
012014040402UGPA3       010ULTRAPAR    ON      NM   R$  000000000560000000000056630000000005510000000000556800000000055610000000005561000000000556209119000000000002059400000000011467437100000000000000009999123100000010000000000000BRUGPAACNOR8133
012014040702UGPA3       010ULTRAPAR    ON      NM   R$  000000000564000000000056690000000005601000000000564000000000056450000000005641000000000564505982000000000001507700000000008504382900000000000000009999123100000010000000000000BRUGPAACNOR8133
012014040802UGPA3       010ULTRAPAR    ON      NM   R$  000000000566500000000056970000000005553000000000561700000000055800000000005579000000000558007607000000000001923700000000010806963000000000000000009999123100000010000000000000BRUGPAACNOR8133
012014040902UGPA3       010ULTRAPAR    ON      NM   R$  000000000555000000000056480000000005510000000000560000000000056200000000005607000000000562506191000000000001205100000000006748712600000000000000009999123100000010000000000000BRUGPAACNOR8133
012014041002UGPA3       010ULTRAPAR    ON      NM   R$  000000000561500000000057030000000005550000000000559900000000056370000000005610000000000563705114000000000000986100000000005522007700000000000000009999123100000010000000000000BRUGPAACNOR8133
012014041102UGPA3       010ULTRAPAR    ON      NM   R$  000000000560100000000057200000000005551000000000567300000000057200000000005697000000000572005509000000000001144100000000006491620400000000000000009999123100000010000000000000BRUGPAACNOR8133
012014041402UGPA3       010ULTRAPAR    ON      NM   R$  000000000571900000000057200000000005626000000000566700000000056700000000005660000000000567004989000000000000861500000000004882626300000000000000009999123100000010000000000000BRUGPAACNOR8133
012014041502UGPA3       010ULTRAPAR    ON      NM   R$  000000000561400000000056530000000005533000000000557400000000056040000000005588000000000560404668000000000000706700000000003939771200000000000000009999123100000010000000000000BRUGPAACNOR8133
012014041602UGPA3       010ULTRAPAR    ON      NM   R$  000000000564900000000056950000000005580000000000565100000000056950000000005675000000000569505712000000000000953500000000005388612000000000000000009999123100000010000000000000BRUGPAACNOR8133
012014041702UGPA3       010ULTRAPAR    ON      NM   R$  000000000570400000000057490000000005660000000000571100000000057300000000005724000000000573003340000000000000681300000000003891547000000000000000009999123100000010000000000000BRUGPAACNOR8133
012014042202UGPA3       010ULTRAPAR    ON      NM   R$  000000000569300000000057140000000005643000000000567700000000056760000000005670000000000567604818000000000000965100000000005479176600000000000000009999123100000010000000000000BRUGPAACNOR8133
012014042302UGPA3       010ULTRAPAR    ON      NM   R$  000000000564900000000057090000000005608000000000563500000000056350000000005625000000000563506681000000000001163200000000006555156800000000000000009999123100000010000000000000BRUGPAACNOR8133
012014042402UGPA3       010ULTRAPAR    ON      NM   R$  000000000563300000000056500000000005510000000000557600000000056100000000005610000000000561105117000000000000840600000000004687562900000000000000009999123100000010000000000000BRUGPAACNOR8133
012014042502UGPA3       010ULTRAPAR    ON      NM   R$  000000000557700000000056360000000005533000000000559200000000055970000000005594000000000559704199000000000000829100000000004636890900000000000000009999123100000010000000000000BRUGPAACNOR8133
012014042802UGPA3       010ULTRAPAR    ON      NM   R$  000000000556700000000056200000000005521000000000555400000000055580000000005554000000000555802980000000000000734600000000004080634100000000000000009999123100000010000000000000BRUGPAACNOR8133
012014042902UGPA3       010ULTRAPAR    ON      NM   R$  000000000557200000000056620000000005565000000000560600000000056000000000005600000000000560703994000000000000815500000000004572223200000000000000009999123100000010000000000000BRUGPAACNOR8133
012014043002UGPA3       010ULTRAPAR    ON      NM   R$  000000000557500000000056190000000005540000000000558400000000055980000000005553000000000559802624000000000000625100000000003491011700000000000000009999123100000010000000000000BRUGPAACNOR8133
012014050202UGPA3       010ULTRAPAR    ON      NM   R$  000000000558100000000057270000000005564000000000562100000000055910000000005591000000000559505718000000000001840700000000010348054200000000000000009999123100000010000000000000BRUGPAACNOR8133
012014050502UGPA3       010ULTRAPAR    ON      NM   R$  000000000568000000000057400000000005599000000000570300000000057340000000005708000000000573505629000000000001419400000000008096052100000000000000009999123100000010000000000000BRUGPAACNOR8133
012014050602UGPA3       010ULTRAPAR    ON      NM   R$  000000000573400000000058660000000005703000000000581100000000058400000000005818000000000584006166000000000001073500000000006238202400000000000000009999123100000010000000000000BRUGPAACNOR8133
012014050702UGPA3       010ULTRAPAR    ON      NM   R$  000000000584000000000058550000000005729000000000580400000000057780000000005776000000000578304934000000000000972300000000005644037200000000000000009999123100000010000000000000BRUGPAACNOR8133
012014050802UGPA3       010ULTRAPAR    ON      NM   R$  000000000578900000000058290000000005654000000000572400000000057000000000005677000000000570004191000000000000911400000000005217140900000000000000009999123100000010000000000000BRUGPAACNOR8133
012014050902UGPA3       010ULTRAPAR    ON      NM   R$  000000000573400000000057340000000005620000000000565400000000056640000000005638000000000566404290000000000000756200000000004276083000000000000000009999123100000010000000000000BRUGPAACNOR8133
012014051202UGPA3       010ULTRAPAR    ON      NM   R$  000000000570400000000057410000000005671000000000570800000000057260000000005707000000000573603536000000000000707200000000004037082800000000000000009999123100000010000000000000BRUGPAACNOR8133
012014051302UGPA3       010ULTRAPAR    ON      NM   R$  000000000569900000000057190000000005641000000000567000000000057080000000005674000000000570805489000000000001104900000000006265801000000000000000009999123100000010000000000000BRUGPAACNOR8133
012014051402UGPA3       010ULTRAPAR    ON      NM   R$  000000000569500000000058560000000005694000000000579900000000058000000000005794000000000580004801000000000001023400000000005935025500000000000000009999123100000010000000000000BRUGPAACNOR8133
012014051502UGPA3       010ULTRAPAR    ON      NM   R$  000000000582300000000058250000000005682000000000571300000000057380000000005735000000000573806921000000000001254300000000007166523800000000000000009999123100000010000000000000BRUGPAACNOR8133
012014051602UGPA3       010ULTRAPAR    ON      NM   R$  000000000571900000000057870000000005605000000000565500000000056100000000005608000000000561505718000000000001361300000000007699175300000000000000009999123100000010000000000000BRUGPAACNOR8133
012014051902UGPA3       010ULTRAPAR    ON      NM   R$  000000000561900000000056220000000005359000000000541500000000054000000000005382000000000540012308000000000002202600000000011927676000000000000000009999123100000010000000000000BRUGPAACNOR8133
012014052002UGPA3       010ULTRAPAR    ON      NM   R$  000000000540200000000054430000000005300000000000536900000000053400000000005333000000000534007498000000000001363300000000007320486000000000000000009999123100000010000000000000BRUGPAACNOR8133
012014052102UGPA3       010ULTRAPAR    ON      NM   R$  000000000534400000000053480000000005276000000000531600000000053480000000005335000000000534810694000000000001981400000000010534142000000000000000009999123100000010000000000000BRUGPAACNOR8133
012014052202UGPA3       010ULTRAPAR    ON      NM   R$  000000000535800000000054380000000005340000000000539000000000054250000000005402000000000542505374000000000001111100000000005989616200000000000000009999123100000010000000000000BRUGPAACNOR8133
012014052302UGPA3       010ULTRAPAR    ON      NM   R$  000000000543000000000054370000000005334000000000538600000000053870000000005382000000000538704538000000000000938100000000005053059300000000000000009999123100000010000000000000BRUGPAACNOR8133
012014052602UGPA3       010ULTRAPAR    ON      NM   R$  000000000543800000000054410000000005334000000000536100000000053980000000005398000000000539902906000000000000870800000000004669167900000000000000009999123100000010000000000000BRUGPAACNOR8133
012014052702UGPA3       010ULTRAPAR    ON      NM   R$  000000000540000000000054300000000005282000000000531000000000052940000000005294000000000529905017000000000001008700000000005356333600000000000000009999123100000010000000000000BRUGPAACNOR8133
012014052802UGPA3       010ULTRAPAR    ON      NM   R$  000000000531500000000053690000000005255000000000531300000000053200000000005320000000000532705446000000000000905500000000004811618200000000000000009999123100000010000000000000BRUGPAACNOR8133
012014052902UGPA3       010ULTRAPAR    ON      NM   R$  000000000532700000000053800000000005278000000000533400000000053800000000005327000000000538002898000000000000667100000000003558782700000000000000009999123100000010000000000000BRUGPAACNOR8133
012014053002UGPA3       010ULTRAPAR    ON      NM   R$  000000000533200000000054190000000005332000000000538800000000053850000000005385000000000540010228000000000003481300000000018757681400000000000000009999123100000010000000000000BRUGPAACNOR8133
012014060202UGPA3       010ULTRAPAR    ON      NM   R$  000000000543500000000054350000000005285000000000534300000000053650000000005358000000000536505427000000000001179600000000006302822600000000000000009999123100000010000000000000BRUGPAACNOR8133
012014060302UGPA3       010ULTRAPAR    ON      NM   R$  000000000533500000000054100000000005318000000000537900000000054100000000005380000000000541004626000000000000913000000000004911428300000000000000009999123100000010000000000000BRUGPAACNOR8133
012014060402UGPA3       010ULTRAPAR    ON      NM   R$  000000000537900000000053990000000005315000000000534800000000053490000000005336000000000535004405000000000000865700000000004630118900000000000000009999123100000010000000000000BRUGPAACNOR8133
012014060502UGPA3       010ULTRAPAR    ON      NM   R$  000000000535100000000053880000000005265000000000530600000000052740000000005274000000000528004805000000000000853600000000004529070100000000000000009999123100000010000000000000BRUGPAACNOR8133
012014060602UGPA3       010ULTRAPAR    ON      NM   R$  000000000536800000000054500000000005276000000000532600000000053320000000005332000000000533809232000000000001628700000000008676018700000000000000009999123100000010000000000000BRUGPAACNOR8133
012014060902UGPA3       010ULTRAPAR    ON      NM   R$  000000000533000000000054690000000005320000000000541300000000054360000000005436000000000544806382000000000001031600000000005584459200000000000000009999123100000010000000000000BRUGPAACNOR8133
012014061002UGPA3       010ULTRAPAR    ON      NM   R$  000000000543900000000054800000000005355000000000539000000000053910000000005381000000000539106197000000000001261800000000006802119200000000000000009999123100000010000000000000BRUGPAACNOR8133
012014061102UGPA3       010ULTRAPAR    ON      NM   R$  000000000545500000000054790000000005331000000000537700000000053310000000005331000000000534008139000000000001549000000000008329951000000000000000009999123100000010000000000000BRUGPAACNOR8133
012014061302UGPA3       010ULTRAPAR    ON      NM   R$  000000000536800000000053820000000005265000000000530300000000052720000000005272000000000528506636000000000001279500000000006785831300000000000000009999123100000010000000000000BRUGPAACNOR8133
012014061602UGPA3       010ULTRAPAR    ON      NM   R$  000000000527700000000053300000000005230000000000527300000000052680000000005250000000000526804474000000000000952600000000005023791800000000000000009999123100000010000000000000BRUGPAACNOR8133
012014061702UGPA3       010ULTRAPAR    ON      NM   R$  000000000526400000000052900000000005236000000000526500000000052840000000005272000000000528402668000000000000816600000000004299627000000000000000009999123100000010000000000000BRUGPAACNOR8133
012014061802UGPA3       010ULTRAPAR    ON      NM   R$  000000000528500000000053960000000005235000000000532800000000053960000000005370000000000539607260000000000001435000000000007646674400000000000000009999123100000010000000000000BRUGPAACNOR8133
012014062002UGPA3       010ULTRAPAR    ON      NM   R$  000000000534100000000054110000000005313000000000537500000000054040000000005368000000000540403396000000000000751700000000004040853300000000000000009999123100000010000000000000BRUGPAACNOR8133
012014062302UGPA3       010ULTRAPAR    ON      NM   R$  000000000537200000000054100000000005320000000000538300000000054100000000005401000000000541002887000000000000599900000000003229307700000000000000009999123100000010000000000000BRUGPAACNOR8133
012014062402UGPA3       010ULTRAPAR    ON      NM   R$  000000000540900000000054700000000005392000000000542100000000054000000000005399000000000540005173000000000001180100000000006397533500000000000000009999123100000010000000000000BRUGPAACNOR8133
012014062502UGPA3       010ULTRAPAR    ON      NM   R$  000000000539600000000054050000000005296000000000534400000000053410000000005341000000000534304185000000000000759500000000004059196400000000000000009999123100000010000000000000BRUGPAACNOR8133
012014062602UGPA3       010ULTRAPAR    ON      NM   R$  000000000536900000000053880000000005280000000000530100000000052900000000005281000000000529004517000000000000926400000000004911571200000000000000009999123100000010000000000000BRUGPAACNOR8133
012014062702UGPA3       010ULTRAPAR    ON      NM   R$  000000000528600000000053100000000005247000000000528000000000052930000000005293000000000530403977000000000000683700000000003610585200000000000000009999123100000010000000000000BRUGPAACNOR8133
012014063002UGPA3       010ULTRAPAR    ON      NM   R$  000000000530000000000053150000000005210000000000524600000000052600000000005235000000000526005577000000000001248800000000006551127200000000000000009999123100000010000000000000BRUGPAACNOR8133
012014070102UGPA3       010ULTRAPAR    ON      NM   R$  000000000524000000000052400000000005132000000000519200000000051800000000005175000000000518004581000000000001251500000000006498004600000000000000009999123100000010000000000000BRUGPAACNOR8133
012014070202UGPA3       010ULTRAPAR    ON      NM   R$  000000000515900000000051800000000005100000000000512200000000051100000000005110000000000511905283000000000001106400000000005667383500000000000000009999123100000010000000000000BRUGPAACNOR8133
012014070302UGPA3       010ULTRAPAR    ON      NM   R$  000000000509900000000051600000000005091000000000512800000000051400000000005120000000000514004781000000000001273400000000006530699100000000000000009999123100000010000000000000BRUGPAACNOR8133
012014070402UGPA3       010ULTRAPAR    ON      NM   R$  000000000513300000000052430000000005114000000000521400000000052400000000005237000000000524101472000000000000317500000000001655724800000000000000009999123100000010000000000000BRUGPAACNOR8133
012014070702UGPA3       010ULTRAPAR    ON      NM   R$  000000000520000000000052070000000005151000000000516400000000051860000000005165000000000518603281000000000001214300000000006271676600000000000000009999123100000010000000000000BRUGPAACNOR8133
012014070802UGPA3       010ULTRAPAR    ON      NM   R$  000000000517500000000052040000000005129000000000516100000000051710000000005160000000000517103358000000000000578400000000002985624600000000000000009999123100000010000000000000BRUGPAACNOR8133
012014071002UGPA3       010ULTRAPAR    ON      NM   R$  000000000519900000000052120000000005153000000000518700000000052120000000005196000000000521206333000000000001141100000000005919133900000000000000009999123100000010000000000000BRUGPAACNOR8133
012014071102UGPA3       010ULTRAPAR    ON      NM   R$  000000000521200000000052590000000005184000000000523100000000052340000000005234000000000524404435000000000000673300000000003522169300000000000000009999123100000010000000000000BRUGPAACNOR8133
012014071402UGPA3       010ULTRAPAR    ON      NM   R$  000000000528600000000053300000000005256000000000530200000000053000000000005299000000000530007587000000000001183200000000006273571400000000000000009999123100000010000000000000BRUGPAACNOR8133
012014071502UGPA3       010ULTRAPAR    ON      NM   R$  000000000530000000000053600000000005274000000000532600000000053600000000005338000000000536005109000000000000814300000000004337277300000000000000009999123100000010000000000000BRUGPAACNOR8133
012014071602UGPA3       010ULTRAPAR    ON      NM   R$  000000000537900000000053940000000005244000000000528700000000052750000000005260000000000527505419000000000000892800000000004720547500000000000000009999123100000010000000000000BRUGPAACNOR8133
012014071702UGPA3       010ULTRAPAR    ON      NM   R$  000000000526300000000053070000000005177000000000523400000000052500000000005240000000000526005487000000000000738400000000003865382400000000000000009999123100000010000000000000BRUGPAACNOR8133
012014071802UGPA3       010ULTRAPAR    ON      NM   R$  000000000535900000000053990000000005265000000000531800000000052650000000005265000000000527808816000000000001393400000000007410057600000000000000009999123100000010000000000000BRUGPAACNOR8133
012014072102UGPA3       010ULTRAPAR    ON      NM   R$  000000000528000000000054040000000005261000000000534900000000054040000000005381000000000540406218000000000000942400000000005041200500000000000000009999123100000010000000000000BRUGPAACNOR8133
012014072202UGPA3       010ULTRAPAR    ON      NM   R$  000000000540400000000054950000000005400000000000545100000000054480000000005427000000000544805436000000000000976600000000005324366800000000000000009999123100000010000000000000BRUGPAACNOR8133
012014072302UGPA3       010ULTRAPAR    ON      NM   R$  000000000540400000000054380000000005327000000000535000000000053400000000005340000000000535403489000000000000790500000000004229880100000000000000009999123100000010000000000000BRUGPAACNOR8133
012014072402UGPA3       010ULTRAPAR    ON      NM   R$  000000000534100000000054270000000005314000000000538500000000054200000000005396000000000542106329000000000001104500000000005948778000000000000000009999123100000010000000000000BRUGPAACNOR8133
012014072502UGPA3       010ULTRAPAR    ON      NM   R$  000000000538800000000054180000000005354000000000539000000000054000000000005382000000000540302870000000000000602800000000003249627100000000000000009999123100000010000000000000BRUGPAACNOR8133
012014072802UGPA3       010ULTRAPAR    ON      NM   R$  000000000543700000000054370000000005340000000000538800000000054140000000005375000000000541404237000000000000691700000000003727532300000000000000009999123100000010000000000000BRUGPAACNOR8133
012014072902UGPA3       010ULTRAPAR    ON      NM   R$  000000000541300000000054130000000005293000000000533900000000053620000000005324000000000536203040000000000000579200000000003092483000000000000000009999123100000010000000000000BRUGPAACNOR8133
012014073002UGPA3       010ULTRAPAR    ON      NM   R$  000000000539700000000053980000000005259000000000530000000000052690000000005269000000000527004167000000000000677700000000003592191100000000000000009999123100000010000000000000BRUGPAACNOR8133
012014073102UGPA3       010ULTRAPAR    ON      NM   R$  000000000523500000000052690000000005158000000000522000000000052250000000005215000000000522504814000000000001115900000000005825695900000000000000009999123100000010000000000000BRUGPAACNOR8133
012014080102UGPA3       010ULTRAPAR    ON      NM   R$  000000000524300000000052440000000005112000000000515200000000051360000000005136000000000514006076000000000001166400000000006010104900000000000000009999123100000010000000000000BRUGPAACNOR8133
012014080402UGPA3       010ULTRAPAR    ON      NM   R$  000000000514200000000052240000000005095000000000514500000000052240000000005200000000000522405627000000000000889800000000004578921800000000000000009999123100000010000000000000BRUGPAACNOR8133
012014080502UGPA3       010ULTRAPAR    ON      NM   R$  000000000520800000000052310000000005110000000000514400000000051100000000005110000000000511807168000000000001263200000000006498316400000000000000009999123100000010000000000000BRUGPAACNOR8133
012014080602UGPA3       010ULTRAPAR    ON      NM   R$  000000000511100000000051680000000005095000000000512700000000051410000000005140000000000515906689000000000001478900000000007583700700000000000000009999123100000010000000000000BRUGPAACNOR8133
012014080702UGPA3       010ULTRAPAR    ON      NM   R$  000000000519700000000053450000000005197000000000527300000000052650000000005265000000000526808459000000000002350500000000012396397100000000000000009999123100000010000000000000BRUGPAACNOR8133
012014080802UGPA3       010ULTRAPAR    ON      NM   R$  000000000526400000000053010000000005171000000000525400000000052850000000005266000000000528505332000000000001754100000000009217047800000000000000009999123100000010000000000000BRUGPAACNOR8133
012014081102UGPA3       010ULTRAPAR    ON      NM   R$  000000000534000000000054250000000005263000000000539200000000054000000000005395000000000540011442000000000003154900000000017013328400000000000000009999123100000010000000000000BRUGPAACNOR8133
012014081202UGPA3       010ULTRAPAR    ON      NM   R$  000000000536500000000055280000000005365000000000547000000000054960000000005496000000000550907127000000000001645500000000009002182600000000000000009999123100000010000000000000BRUGPAACNOR8133
012014081302UGPA3       010ULTRAPAR    ON      NM   R$  000000000553400000000055360000000005429000000000548300000000054800000000005463000000000548011004000000000001661200000000009109774200000000000000009999123100000010000000000000BRUGPAACNOR8133
012014081402UGPA3       010ULTRAPAR    ON  ED  NM   R$  000000000539800000000054790000000005382000000000543600000000054790000000005470000000000547905704000000000001246300000000006775737800000000000000009999123100000010000000000000BRUGPAACNOR8134
012014081502UGPA3       010ULTRAPAR    ON  ED  NM   R$  000000000553700000000055750000000005467000000000552300000000055750000000005551000000000557505517000000000001142000000000006308436400000000000000009999123100000010000000000000BRUGPAACNOR8134
012014081802UGPA3       010ULTRAPAR    ON  ED  NM   R$  000000000559000000000056500000000005521000000000556900000000055850000000005585000000000558705653000000000000987600000000005500784800000000000000009999123100000010000000000000BRUGPAACNOR8134
012014081902UGPA3       010ULTRAPAR    ON  ED  NM   R$  000000000557300000000056650000000005560000000000561400000000056650000000005637000000000566504611000000000001209500000000006791681700000000000000009999123100000010000000000000BRUGPAACNOR8134
012014082002UGPA3       010ULTRAPAR    ON  ED  NM   R$  000000000566400000000057000000000005633000000000566300000000056630000000005663000000000566505562000000000001460700000000008272534200000000000000009999123100000010000000000000BRUGPAACNOR8134
012014082102UGPA3       010ULTRAPAR    ON  ED  NM   R$  000000000566300000000057000000000005615000000000567000000000056830000000005662000000000568304469000000000000881700000000004999620000000000000000009999123100000010000000000000BRUGPAACNOR8134
012014082202UGPA3       010ULTRAPAR    ON  ED  NM   R$  000000000565200000000057120000000005624000000000566100000000056630000000005663000000000566504476000000000000892000000000005050270400000000000000009999123100000010000000000000BRUGPAACNOR8134
012014082502UGPA3       010ULTRAPAR    ON  ED  NM   R$  000000000572000000000057780000000005679000000000574700000000057750000000005774000000000577505158000000000000990400000000005692126100000000000000009999123100000010000000000000BRUGPAACNOR8134
012014082602UGPA3       010ULTRAPAR    ON      NM   R$  000000000578100000000058140000000005660000000000570100000000056900000000005690000000000570507579000000000001621400000000009244225100000000000000009999123100000010000000000000BRUGPAACNOR8134
012014082702UGPA3       010ULTRAPAR    ON      NM   R$  000000000573500000000057350000000005640000000000566900000000056400000000005639000000000564910222000000000001887800000000010702992600000000000000009999123100000010000000000000BRUGPAACNOR8134
012014082802UGPA3       010ULTRAPAR    ON      NM   R$  000000000560600000000056950000000005567000000000561400000000055940000000005594000000000559707547000000000001566200000000008793958900000000000000009999123100000010000000000000BRUGPAACNOR8134
012014082902UGPA3       010ULTRAPAR    ON      NM   R$  000000000564700000000057720000000005617000000000574200000000057690000000005742000000000576907846000000000002669600000000015330378000000000000000009999123100000010000000000000BRUGPAACNOR8134
012014090102UGPA3       010ULTRAPAR    ON      NM   R$  000000000582900000000058380000000005522000000000567100000000056060000000005606000000000563105594000000000001174200000000006658847600000000000000009999123100000010000000000000BRUGPAACNOR8134
012014090202UGPA3       010ULTRAPAR    ON      NM   R$  000000000562800000000056600000000005533000000000560000000000055840000000005581000000000558405919000000000000982300000000005500908500000000000000009999123100000010000000000000BRUGPAACNOR8134
012014090302UGPA3       010ULTRAPAR    ON      NM   R$  000000000560000000000057000000000005600000000000566500000000056760000000005676000000000568006787000000000001480500000000008388538700000000000000009999123100000010000000000000BRUGPAACNOR8134
012014090402UGPA3       010ULTRAPAR    ON      NM   R$  000000000561100000000057250000000005611000000000569400000000057000000000005696000000000570006228000000000001480900000000008432599700000000000000009999123100000010000000000000BRUGPAACNOR8134
012014090502UGPA3       010ULTRAPAR    ON      NM   R$  000000000572200000000057500000000005661000000000570500000000057000000000005700000000000571105477000000000000868000000000004952346500000000000000009999123100000010000000000000BRUGPAACNOR8134
012014090802UGPA3       010ULTRAPAR    ON      NM   R$  000000000577000000000057700000000005593000000000567500000000056000000000005597000000000560008772000000000001455900000000008261957000000000000000009999123100000010000000000000BRUGPAACNOR8134
012014090902UGPA3       010ULTRAPAR    ON      NM   R$  000000000552000000000056580000000005511000000000557400000000056000000000005588000000000560005345000000000001033200000000005759468400000000000000009999123100000010000000000000BRUGPAACNOR8134
012014091002UGPA3       010ULTRAPAR    ON      NM   R$  000000000556200000000055920000000005495000000000554800000000055920000000005549000000000559205187000000000001009600000000005601797000000000000000009999123100000010000000000000BRUGPAACNOR8134
012014091102UGPA3       010ULTRAPAR    ON      NM   R$  000000000564200000000056760000000005551000000000561200000000056250000000005625000000000562904352000000000000856800000000004808545000000000000000009999123100000010000000000000BRUGPAACNOR8134
012014091202UGPA3       010ULTRAPAR    ON      NM   R$  000000000552100000000055370000000005403000000000546000000000054500000000005450000000000546007903000000000001677500000000009159524100000000000000009999123100000010000000000000BRUGPAACNOR8134
012014091502UGPA3       010ULTRAPAR    ON      NM   R$  000000000545000000000055030000000005376000000000542900000000054550000000005455000000000547007603000000000001347400000000007315509900000000000000009999123100000010000000000000BRUGPAACNOR8134
012014091602UGPA3       010ULTRAPAR    ON      NM   R$  000000000545500000000056480000000005455000000000556600000000055560000000005556000000000556507988000000000001255200000000006986304800000000000000009999123100000010000000000000BRUGPAACNOR8134
012014091702UGPA3       010ULTRAPAR    ON      NM   R$  000000000558200000000055960000000005478000000000553700000000054780000000005478000000000548007555000000000001327000000000007347711200000000000000009999123100000010000000000000BRUGPAACNOR8134
012014091802UGPA3       010ULTRAPAR    ON      NM   R$  000000000542900000000054970000000005341000000000541600000000054000000000005399000000000540008670000000000001234000000000006683674000000000000000009999123100000010000000000000BRUGPAACNOR8134
012014091902UGPA3       010ULTRAPAR    ON      NM   R$  000000000537100000000054670000000005343000000000539200000000054070000000005406000000000540705164000000000001225700000000006609959800000000000000009999123100000010000000000000BRUGPAACNOR8134
012014092202UGPA3       010ULTRAPAR    ON      NM   R$  000000000530100000000053740000000005245000000000531400000000053270000000005320000000000532705865000000000001037300000000005512477000000000000000009999123100000010000000000000BRUGPAACNOR8134
012014092302UGPA3       010ULTRAPAR    ON      NM   R$  000000000529000000000053250000000005197000000000525600000000052650000000005265000000000526907192000000000001415100000000007438539700000000000000009999123100000010000000000000BRUGPAACNOR8134
012014092402UGPA3       010ULTRAPAR    ON      NM   R$  000000000523500000000053690000000005184000000000528200000000053180000000005310000000000531806739000000000001159100000000006123696200000000000000009999123100000010000000000000BRUGPAACNOR8134
012014092502UGPA3       010ULTRAPAR    ON      NM   R$  000000000526200000000053090000000005208000000000523600000000052270000000005223000000000522705417000000000001156700000000006056422300000000000000009999123100000010000000000000BRUGPAACNOR8134
012014092602UGPA3       010ULTRAPAR    ON      NM   R$  000000000524000000000053750000000005193000000000529200000000053390000000005307000000000533905683000000000001028200000000005442890500000000000000009999123100000010000000000000BRUGPAACNOR8134
012014092902UGPA3       010ULTRAPAR    ON      NM   R$  000000000522000000000052390000000005149000000000518600000000052000000000005200000000000520107404000000000001171600000000006076375000000000000000009999123100000010000000000000BRUGPAACNOR8134
012014093002UGPA3       010ULTRAPAR    ON      NM   R$  000000000515200000000052100000000005100000000000515000000000051810000000005172000000000519009192000000000002097300000000010801446600000000000000009999123100000010000000000000BRUGPAACNOR8134
012014100102UGPA3       010ULTRAPAR    ON      NM   R$  000000000511500000000051400000000004999000000000504500000000050250000000005021000000000502511609000000000001991500000000010047661700000000000000009999123100000010000000000000BRUGPAACNOR8134
012014100202UGPA3       010ULTRAPAR    ON      NM   R$  000000000500800000000050480000000004877000000000496000000000049790000000004979000000000498811480000000000002055900000000010197888700000000000000009999123100000010000000000000BRUGPAACNOR8134
012014100302UGPA3       010ULTRAPAR    ON      NM   R$  000000000500800000000050610000000004938000000000500600000000050610000000005046000000000506105574000000000001066200000000005339047700000000000000009999123100000010000000000000BRUGPAACNOR8134
012014100602UGPA3       010ULTRAPAR    ON      NM   R$  000000000530000000000054470000000005214000000000533100000000053510000000005351000000000536818851000000000002876100000000015334203500000000000000009999123100000010000000000000BRUGPAACNOR8134
012014100702UGPA3       010ULTRAPAR    ON      NM   R$  000000000543100000000054890000000005208000000000529200000000052370000000005233000000000523708952000000000001607500000000008507260200000000000000009999123100000010000000000000BRUGPAACNOR8134
012014100802UGPA3       010ULTRAPAR    ON      NM   R$  000000000531900000000053260000000005161000000000525800000000052710000000005271000000000529507678000000000001248700000000006566947600000000000000009999123100000010000000000000BRUGPAACNOR8134
012014100902UGPA3       010ULTRAPAR    ON      NM   R$  000000000537300000000054110000000005202000000000527000000000052390000000005229000000000523907318000000000001014100000000005344837600000000000000009999123100000010000000000000BRUGPAACNOR8134
012014101002UGPA3       010ULTRAPAR    ON      NM   R$  000000000512800000000052210000000005080000000000514600000000051200000000005116000000000512005359000000000000806200000000004148598600000000000000009999123100000010000000000000BRUGPAACNOR8134
012014101302UGPA3       010ULTRAPAR    ON      NM   R$  000000000524300000000052940000000005145000000000522400000000052000000000005200000000000521908077000000000001187700000000006204449200000000000000009999123100000010000000000000BRUGPAACNOR8134
012014101402UGPA3       010ULTRAPAR    ON      NM   R$  000000000518100000000052600000000005130000000000518700000000051500000000005150000000000515907409000000000001185800000000006150572400000000000000009999123100000010000000000000BRUGPAACNOR8134
012014101502UGPA3       010ULTRAPAR    ON      NM   R$  000000000506500000000051420000000004912000000000498400000000050000000000005000000000000500812132000000000002122000000000010577666300000000000000009999123100000010000000000000BRUGPAACNOR8134
012014101602UGPA3       010ULTRAPAR    ON      NM   R$  000000000490500000000050300000000004866000000000496000000000049520000000004952000000000495910749000000000002236300000000011092030000000000000000009999123100000010000000000000BRUGPAACNOR8134
012014101702UGPA3       010ULTRAPAR    ON      NM   R$  000000000505000000000051820000000004985000000000513700000000051800000000005135000000000518007682000000000001581800000000008125906300000000000000009999123100000010000000000000BRUGPAACNOR8134
012014102002UGPA3       010ULTRAPAR    ON      NM   R$  000000000517200000000051720000000005001000000000504900000000050490000000005043000000000506005346000000000000858400000000004334557700000000000000009999123100000010000000000000BRUGPAACNOR8134
012014102102UGPA3       010ULTRAPAR    ON      NM   R$  000000000491100000000049990000000004850000000000490200000000048810000000004881000000000489012922000000000001973400000000009674688400000000000000009999123100000010000000000000BRUGPAACNOR8134
012014102202UGPA3       010ULTRAPAR    ON      NM   R$  000000000491200000000049900000000004870000000000495400000000049870000000004975000000000498705987000000000001163400000000005764183100000000000000009999123100000010000000000000BRUGPAACNOR8134
012014102302UGPA3       010ULTRAPAR    ON      NM   R$  000000000488800000000049160000000004756000000000482900000000048300000000004820000000000483011073000000000002001100000000009662934700000000000000009999123100000010000000000000BRUGPAACNOR8134
012014102402UGPA3       010ULTRAPAR    ON      NM   R$  000000000482900000000050900000000004745000000000494800000000049570000000004920000000000495709123000000000001680600000000008315776900000000000000009999123100000010000000000000BRUGPAACNOR8134
012014102702UGPA3       010ULTRAPAR    ON      NM   R$  000000000476000000000049530000000004570000000000476300000000049000000000004868000000000490025698000000000003768800000000017952549000000000000000009999123100000010000000000000BRUGPAACNOR8134
012014102802UGPA3       010ULTRAPAR    ON      NM   R$  000000000490200000000051690000000004902000000000505300000000051450000000005120000000000514510123000000000001940700000000009809566500000000000000009999123100000010000000000000BRUGPAACNOR8134
012014102902UGPA3       010ULTRAPAR    ON      NM   R$  000000000506900000000051070000000004972000000000502100000000049720000000004972000000000499807818000000000001406200000000007060332100000000000000009999123100000010000000000000BRUGPAACNOR8134
012014103002UGPA3       010ULTRAPAR    ON      NM   R$  000000000502700000000051300000000004993000000000507600000000051170000000005100000000000511705905000000000001090400000000005535455100000000000000009999123100000010000000000000BRUGPAACNOR8134
012014103102UGPA3       010ULTRAPAR    ON      NM   R$  000000000515000000000054050000000005080000000000527800000000054050000000005381000000000540508487000000000001847100000000009754047000000000000000009999123100000010000000000000BRUGPAACNOR8134
012014110302UGPA3       010ULTRAPAR    ON      NM   R$  000000000537200000000053720000000005150000000000524900000000052700000000005265000000000527106660000000000001400800000000007352552800000000000000009999123100000010000000000000BRUGPAACNOR8134
012014110402UGPA3       010ULTRAPAR    ON      NM   R$  000000000524400000000053690000000005157000000000525100000000052850000000005282000000000528509376000000000001636200000000008592197800000000000000009999123100000010000000000000BRUGPAACNOR8134
012014110502UGPA3       010ULTRAPAR    ON      NM   R$  000000000523000000000053520000000005167000000000525100000000053330000000005304000000000533308838000000000001546300000000008121011800000000000000009999123100000010000000000000BRUGPAACNOR8134
012014110602UGPA3       010ULTRAPAR    ON      NM   R$  000000000533000000000053300000000005050000000000512200000000050960000000005096000000000510011601000000000002095200000000010731418600000000000000009999123100000010000000000000BRUGPAACNOR8134
012014110702UGPA3       010ULTRAPAR    ON      NM   R$  000000000512200000000051500000000005008000000000511200000000051390000000005120000000000513905923000000000001295600000000006623883800000000000000009999123100000010000000000000BRUGPAACNOR8134
012014111002UGPA3       010ULTRAPAR    ON      NM   R$  000000000518000000000052380000000005130000000000518800000000051690000000005151000000000516904946000000000001499700000000007779879700000000000000009999123100000010000000000000BRUGPAACNOR8134
012014111102UGPA3       010ULTRAPAR    ON      NM   R$  000000000511500000000052200000000005090000000000517500000000051800000000005171000000000518004978000000000001197900000000006199878600000000000000009999123100000010000000000000BRUGPAACNOR8134
012014111202UGPA3       010ULTRAPAR    ON      NM   R$  000000000512400000000053480000000005124000000000525200000000052650000000005265000000000527806234000000000001599900000000008403028500000000000000009999123100000010000000000000BRUGPAACNOR8134
012014111302UGPA3       010ULTRAPAR    ON      NM   R$  000000000523000000000053380000000005181000000000524700000000052000000000005200000000000521006546000000000001525200000000008003182900000000000000009999123100000010000000000000BRUGPAACNOR8134
012014111402UGPA3       010ULTRAPAR    ON      NM   R$  000000000517100000000052200000000005108000000000518000000000051930000000005184000000000519307510000000000001314600000000006810277700000000000000009999123100000010000000000000BRUGPAACNOR8134
012014111702UGPA3       010ULTRAPAR    ON      NM   R$  000000000519300000000052560000000005132000000000517900000000052100000000005202000000000521005706000000000000851700000000004411462500000000000000009999123100000010000000000000BRUGPAACNOR8134
012014111802UGPA3       010ULTRAPAR    ON      NM   R$  000000000521100000000053300000000005184000000000528600000000053220000000005295000000000532206181000000000000982800000000005195872000000000000000009999123100000010000000000000BRUGPAACNOR8134
012014111902UGPA3       010ULTRAPAR    ON      NM   R$  000000000528700000000054900000000005259000000000536600000000054000000000005361000000000540008327000000000001603100000000008604294400000000000000009999123100000010000000000000BRUGPAACNOR8134
012014112102UGPA3       010ULTRAPAR    ON      NM   R$  000000000543200000000056120000000005423000000000553800000000056000000000005585000000000560013925000000000002304200000000012765415000000000000000009999123100000010000000000000BRUGPAACNOR8134
012014112402UGPA3       010ULTRAPAR    ON      NM   R$  000000000568300000000056900000000005400000000000550100000000054000000000005400000000000541808977000000000001803000000000009919118500000000000000009999123100000010000000000000BRUGPAACNOR8134
012014112502UGPA3       010ULTRAPAR    ON      NM   R$  000000000544400000000055480000000005407000000000547300000000054860000000005481000000000548607164000000000001465100000000008019648100000000000000009999123100000010000000000000BRUGPAACNOR8134
012014112602UGPA3       010ULTRAPAR    ON      NM   R$  000000000550000000000055220000000005383000000000543400000000054280000000005427000000000542805753000000000001275800000000006927393400000000000000009999123100000010000000000000BRUGPAACNOR8134
012014112702UGPA3       010ULTRAPAR    ON      NM   R$  000000000541700000000055480000000005366000000000545300000000054330000000005412000000000543304133000000000000771600000000004204075600000000000000009999123100000010000000000000BRUGPAACNOR8134
012014112802UGPA3       010ULTRAPAR    ON      NM   R$  000000000543400000000055280000000005423000000000548700000000055050000000005505000000000551504297000000000000936000000000005135869900000000000000009999123100000010000000000000BRUGPAACNOR8134
012014120102UGPA3       010ULTRAPAR    ON      NM   R$  000000000542900000000054430000000005116000000000523200000000052000000000005200000000000520911073000000000002199600000000011509074000000000000000009999123100000010000000000000BRUGPAACNOR8134
012014120202UGPA3       010ULTRAPAR    ON      NM   R$  000000000520000000000052500000000005111000000000518200000000051500000000005150000000000515705567000000000000965500000000005003264700000000000000009999123100000010000000000000BRUGPAACNOR8134
012014120302UGPA3       010ULTRAPAR    ON      NM   R$  000000000514000000000052980000000005140000000000523500000000052340000000005234000000000525004828000000000000990200000000005183788100000000000000009999123100000010000000000000BRUGPAACNOR8134
012014120402UGPA3       010ULTRAPAR    ON      NM   R$  000000000527900000000052790000000005072000000000512600000000051290000000005129000000000513404800000000000000814600000000004176226200000000000000009999123100000010000000000000BRUGPAACNOR8134
012014120502UGPA3       010ULTRAPAR    ON      NM   R$  000000000510000000000051720000000005032000000000512100000000051700000000005155000000000517005145000000000001054400000000005400942600000000000000009999123100000010000000000000BRUGPAACNOR8134
012014120802UGPA3       010ULTRAPAR    ON      NM   R$  000000000514800000000051650000000004950000000000502300000000050280000000005011000000000502804976000000000000969400000000004868567700000000000000009999123100000010000000000000BRUGPAACNOR8134
012014120902UGPA3       010ULTRAPAR    ON      NM   R$  000000000500500000000050680000000004925000000000501400000000050640000000005038000000000506405424000000000001075200000000005392410700000000000000009999123100000010000000000000BRUGPAACNOR8134
012014121002UGPA3       010ULTRAPAR    ON      NM   R$  000000000504200000000050530000000004928000000000497500000000049730000000004973000000000498307145000000000001457800000000007252678200000000000000009999123100000010000000000000BRUGPAACNOR8134
012014121102UGPA3       010ULTRAPAR    ON      NM   R$  000000000497900000000050640000000004936000000000501500000000050600000000005040000000000506006227000000000001318600000000006613381600000000000000009999123100000010000000000000BRUGPAACNOR8134
012014121202UGPA3       010ULTRAPAR    ON      NM   R$  000000000500100000000050560000000004863000000000493000000000049240000000004902000000000492409209000000000001731100000000008534876500000000000000009999123100000010000000000000BRUGPAACNOR8134
012014121502UGPA3       010ULTRAPAR    ON      NM   R$  000000000497500000000049750000000004730000000000487800000000049390000000004930000000000493908531000000000001501000000000007323747000000000000000009999123100000010000000000000BRUGPAACNOR8134
012014121602UGPA3       010ULTRAPAR    ON      NM   R$  000000000479600000000050040000000004760000000000490400000000049100000000004910000000000491511161000000000001957200000000009599741900000000000000009999123100000010000000000000BRUGPAACNOR8134
012014121702UGPA3       010ULTRAPAR    ON      NM   R$  000000000486000000000051520000000004860000000000506400000000050880000000005088000000000510013765000000000002487600000000012599020200000000000000009999123100000010000000000000BRUGPAACNOR8134
012014121802UGPA3       010ULTRAPAR    ON      NM   R$  000000000512800000000051280000000005013000000000504400000000050400000000005027000000000504804335000000000000818900000000004130921700000000000000009999123100000010000000000000BRUGPAACNOR8134
012014121902UGPA3       010ULTRAPAR    ON      NM   R$  000000000502000000000050970000000005020000000000506600000000050670000000005067000000000507004916000000000001054200000000005341194100000000000000009999123100000010000000000000BRUGPAACNOR8134
012014122202UGPA3       010ULTRAPAR    ON      NM   R$  000000000507000000000052000000000005020000000000511600000000051900000000005171000000000519004717000000000000917100000000004693262100000000000000009999123100000010000000000000BRUGPAACNOR8134
012014122302UGPA3       010ULTRAPAR    ON      NM   R$  000000000516600000000052420000000005104000000000518300000000052300000000005213000000000523007159000000000001298300000000006730203100000000000000009999123100000010000000000000BRUGPAACNOR8134
012014122602UGPA3       010ULTRAPAR    ON      NM   R$  000000000520000000000052320000000005085000000000514800000000051400000000005133000000000514004933000000000000983900000000005065055200000000000000009999123100000010000000000000BRUGPAACNOR8134
012014122902UGPA3       010ULTRAPAR    ON      NM   R$  000000000512600000000053010000000005103000000000519700000000052440000000005190000000000524504340000000000000936200000000004865665000000000000000009999123100000010000000000000BRUGPAACNOR8134
012014123002UGPA3       010ULTRAPAR    ON      NM   R$  000000000523900000000052390000000005139000000000516300000000051450000000005145000000000514604582000000000001367100000000007058691600000000000000009999123100000010000000000000BRUGPAACNOR8134
012014010202WEGE3       010WEG         ON  EJ  NM   R$  000000000312400000000031320000000003035000000000306500000000030400000000003039000000000304001571000000000000252300000000000773490700000000000000009999123100000010000000000000BRWEGEACNOR0156
012014010302WEGE3       010WEG         ON      NM   R$  000000000304800000000030550000000003000000000000301600000000030000000000003000000000000300703456000000000000619800000000001869337900000000000000009999123100000010000000000000BRWEGEACNOR0156
012014010602WEGE3       010WEG         ON      NM   R$  000000000301000000000030740000000002988000000000303500000000030280000000003028000000000304002267000000000000405500000000001230930300000000000000009999123100000010000000000000BRWEGEACNOR0156
012014010702WEGE3       010WEG         ON      NM   R$  000000000300600000000030730000000003006000000000304000000000030260000000003026000000000304502927000000000000488900000000001486430500000000000000009999123100000010000000000000BRWEGEACNOR0156
012014010802WEGE3       010WEG         ON      NM   R$  000000000302300000000030490000000002962000000000299500000000029740000000002974000000000299002889000000000000642600000000001924784100000000000000009999123100000010000000000000BRWEGEACNOR0156
012014010902WEGE3       010WEG         ON      NM   R$  000000000298000000000029980000000002910000000000294300000000029200000000002920000000000292503024000000000000625000000000001839695900000000000000009999123100000010000000000000BRWEGEACNOR0156
012014011002WEGE3       010WEG         ON      NM   R$  000000000292700000000029750000000002887000000000293700000000029020000000002900000000000290202928000000000000523300000000001537173900000000000000009999123100000010000000000000BRWEGEACNOR0156
012014011302WEGE3       010WEG         ON      NM   R$  000000000288200000000029370000000002860000000000288200000000028600000000002860000000000287001688000000000000679100000000001957338700000000000000009999123100000010000000000000BRWEGEACNOR0156
012014011402WEGE3       010WEG         ON      NM   R$  000000000287000000000029200000000002851000000000290100000000029100000000002909000000000291002342000000000000423100000000001227713900000000000000009999123100000010000000000000BRWEGEACNOR0156
012014011502WEGE3       010WEG         ON      NM   R$  000000000293000000000029330000000002894000000000291200000000028940000000002893000000000289402351000000000000378900000000001103521900000000000000009999123100000010000000000000BRWEGEACNOR0156
012014011602WEGE3       010WEG         ON      NM   R$  000000000291700000000029390000000002900000000000291200000000029000000000002899000000000290001369000000000000340200000000000990604400000000000000009999123100000010000000000000BRWEGEACNOR0156
012014011702WEGE3       010WEG         ON      NM   R$  000000000290500000000029110000000002873000000000288700000000028750000000002874000000000287501886000000000000485800000000001402622300000000000000009999123100000010000000000000BRWEGEACNOR0156
012014012002WEGE3       010WEG         ON      NM   R$  000000000287000000000028870000000002831000000000285200000000028400000000002830000000000284000421000000000000132300000000000377411000000000000000009999123100000010000000000000BRWEGEACNOR0156
012014012102WEGE3       010WEG         ON      NM   R$  000000000283000000000028920000000002827000000000286400000000028270000000002827000000000284001699000000000000353100000000001011445500000000000000009999123100000010000000000000BRWEGEACNOR0156
012014012202WEGE3       010WEG         ON      NM   R$  000000000284300000000028760000000002815000000000283900000000028460000000002846000000000286101716000000000000594000000000001686745300000000000000009999123100000010000000000000BRWEGEACNOR0156
012014012302WEGE3       010WEG         ON      NM   R$  000000000285000000000028890000000002780000000000281800000000027800000000002780000000000280003380000000000000694300000000001956565300000000000000009999123100000010000000000000BRWEGEACNOR0156
012014012402WEGE3       010WEG         ON      NM   R$  000000000276800000000028500000000002765000000000282500000000028290000000002829000000000284202801000000000000723700000000002044567900000000000000009999123100000010000000000000BRWEGEACNOR0156
012014012702WEGE3       010WEG         ON      NM   R$  000000000282500000000028490000000002800000000000282100000000028100000000002805000000000281002244000000000000489600000000001381404100000000000000009999123100000010000000000000BRWEGEACNOR0156
012014012802WEGE3       010WEG         ON      NM   R$  000000000281800000000028360000000002796000000000280400000000028010000000002798000000000281100921000000000000262300000000000735591500000000000000009999123100000010000000000000BRWEGEACNOR0156
012014012902WEGE3       010WEG         ON      NM   R$  000000000280700000000028620000000002790000000000282200000000028130000000002801000000000281301508000000000000241400000000000681353600000000000000009999123100000010000000000000BRWEGEACNOR0156
012014013002WEGE3       010WEG         ON      NM   R$  000000000280000000000028140000000002750000000000276900000000027510000000002751000000000276101510000000000000344300000000000953467400000000000000009999123100000010000000000000BRWEGEACNOR0156
012014013102WEGE3       010WEG         ON      NM   R$  000000000275900000000027690000000002725000000000274400000000027400000000002732000000000274402522000000000000814600000000002235868900000000000000009999123100000010000000000000BRWEGEACNOR0156
012014020302WEGE3       010WEG         ON      NM   R$  000000000274000000000027520000000002720000000000273500000000027300000000002730000000000273401900000000000000500800000000001369738800000000000000009999123100000010000000000000BRWEGEACNOR0156
012014020402WEGE3       010WEG         ON      NM   R$  000000000274800000000027620000000002724000000000274600000000027430000000002743000000000275001426000000000000292400000000000803186600000000000000009999123100000010000000000000BRWEGEACNOR0156
012014020502WEGE3       010WEG         ON      NM   R$  000000000275200000000027520000000002678000000000271700000000027200000000002717000000000272201483000000000000298800000000000811968900000000000000009999123100000010000000000000BRWEGEACNOR0156
012014020602WEGE3       010WEG         ON      NM   R$  000000000274100000000027750000000002707000000000274500000000027750000000002755000000000277501976000000000000563100000000001546271800000000000000009999123100000010000000000000BRWEGEACNOR0156
012014020702WEGE3       010WEG         ON      NM   R$  000000000277900000000028010000000002715000000000274800000000027500000000002745000000000275001097000000000000440100000000001209477700000000000000009999123100000010000000000000BRWEGEACNOR0156
012014021002WEGE3       010WEG         ON      NM   R$  000000000275700000000027590000000002726000000000274100000000027480000000002748000000000275501387000000000000311500000000000853995400000000000000009999123100000010000000000000BRWEGEACNOR0156
012014021102WEGE3       010WEG         ON      NM   R$  000000000272700000000028150000000002727000000000277700000000028100000000002793000000000281001801000000000000519500000000001443064100000000000000009999123100000010000000000000BRWEGEACNOR0156
012014021202WEGE3       010WEG         ON      NM   R$  000000000280000000000029170000000002785000000000286700000000028700000000002870000000000288502944000000000000785300000000002251647200000000000000009999123100000010000000000000BRWEGEACNOR0156
012014021302WEGE3       010WEG         ON      NM   R$  000000000284700000000029300000000002847000000000289000000000029000000000002900000000000291003077000000000000548500000000001585174000000000000000009999123100000010000000000000BRWEGEACNOR0156
012014021402WEGE3       010WEG         ON      NM   R$  000000000290000000000029740000000002900000000000294900000000029720000000002972000000000297403063000000000000806400000000002378506900000000000000009999123100000010000000000000BRWEGEACNOR0156
012014021702WEGE3       010WEG         ON      NM   R$  000000000297300000000030200000000002960000000000299200000000030200000000003006000000000302002680000000000000512400000000001533280200000000000000009999123100000010000000000000BRWEGEACNOR0156
012014021802WEGE3       010WEG         ON      NM   R$  000000000300000000000030130000000002960000000000297800000000029610000000002961000000000296602696000000000000654700000000001950250700000000000000009999123100000010000000000000BRWEGEACNOR0156
012014021902WEGE3       010WEG         ON      NM   R$  000000000295300000000029980000000002925000000000296100000000029790000000002965000000000297903246000000000000583500000000001728202200000000000000009999123100000010000000000000BRWEGEACNOR0156
012014022002WEGE3       010WEG         ON      NM   R$  000000000296300000000030300000000002944000000000300500000000029940000000002994000000000299502565000000000000479600000000001441302100000000000000009999123100000010000000000000BRWEGEACNOR0156
012014022102WEGE3       010WEG         ON      NM   R$  000000000296500000000030270000000002965000000000299600000000029950000000002995000000000300101714000000000000352700000000001057031100000000000000009999123100000010000000000000BRWEGEACNOR0156
012014022402WEGE3       010WEG         ON      NM   R$  000000000299200000000030090000000002962000000000297600000000029640000000002964000000000297501876000000000000354000000000001053684800000000000000009999123100000010000000000000BRWEGEACNOR0156
012014022502WEGE3       010WEG         ON      NM   R$  000000000295600000000029760000000002940000000000295200000000029400000000002940000000000296002116000000000000581800000000001717283700000000000000009999123100000010000000000000BRWEGEACNOR0156
012014022602WEGE3       010WEG         ON  ED  NM   R$  000000000293700000000030980000000002937000000000302200000000029910000000002988000000000299903464000000000000829000000000002505454500000000000000009999123100000010000000000000BRWEGEACNOR0157
012014022702WEGE3       010WEG         ON  ED  NM   R$  000000000300900000000030780000000002990000000000303300000000030090000000003008000000000301001450000000000000243700000000000739286300000000000000009999123100000010000000000000BRWEGEACNOR0157
012014022802WEGE3       010WEG         ON  ED  NM   R$  000000000299000000000030800000000002990000000000303800000000030590000000003057000000000305902233000000000000798200000000002425614200000000000000009999123100000010000000000000BRWEGEACNOR0157
012014030502WEGE3       010WEG         ON  ED  NM   R$  000000000305800000000030580000000003004000000000302600000000030300000000003025000000000303801107000000000000325300000000000984666800000000000000009999123100000010000000000000BRWEGEACNOR0157
012014030602WEGE3       010WEG         ON  ED  NM   R$  000000000304000000000030690000000003039000000000305200000000030520000000003050000000000305901417000000000000370000000000001129362000000000000000009999123100000010000000000000BRWEGEACNOR0157
012014030702WEGE3       010WEG         ON  ED  NM   R$  000000000303900000000030790000000002996000000000304600000000030280000000003020000000000302801274000000000001315100000000004006191200000000000000009999123100000010000000000000BRWEGEACNOR0157
012014031002WEGE3       010WEG         ON  ED  NM   R$  000000000303600000000030750000000002964000000000298800000000029880000000002987000000000300000997000000000000244400000000000730450000000000000000009999123100000010000000000000BRWEGEACNOR0157
012014031102WEGE3       010WEG         ON  ED  NM   R$  000000000298400000000030200000000002970000000000299500000000029930000000002979000000000299301556000000000000439600000000001316663800000000000000009999123100000010000000000000BRWEGEACNOR0157
012014031202WEGE3       010WEG         ON      NM   R$  000000000297700000000030200000000002975000000000300000000000030200000000003015000000000302002180000000000000897600000000002693028200000000000000009999123100000010000000000000BRWEGEACNOR0157
012014031302WEGE3       010WEG         ON      NM   R$  000000000300500000000030260000000002951000000000296900000000029510000000002950000000000296701969000000000000545100000000001618423500000000000000009999123100000010000000000000BRWEGEACNOR0157
012014031402WEGE3       010WEG         ON      NM   R$  000000000295300000000030100000000002951000000000299000000000030000000000002994000000000300501551000000000000468400000000001400675200000000000000009999123100000010000000000000BRWEGEACNOR0157
012014031702WEGE3       010WEG         ON      NM   R$  000000000299100000000031130000000002991000000000307700000000030880000000003082000000000308801688000000000000410300000000001262572400000000000000009999123100000010000000000000BRWEGEACNOR0157
012014031802WEGE3       010WEG         ON      NM   R$  000000000308900000000031800000000003089000000000314700000000031600000000003159000000000316002538000000000000574800000000001809462400000000000000009999123100000010000000000000BRWEGEACNOR0157
012014031902WEGE3       010WEG         ON      NM   R$  000000000314300000000031690000000003117000000000314300000000031540000000003150000000000315402646000000000000477800000000001502150100000000000000009999123100000010000000000000BRWEGEACNOR0157
012014032002WEGE3       010WEG         ON      NM   R$  000000000313600000000031700000000003094000000000314600000000031560000000003156000000000316401257000000000000380900000000001198601500000000000000009999123100000010000000000000BRWEGEACNOR0157
012014032102WEGE3       010WEG         ON      NM   R$  000000000313800000000031950000000003138000000000318400000000031950000000003181000000000319701775000000000000515200000000001640763000000000000000009999123100000010000000000000BRWEGEACNOR0157
012014032402WEGE3       010WEG         ON      NM   R$  000000000317200000000032150000000003172000000000319700000000031970000000003192000000000320101875000000000000527700000000001687417900000000000000009999123100000010000000000000BRWEGEACNOR0157
012014032502WEGE3       010WEG         ON      NM   R$  000000000318500000000032140000000003154000000000317400000000031700000000003166000000000317001506000000000000403900000000001282294500000000000000009999123100000010000000000000BRWEGEACNOR0157
012014032602WEGE3       010WEG         ON  EJ  NM   R$  000000000317500000000031940000000003106000000000315500000000031560000000003156000000000316501905000000000000379500000000001197543400000000000000009999123100000010000000000000BRWEGEACNOR0158
012014032702WEGE3       010WEG         ON  EJ  NM   R$  000000000315700000000031850000000003107000000000315900000000031600000000003157000000000316002499000000000000791600000000002500675700000000000000009999123100000010000000000000BRWEGEACNOR0158
012014032802WEGE3       010WEG         ON  EJ  NM   R$  000000000316000000000032000000000003154000000000317100000000031600000000003155000000000316002748000000000000917200000000002909248900000000000000009999123100000010000000000000BRWEGEACNOR0158
012014033102WEGE3       010WEG         ON  EJ  NM   R$  000000000315000000000031890000000003150000000000317100000000031700000000003166000000000317004000000000000000837000000000002654198200000000000000009999123100000010000000000000BRWEGEACNOR0158
012014040102WEGE3       010WEG         ON  EJ  NM   R$  000000000316700000000031770000000003161000000000317000000000031700000000003170000000000317606278000000000001082800000000003432918000000000000000009999123100000010000000000000BRWEGEACNOR0158
012014040202WEGE3       010WEG         ON  EJ  NM   R$  000000000317600000000032480000000003166000000000320800000000032260000000003210000000000322603352000000000000859700000000002758075500000000000000009999123100000010000000000000BRWEGEACNOR0158
012014040302WEGE3       010WEG         ON  EJ  NM   R$  000000000325700000000032840000000003206000000000323300000000032350000000003230000000000323502518000000000000482100000000001559051500000000000000009999123100000010000000000000BRWEGEACNOR0158
012014040402WEGE3       010WEG         ON  EJ  NM   R$  000000000324500000000033050000000003236000000000326900000000032600000000003260000000000327802115000000000000487900000000001595299500000000000000009999123100000010000000000000BRWEGEACNOR0158
012014040702WEGE3       010WEG         ON      NM   R$  000000000326700000000032830000000003191000000000321700000000032150000000003210000000000321502642000000000000639300000000002056791100000000000000009999123100000010000000000000BRWEGEACNOR0158
012014040802WEGE3       010WEG         ON      NM   R$  000000000323500000000032990000000003213000000000327000000000032680000000003242000000000326802448000000000000698000000000002282850700000000000000009999123100000010000000000000BRWEGEACNOR0158
012014040902WEGE3       010WEG         ON      NM   R$  000000000325000000000033210000000003236000000000328500000000033000000000003300000000000330502006000000000000425600000000001398296100000000000000009999123100000010000000000000BRWEGEACNOR0158
012014041002WEGE3       010WEG         ON      NM   R$  000000000330000000000033810000000003289000000000335000000000033700000000003356000000000337002314000000000000554000000000001856104100000000000000009999123100000010000000000000BRWEGEACNOR0158
012014041102WEGE3       010WEG         ON      NM   R$  000000000337600000000034300000000003333000000000339300000000034110000000003408000000000341101772000000000000420900000000001428763600000000000000009999123100000010000000000000BRWEGEACNOR0158
012014041402WEGE3       010WEG         ON      NM   R$  000000000341900000000034190000000003350000000000335500000000033500000000003350000000000336801852000000000000356100000000001195051200000000000000009999123100000010000000000000BRWEGEACNOR0158
012014041502WEGE3       010WEG         ON      NM   R$  000000000334500000000033730000000003305000000000333400000000033400000000003337000000000334002252000000000000391400000000001305212300000000000000009999123100000010000000000000BRWEGEACNOR0158
012014041602WEGE3       010WEG         ON      NM   R$  000000000337000000000034480000000003370000000000343200000000034480000000003442000000000344802803000000000000657000000000002254886300000000000000009999123100000010000000000000BRWEGEACNOR0158
012014041702WEGE3       010WEG         ON      NM   R$  000000000345000000000034990000000003450000000000348000000000034660000000003465000000000346603695000000000000528400000000001838977400000000000000009999123100000010000000000000BRWEGEACNOR0158
012014042202WEGE3       010WEG         ON      NM   R$  000000000345000000000034990000000003449000000000346800000000034490000000003449000000000348602190000000000000665500000000002307988400000000000000009999123100000010000000000000BRWEGEACNOR0158
012014042302WEGE3       010WEG         ON      NM   R$  000000000345000000000034710000000003416000000000344500000000034500000000003426000000000345002069000000000000541400000000001865648300000000000000009999123100000010000000000000BRWEGEACNOR0158
012014042402WEGE3       010WEG         ON  EB  NM   R$  000000000264500000000026850000000002584000000000260200000000025930000000002593000000000262003927000000000000803200000000002089970200000000000000009999123100000010000000000000BRWEGEACNOR0159
012014042502WEGE3       010WEG         ON  EB  NM   R$  000000000259100000000026610000000002530000000000259700000000026390000000002637000000000264004466000000000000819900000000002129888000000000000000009999123100000010000000000000BRWEGEACNOR0159
012014042802WEGE3       010WEG         ON  EB  NM   R$  000000000265000000000026770000000002618000000000266300000000026640000000002664000000000267001712000000000000336700000000000896748800000000000000009999123100000010000000000000BRWEGEACNOR0159
012014042902WEGE3       010WEG         ON  EB  NM   R$  000000000266500000000027040000000002660000000000267600000000026770000000002677000000000267902242000000000000941100000000002518971900000000000000009999123100000010000000000000BRWEGEACNOR0159
012014043002WEGE3       010WEG         ON  EB  NM   R$  000000000267000000000027020000000002665000000000268300000000026910000000002681000000000269101636000000000000777000000000002085404100000000000000009999123100000010000000000000BRWEGEACNOR0159
012014050202WEGE3       010WEG         ON  EB  NM   R$  000000000269800000000027460000000002685000000000271500000000026920000000002692000000000273502290000000000001015300000000002756445300000000000000009999123100000010000000000000BRWEGEACNOR0159
012014050502WEGE3       010WEG         ON  EB  NM   R$  000000000270500000000027300000000002653000000000267000000000026590000000002657000000000266103416000000000000902000000000002408492200000000000000009999123100000010000000000000BRWEGEACNOR0159
012014050602WEGE3       010WEG         ON  EB  NM   R$  000000000267000000000026850000000002645000000000266900000000026660000000002666000000000267702357000000000000389500000000001039738100000000000000009999123100000010000000000000BRWEGEACNOR0159
012014050702WEGE3       010WEG         ON      NM   R$  000000000267500000000026990000000002631000000000266300000000026870000000002687000000000269502382000000000000413600000000001101777200000000000000009999123100000010000000000000BRWEGEACNOR0159
012014050802WEGE3       010WEG         ON      NM   R$  000000000268600000000027820000000002686000000000274700000000027550000000002750000000000275602744000000000000530400000000001457433200000000000000009999123100000010000000000000BRWEGEACNOR0159
012014050902WEGE3       010WEG         ON      NM   R$  000000000276200000000027770000000002736000000000276200000000027630000000002763000000000276701646000000000000285000000000000787282800000000000000009999123100000010000000000000BRWEGEACNOR0159
012014051202WEGE3       010WEG         ON      NM   R$  000000000275600000000027760000000002756000000000276900000000027760000000002768000000000277601372000000000000285800000000000791620500000000000000009999123100000010000000000000BRWEGEACNOR0159
012014051302WEGE3       010WEG         ON      NM   R$  000000000277600000000027940000000002758000000000277900000000027800000000002774000000000278001701000000000000436400000000001212963200000000000000009999123100000010000000000000BRWEGEACNOR0159
012014051402WEGE3       010WEG         ON      NM   R$  000000000277500000000027750000000002750000000000276600000000027690000000002759000000000276901525000000000000623800000000001725803200000000000000009999123100000010000000000000BRWEGEACNOR0159
012014051502WEGE3       010WEG         ON      NM   R$  000000000277000000000027700000000002709000000000273900000000027420000000002742000000000274501767000000000000386700000000001059311800000000000000009999123100000010000000000000BRWEGEACNOR0159
012014051602WEGE3       010WEG         ON      NM   R$  000000000272700000000027610000000002718000000000273800000000027300000000002729000000000273002404000000000000692500000000001896489400000000000000009999123100000010000000000000BRWEGEACNOR0159
012014051902WEGE3       010WEG         ON      NM   R$  000000000274600000000027460000000002671000000000268600000000026850000000002685000000000269002333000000000000760700000000002043337700000000000000009999123100000010000000000000BRWEGEACNOR0159
012014052002WEGE3       010WEG         ON      NM   R$  000000000269000000000026900000000002652000000000267300000000026520000000002652000000000267002644000000000000476300000000001273140000000000000000009999123100000010000000000000BRWEGEACNOR0159
012014052102WEGE3       010WEG         ON      NM   R$  000000000266800000000026930000000002668000000000268400000000026850000000002681000000000268501581000000000000340100000000000913095400000000000000009999123100000010000000000000BRWEGEACNOR0159
012014052202WEGE3       010WEG         ON      NM   R$  000000000269000000000027170000000002662000000000268000000000026650000000002665000000000267002252000000000000613400000000001644301900000000000000009999123100000010000000000000BRWEGEACNOR0159
012014052302WEGE3       010WEG         ON      NM   R$  000000000266500000000026760000000002616000000000265000000000026160000000002616000000000263701500000000000000405400000000001074483700000000000000009999123100000010000000000000BRWEGEACNOR0159
012014052602WEGE3       010WEG         ON      NM   R$  000000000260300000000026400000000002598000000000262600000000026300000000002630000000000263101201000000000000226000000000000593582800000000000000009999123100000010000000000000BRWEGEACNOR0159
012014052702WEGE3       010WEG         ON      NM   R$  000000000264000000000026400000000002609000000000262200000000026300000000002621000000000263000951000000000000188900000000000495520700000000000000009999123100000010000000000000BRWEGEACNOR0159
012014052802WEGE3       010WEG         ON      NM   R$  000000000264100000000026650000000002604000000000264100000000026400000000002638000000000264001615000000000000349600000000000923566700000000000000009999123100000010000000000000BRWEGEACNOR0159
012014052902WEGE3       010WEG         ON      NM   R$  000000000264000000000026570000000002608000000000263600000000026080000000002608000000000262001817000000000000602300000000001588154400000000000000009999123100000010000000000000BRWEGEACNOR0159
012014053002WEGE3       010WEG         ON      NM   R$  000000000261800000000026480000000002601000000000261900000000026010000000002601000000000263703225000000000000827700000000002168331800000000000000009999123100000010000000000000BRWEGEACNOR0159
012014060202WEGE3       010WEG         ON      NM   R$  000000000261000000000026460000000002599000000000262100000000026050000000002605000000000261601113000000000000240800000000000631152500000000000000009999123100000010000000000000BRWEGEACNOR0159
012014060302WEGE3       010WEG         ON      NM   R$  000000000260800000000026400000000002608000000000263800000000026400000000002639000000000264002394000000000000642700000000001695551600000000000000009999123100000010000000000000BRWEGEACNOR0159
012014060402WEGE3       010WEG         ON      NM   R$  000000000264100000000026930000000002617000000000265000000000026820000000002672000000000268202349000000000000933200000000002474334600000000000000009999123100000010000000000000BRWEGEACNOR0159
012014060502WEGE3       010WEG         ON      NM   R$  000000000269600000000026980000000002646000000000267900000000026890000000002687000000000269003010000000000000576000000000001543428200000000000000009999123100000010000000000000BRWEGEACNOR0159
012014060602WEGE3       010WEG         ON      NM   R$  000000000270500000000027490000000002700000000000272100000000027050000000002705000000000271601746000000000000372200000000001012979400000000000000009999123100000010000000000000BRWEGEACNOR0159
012014060902WEGE3       010WEG         ON      NM   R$  000000000271600000000028140000000002716000000000277800000000027800000000002765000000000278101681000000000000375800000000001044111700000000000000009999123100000010000000000000BRWEGEACNOR0159
012014061002WEGE3       010WEG         ON      NM   R$  000000000276400000000028650000000002754000000000282400000000028550000000002855000000000285603130000000000000846100000000002389929400000000000000009999123100000010000000000000BRWEGEACNOR0159
012014061102WEGE3       010WEG         ON      NM   R$  000000000286400000000028770000000002812000000000283600000000028300000000002830000000000283102416000000000000868100000000002462265700000000000000009999123100000010000000000000BRWEGEACNOR0159
012014061302WEGE3       010WEG         ON      NM   R$  000000000283000000000028540000000002785000000000283000000000028370000000002837000000000284002268000000000000544700000000001542054900000000000000009999123100000010000000000000BRWEGEACNOR0159
012014061602WEGE3       010WEG         ON      NM   R$  000000000282400000000028900000000002774000000000280900000000027770000000002777000000000279403331000000000000521400000000001464937800000000000000009999123100000010000000000000BRWEGEACNOR0159
012014061702WEGE3       010WEG         ON      NM   R$  000000000279100000000028160000000002758000000000279400000000027980000000002798000000000279900457000000000000120900000000000337831600000000000000009999123100000010000000000000BRWEGEACNOR0159
012014061802WEGE3       010WEG         ON      NM   R$  000000000281600000000028280000000002760000000000279400000000028190000000002812000000000281901576000000000000363000000000001014576900000000000000009999123100000010000000000000BRWEGEACNOR0159
012014062002WEGE3       010WEG         ON      NM   R$  000000000282000000000028320000000002780000000000280100000000027800000000002780000000000280001447000000000000469400000000001314796800000000000000009999123100000010000000000000BRWEGEACNOR0159
012014062302WEGE3       010WEG         ON      NM   R$  000000000278300000000027890000000002747000000000276900000000027840000000002773000000000278401253000000000000250500000000000693782700000000000000009999123100000010000000000000BRWEGEACNOR0159
012014062402WEGE3       010WEG         ON      NM   R$  000000000279500000000028430000000002782000000000281100000000028100000000002810000000000282302692000000000000515600000000001449719700000000000000009999123100000010000000000000BRWEGEACNOR0159
012014062502WEGE3       010WEG         ON  EJ  NM   R$  000000000281900000000028430000000002789000000000280400000000027890000000002789000000000281101832000000000000449100000000001259315500000000000000009999123100000010000000000000BRWEGEACNOR0160
012014062602WEGE3       010WEG         ON  EJ  NM   R$  000000000280500000000028380000000002800000000000281500000000028100000000002810000000000281101158000000000000307400000000000865375900000000000000009999123100000010000000000000BRWEGEACNOR0160
012014062702WEGE3       010WEG         ON  EJ  NM   R$  000000000282700000000028290000000002798000000000281000000000028000000000002800000000000281101019000000000000276800000000000778037700000000000000009999123100000010000000000000BRWEGEACNOR0160
012014063002WEGE3       010WEG         ON  EJ  NM   R$  000000000280500000000028290000000002758000000000281800000000028290000000002793000000000282901707000000000000741000000000002088164500000000000000009999123100000010000000000000BRWEGEACNOR0160
012014070102WEGE3       010WEG         ON  EJ  NM   R$  000000000283400000000028490000000002806000000000283100000000028350000000002827000000000283501154000000000000235800000000000667582800000000000000009999123100000010000000000000BRWEGEACNOR0160
012014070202WEGE3       010WEG         ON  EJ  NM   R$  000000000283900000000028390000000002790000000000280700000000028150000000002807000000000281501228000000000000286900000000000805507600000000000000009999123100000010000000000000BRWEGEACNOR0160
012014070302WEGE3       010WEG         ON  EJ  NM   R$  000000000282600000000028500000000002779000000000282600000000028500000000002835000000000285001178000000000000355700000000001005318700000000000000009999123100000010000000000000BRWEGEACNOR0160
012014070402WEGE3       010WEG         ON  EJ  NM   R$  000000000284300000000028430000000002808000000000282500000000028330000000002833000000000283900179000000000000054400000000000153698500000000000000009999123100000010000000000000BRWEGEACNOR0160
012014070702WEGE3       010WEG         ON      NM   R$  000000000282100000000028460000000002750000000000278700000000027600000000002760000000000276103395000000000001285600000000003583980200000000000000009999123100000010000000000000BRWEGEACNOR0160
012014070802WEGE3       010WEG         ON      NM   R$  000000000276500000000027710000000002677000000000269600000000026860000000002685000000000268802728000000000000848200000000002286984300000000000000009999123100000010000000000000BRWEGEACNOR0160
012014071002WEGE3       010WEG         ON      NM   R$  000000000268600000000027220000000002666000000000270000000000027000000000002693000000000270004074000000000000783900000000002116951000000000000000009999123100000010000000000000BRWEGEACNOR0160
012014071102WEGE3       010WEG         ON      NM   R$  000000000270000000000027770000000002691000000000273900000000027530000000002753000000000275803006000000000001460100000000004000498100000000000000009999123100000010000000000000BRWEGEACNOR0160
012014071402WEGE3       010WEG         ON      NM   R$  000000000275300000000028140000000002740000000000279300000000028000000000002800000000000281004169000000000000927600000000002591607100000000000000009999123100000010000000000000BRWEGEACNOR0160
012014071502WEGE3       010WEG         ON      NM   R$  000000000281000000000028100000000002715000000000274000000000027200000000002720000000000272603113000000000000571900000000001567269300000000000000009999123100000010000000000000BRWEGEACNOR0160
012014071602WEGE3       010WEG         ON      NM   R$  000000000273700000000027530000000002701000000000273200000000027150000000002712000000000271503106000000000000655300000000001790737100000000000000009999123100000010000000000000BRWEGEACNOR0160
012014071702WEGE3       010WEG         ON      NM   R$  000000000270500000000027800000000002700000000000273000000000027170000000002717000000000273203505000000000000535900000000001463081800000000000000009999123100000010000000000000BRWEGEACNOR0160
012014071802WEGE3       010WEG         ON      NM   R$  000000000271600000000027800000000002680000000000270800000000026800000000002678000000000268002866000000000000500600000000001356106700000000000000009999123100000010000000000000BRWEGEACNOR0160
012014072102WEGE3       010WEG         ON      NM   R$  000000000269100000000027880000000002680000000000274100000000027700000000002759000000000277003305000000000000747800000000002049823000000000000000009999123100000010000000000000BRWEGEACNOR0160
012014072202WEGE3       010WEG         ON      NM   R$  000000000276800000000028080000000002751000000000278400000000028020000000002773000000000280202046000000000000428700000000001193557300000000000000009999123100000010000000000000BRWEGEACNOR0160
012014072302WEGE3       010WEG         ON  ED  NM   R$  000000000278300000000028500000000002742000000000279500000000028250000000002825000000000283004513000000000001054400000000002947300800000000000000009999123100000010000000000000BRWEGEACNOR0161
012014072402WEGE3       010WEG         ON  ED  NM   R$  000000000282500000000028860000000002825000000000285600000000028280000000002828000000000285203274000000000001801600000000005145237700000000000000009999123100000010000000000000BRWEGEACNOR0161
012014072502WEGE3       010WEG         ON  ED  NM   R$  000000000282400000000028520000000002782000000000282100000000028000000000002791000000000280001331000000000000255300000000000720277100000000000000009999123100000010000000000000BRWEGEACNOR0161
012014072802WEGE3       010WEG         ON  ED  NM   R$  000000000279400000000028690000000002794000000000282900000000028450000000002842000000000284502694000000000001457100000000004123633700000000000000009999123100000010000000000000BRWEGEACNOR0161
012014072902WEGE3       010WEG         ON  ED  NM   R$  000000000284200000000028590000000002808000000000282100000000028080000000002807000000000280802208000000000000398700000000001124893400000000000000009999123100000010000000000000BRWEGEACNOR0161
012014073002WEGE3       010WEG         ON  ED  NM   R$  000000000281500000000028270000000002748000000000278400000000027480000000002748000000000277001689000000000000325100000000000905074600000000000000009999123100000010000000000000BRWEGEACNOR0161
012014073102WEGE3       010WEG         ON  ED  NM   R$  000000000274800000000027740000000002711000000000273000000000027200000000002720000000000275003096000000000000625700000000001708201500000000000000009999123100000010000000000000BRWEGEACNOR0161
012014080102WEGE3       010WEG         ON  ED  NM   R$  000000000273700000000027680000000002720000000000273200000000027270000000002722000000000272702316000000000000386200000000001055480200000000000000009999123100000010000000000000BRWEGEACNOR0161
012014080402WEGE3       010WEG         ON      NM   R$  000000000273300000000027470000000002697000000000272600000000027190000000002704000000000271902605000000000000509000000000001387768000000000000000009999123100000010000000000000BRWEGEACNOR0161
012014080502WEGE3       010WEG         ON      NM   R$  000000000272000000000028000000000002716000000000274700000000027600000000002760000000000277302152000000000000703600000000001933387000000000000000009999123100000010000000000000BRWEGEACNOR0161
012014080602WEGE3       010WEG         ON      NM   R$  000000000275300000000027800000000002702000000000274800000000027700000000002770000000000277602400000000000000541000000000001486770000000000000000009999123100000010000000000000BRWEGEACNOR0161
012014080702WEGE3       010WEG         ON      NM   R$  000000000275300000000027790000000002732000000000275000000000027320000000002732000000000275203394000000000000937100000000002577078800000000000000009999123100000010000000000000BRWEGEACNOR0161
012014080802WEGE3       010WEG         ON      NM   R$  000000000272800000000027380000000002666000000000271300000000026920000000002685000000000269201845000000000001388300000000003766950900000000000000009999123100000010000000000000BRWEGEACNOR0161
012014081102WEGE3       010WEG         ON      NM   R$  000000000272000000000027380000000002695000000000270800000000027080000000002698000000000270802241000000000000505600000000001369396100000000000000009999123100000010000000000000BRWEGEACNOR0161
012014081202WEGE3       010WEG         ON      NM   R$  000000000271900000000027190000000002649000000000268000000000026490000000002649000000000265003210000000000001033700000000002770499600000000000000009999123100000010000000000000BRWEGEACNOR0161
012014081302WEGE3       010WEG         ON      NM   R$  000000000265100000000026650000000002594000000000262500000000026250000000002624000000000262905378000000000001038200000000002725690700000000000000009999123100000010000000000000BRWEGEACNOR0161
012014081402WEGE3       010WEG         ON      NM   R$  000000000261000000000026470000000002599000000000261000000000026050000000002604000000000261003578000000000001163800000000003037640400000000000000009999123100000010000000000000BRWEGEACNOR0161
012014081502WEGE3       010WEG         ON      NM   R$  000000000261300000000026710000000002605000000000263500000000026510000000002651000000000265502405000000000000485800000000001280464700000000000000009999123100000010000000000000BRWEGEACNOR0161
012014081802WEGE3       010WEG         ON      NM   R$  000000000266600000000027090000000002666000000000269000000000026980000000002698000000000270002198000000000000501800000000001350043100000000000000009999123100000010000000000000BRWEGEACNOR0161
012014081902WEGE3       010WEG         ON      NM   R$  000000000270300000000027100000000002659000000000267700000000026660000000002666000000000268701646000000000000345100000000000924135600000000000000009999123100000010000000000000BRWEGEACNOR0161
012014082002WEGE3       010WEG         ON      NM   R$  000000000268200000000026920000000002643000000000267300000000026820000000002662000000000268202256000000000000407700000000001090143200000000000000009999123100000010000000000000BRWEGEACNOR0161
012014082102WEGE3       010WEG         ON      NM   R$  000000000268900000000026890000000002651000000000266700000000026680000000002659000000000266802258000000000000732800000000001954490800000000000000009999123100000010000000000000BRWEGEACNOR0161
