012016010402UGPA3       010ULTRAPAR    ON      NM   R$  000000000588400000000059850000000005722000000000584000000000057500000000005750000000000575910871000000000002064700000000012057932800000000000000009999123100000010000000000000BRUGPAACNOR8136
012016010502UGPA3       010ULTRAPAR    ON      NM   R$  000000000578500000000059000000000005750000000000583400000000058820000000005856000000000588208624000000000001340200000000007819952800000000000000009999123100000010000000000000BRUGPAACNOR8136
012016010602UGPA3       010ULTRAPAR    ON      NM   R$  000000000576800000000058980000000005757000000000584100000000058400000000005840000000000585106378000000000001002300000000005855106600000000000000009999123100000010000000000000BRUGPAACNOR8136
012016010702UGPA3       010ULTRAPAR    ON      NM   R$  000000000573500000000057600000000005605000000000566800000000056050000000005605000000000563508890000000000001568600000000008890895600000000000000009999123100000010000000000000BRUGPAACNOR8136
012016010802UGPA3       010ULTRAPAR    ON      NM   R$  000000000562800000000057590000000005605000000000569500000000056950000000005695000000000570905646000000000002061100000000011738976300000000000000009999123100000010000000000000BRUGPAACNOR8136
012016011102UGPA3       010ULTRAPAR    ON      NM   R$  000000000570000000000058040000000005537000000000561300000000055450000000005545000000000555005829000000000001465900000000008228251300000000000000009999123100000010000000000000BRUGPAACNOR8136
012016011202UGPA3       010ULTRAPAR    ON      NM   R$  000000000552100000000056490000000005469000000000553800000000055840000000005550000000000558408628000000000001431600000000007929294400000000000000009999123100000010000000000000BRUGPAACNOR8136
012016011302UGPA3       010ULTRAPAR    ON      NM   R$  000000000562300000000056660000000005459000000000551100000000055010000000005501000000000550206258000000000001476500000000008138189300000000000000009999123100000010000000000000BRUGPAACNOR8136
012016011402UGPA3       010ULTRAPAR    ON      NM   R$  000000000555000000000056170000000005481000000000553600000000056170000000005574000000000561707615000000000001323300000000007326243500000000000000009999123100000010000000000000BRUGPAACNOR8136
012016011502UGPA3       010ULTRAPAR    ON      NM   R$  000000000553500000000055800000000005384000000000548700000000055800000000005520000000000558010337000000000002084300000000011436700000000000000000009999123100000010000000000000BRUGPAACNOR8136
012016011802UGPA3       010ULTRAPAR    ON      NM   R$  000000000558700000000055870000000005399000000000546800000000054350000000005435000000000543606288000000000001231700000000006735422900000000000000009999123100000010000000000000BRUGPAACNOR8136
012016011902UGPA3       010ULTRAPAR    ON      NM   R$  000000000555700000000055660000000005413000000000547300000000054700000000005470000000000547308641000000000001631300000000008928642700000000000000009999123100000010000000000000BRUGPAACNOR8136
012016012002UGPA3       010ULTRAPAR    ON      NM   R$  000000000540300000000055100000000005335000000000542000000000054780000000005456000000000547808988000000000001829600000000009917918700000000000000009999123100000010000000000000BRUGPAACNOR8136
012016012102UGPA3       010ULTRAPAR    ON      NM   R$  000000000542300000000055530000000005383000000000548000000000055140000000005514000000000553008959000000000001562900000000008565933100000000000000009999123100000010000000000000BRUGPAACNOR8136
012016012202UGPA3       010ULTRAPAR    ON      NM   R$  000000000553800000000057310000000005489000000000565800000000057280000000005726000000000572809273000000000002135500000000012083199900000000000000009999123100000010000000000000BRUGPAACNOR8136
012016012602UGPA3       010ULTRAPAR    ON      NM   R$  000000000567900000000056790000000005412000000000552100000000055360000000005536000000000554609788000000000001549500000000008555296800000000000000009999123100000010000000000000BRUGPAACNOR8136
012016012702UGPA3       010ULTRAPAR    ON      NM   R$  000000000554500000000057260000000005474000000000564700000000057170000000005689000000000571706922000000000001644700000000009288298500000000000000009999123100000010000000000000BRUGPAACNOR8136
012016012802UGPA3       010ULTRAPAR    ON      NM   R$  000000000577400000000058510000000005601000000000572000000000057640000000005728000000000576407234000000000001346100000000007700690700000000000000009999123100000010000000000000BRUGPAACNOR8136
012016012902UGPA3       010ULTRAPAR    ON      NM   R$  000000000580600000000059890000000005742000000000592800000000059380000000005918000000000593809945000000000002409400000000014283430900000000000000009999123100000010000000000000BRUGPAACNOR8136
012016020102UGPA3       010ULTRAPAR    ON      NM   R$  000000000589600000000059380000000005731000000000579000000000058480000000005847000000000584808586000000000001703800000000009865666900000000000000009999123100000010000000000000BRUGPAACNOR8136
012016020202UGPA3       010ULTRAPAR    ON      NM   R$  000000000575600000000058070000000005677000000000572600000000056770000000005677000000000569106307000000000001029200000000005893643700000000000000009999123100000010000000000000BRUGPAACNOR8136
012016020302UGPA3       010ULTRAPAR    ON      NM   R$  000000000574000000000057980000000005670000000000572000000000057490000000005728000000000574908001000000000001600100000000009153208100000000000000009999123100000010000000000000BRUGPAACNOR8136
012016020402UGPA3       010ULTRAPAR    ON      NM   R$  000000000582000000000059310000000005772000000000585000000000058300000000005811000000000583208003000000000001380800000000008078572600000000000000009999123100000010000000000000BRUGPAACNOR8136
012016020502UGPA3       010ULTRAPAR    ON      NM   R$  000000000585000000000059000000000005741000000000582900000000057800000000005775000000000578006173000000000001306400000000007615499100000000000000009999123100000010000000000000BRUGPAACNOR8136
012016021002UGPA3       010ULTRAPAR    ON      NM   R$  000000000576200000000057860000000005689000000000574100000000057680000000005767000000000576803814000000000000767200000000004405103200000000000000009999123100000010000000000000BRUGPAACNOR8136
012016021102UGPA3       010ULTRAPAR    ON      NM   R$  000000000570300000000057500000000005591000000000567100000000056990000000005693000000000569905509000000000000940600000000005334151400000000000000009999123100000010000000000000BRUGPAACNOR8136
012016021202UGPA3       010ULTRAPAR    ON      NM   R$  000000000572200000000058490000000005706000000000579700000000058490000000005842000000000584904482000000000001448500000000008397294800000000000000009999123100000010000000000000BRUGPAACNOR8136
012016021502UGPA3       010ULTRAPAR    ON      NM   R$  000000000589000000000059870000000005802000000000586100000000058350000000005834000000000583504222000000000000846000000000004958695800000000000000009999123100000010000000000000BRUGPAACNOR8136
012016021602UGPA3       010ULTRAPAR    ON      NM   R$  000000000583000000000059380000000005800000000000586600000000059100000000005909000000000591207494000000000001149600000000006744433600000000000000009999123100000010000000000000BRUGPAACNOR8136
012016021702UGPA3       010ULTRAPAR    ON      NM   R$  000000000591700000000060750000000005912000000000599800000000060100000000005998000000000601010161000000000001751200000000010504752800000000000000009999123100000010000000000000BRUGPAACNOR8136
012016021802UGPA3       010ULTRAPAR    ON      NM   R$  000000000623300000000062330000000006102000000000615800000000061900000000006190000000000619211064000000000001809500000000011144322500000000000000009999123100000010000000000000BRUGPAACNOR8136
012016021902UGPA3       010ULTRAPAR    ON      NM   R$  000000000617700000000061770000000006050000000000608900000000060840000000006084000000000610006064000000000001015600000000006184737500000000000000009999123100000010000000000000BRUGPAACNOR8136
012016022202UGPA3       010ULTRAPAR    ON      NM   R$  000000000621900000000062760000000006121000000000619800000000062240000000006208000000000622609792000000000001322800000000008200032700000000000000009999123100000010000000000000BRUGPAACNOR8136
012016022302UGPA3       010ULTRAPAR    ON      NM   R$  000000000616600000000062700000000006141000000000620300000000061940000000006152000000000619409503000000000001482800000000009198975000000000000000009999123100000010000000000000BRUGPAACNOR8136
012016022402UGPA3       010ULTRAPAR    ON      NM   R$  000000000607700000000062330000000006010000000000613700000000062320000000006206000000000623205493000000000001077400000000006612396500000000000000009999123100000010000000000000BRUGPAACNOR8136
012016022502UGPA3       010ULTRAPAR    ON  ED  NM   R$  000000000614000000000062000000000006030000000000611900000000061600000000006148000000000616106047000000000001044100000000006389409800000000000000009999123100000010000000000000BRUGPAACNOR8137
012016022602UGPA3       010ULTRAPAR    ON  ED  NM   R$  000000000621100000000062780000000006112000000000617100000000061550000000006155000000000616005512000000000001166500000000007199152700000000000000009999123100000010000000000000BRUGPAACNOR8137
012016022902UGPA3       010ULTRAPAR    ON  ED  NM   R$  000000000623800000000063110000000006171000000000625200000000062850000000006281000000000628910247000000000002025900000000012666110000000000000000009999123100000010000000000000BRUGPAACNOR8137
012016030102UGPA3       010ULTRAPAR    ON  ED  NM   R$  000000000631800000000064710000000006280000000000638500000000064000000000006375000000000640407729000000000001275500000000008145139900000000000000009999123100000010000000000000BRUGPAACNOR8137
012016030202UGPA3       010ULTRAPAR    ON  ED  NM   R$  000000000640000000000064970000000006364000000000643200000000064740000000006474000000000647608691000000000001728700000000011119998900000000000000009999123100000010000000000000BRUGPAACNOR8137
012016030302UGPA3       010ULTRAPAR    ON  ED  NM   R$  000000000654600000000065980000000006435000000000653500000000065340000000006534000000000658409806000000000001701700000000011121618700000000000000009999123100000010000000000000BRUGPAACNOR8137
012016030402UGPA3       010ULTRAPAR    ON  ED  NM   R$  000000000664100000000067090000000006530000000000660100000000066640000000006659000000000666419866000000000003449600000000022773126500000000000000009999123100000010000000000000BRUGPAACNOR8137
012016030702UGPA3       010ULTRAPAR    ON  ED  NM   R$  000000000673800000000067380000000006555000000000661300000000066450000000006641000000000664509050000000000001841600000000012180119300000000000000009999123100000010000000000000BRUGPAACNOR8137
012016030802UGPA3       010ULTRAPAR    ON      NM   R$  000000000664900000000067160000000006533000000000659000000000065870000000006584000000000658711680000000000002877600000000018964687500000000000000009999123100000010000000000000BRUGPAACNOR8137
012016030902UGPA3       010ULTRAPAR    ON      NM   R$  000000000665300000000066830000000006567000000000660300000000065790000000006579000000000659309093000000000001471200000000009715800900000000000000009999123100000010000000000000BRUGPAACNOR8137
012016031002UGPA3       010ULTRAPAR    ON      NM   R$  000000000665800000000066790000000006517000000000660500000000066790000000006650000000000667912894000000000002127300000000014052522100000000000000009999123100000010000000000000BRUGPAACNOR8137
012016031102UGPA3       010ULTRAPAR    ON      NM   R$  000000000665000000000067120000000006562000000000665400000000066770000000006667000000000667710033000000000002344900000000015604007600000000000000009999123100000010000000000000BRUGPAACNOR8137
012016031402UGPA3       010ULTRAPAR    ON      NM   R$  000000000665000000000067300000000006471000000000659000000000065910000000006591000000000663005586000000000001001600000000006601153900000000000000009999123100000010000000000000BRUGPAACNOR8137
012016031502UGPA3       010ULTRAPAR    ON      NM   R$  000000000653400000000066190000000006454000000000655700000000066190000000006578000000000662008112000000000001400000000000009180110100000000000000009999123100000010000000000000BRUGPAACNOR8137
012016031602UGPA3       010ULTRAPAR    ON      NM   R$  000000000661800000000066860000000006548000000000661000000000066350000000006622000000000663507710000000000001286400000000008503964300000000000000009999123100000010000000000000BRUGPAACNOR8137
012016031702UGPA3       010ULTRAPAR    ON      NM   R$  000000000687800000000069980000000006721000000000689500000000069360000000006936000000000698714162000000000002745600000000018933923400000000000000009999123100000010000000000000BRUGPAACNOR8137
012016031802UGPA3       010ULTRAPAR    ON      NM   R$  000000000699800000000070050000000006700000000000682100000000068200000000006808000000000682011364000000000002155100000000014700708100000000000000009999123100000010000000000000BRUGPAACNOR8137
012016032102UGPA3       010ULTRAPAR    ON      NM   R$  000000000686700000000069330000000006814000000000685700000000068450000000006836000000000688504783000000000001659400000000011379973800000000000000009999123100000010000000000000BRUGPAACNOR8137
012016032202UGPA3       010ULTRAPAR    ON      NM   R$  000000000685100000000069070000000006789000000000686500000000068920000000006890000000000689206241000000000001245700000000008552891200000000000000009999123100000010000000000000BRUGPAACNOR8137
012016032302UGPA3       010ULTRAPAR    ON      NM   R$  000000000689900000000069730000000006848000000000692500000000069670000000006961000000000697006463000000000001246300000000008631898500000000000000009999123100000010000000000000BRUGPAACNOR8137
012016032402UGPA3       010ULTRAPAR    ON      NM   R$  000000000695800000000069790000000006859000000000692600000000069720000000006937000000000697204359000000000000840900000000005824417400000000000000009999123100000010000000000000BRUGPAACNOR8137
012016032802UGPA3       010ULTRAPAR    ON      NM   R$  000000000700300000000070300000000006933000000000698900000000069780000000006978000000000700904219000000000000820600000000005735674100000000000000009999123100000010000000000000BRUGPAACNOR8137
012016032902UGPA3       010ULTRAPAR    ON      NM   R$  000000000701200000000071060000000006977000000000703500000000070900000000007090000000000709307543000000000001295100000000009112510600000000000000009999123100000010000000000000BRUGPAACNOR8137
012016033002UGPA3       010ULTRAPAR    ON      NM   R$  000000000714000000000072140000000007069000000000714000000000071000000000007097000000000710008052000000000001267000000000009046712500000000000000009999123100000010000000000000BRUGPAACNOR8137
012016033102UGPA3       010ULTRAPAR    ON      NM   R$  000000000706500000000070900000000006918000000000697500000000069790000000006947000000000697906353000000000001976100000000013783372400000000000000009999123100000010000000000000BRUGPAACNOR8137
012016040102UGPA3       010ULTRAPAR    ON      NM   R$  000000000692800000000069720000000006865000000000692000000000069510000000006951000000000695805753000000000001094100000000007572164500000000000000009999123100000010000000000000BRUGPAACNOR8137
012016040402UGPA3       010ULTRAPAR    ON      NM   R$  000000000689900000000069220000000006712000000000679900000000068040000000006796000000000680405708000000000001103100000000007500652100000000000000009999123100000010000000000000BRUGPAACNOR8137
012016040502UGPA3       010ULTRAPAR    ON      NM   R$  000000000679500000000069540000000006750000000000688500000000069080000000006903000000000690807287000000000001537900000000010589217200000000000000009999123100000010000000000000BRUGPAACNOR8137
012016040602UGPA3       010ULTRAPAR    ON      NM   R$  000000000681900000000069960000000006804000000000690500000000069790000000006969000000000697905106000000000001916300000000013233077300000000000000009999123100000010000000000000BRUGPAACNOR8137
012016040702UGPA3       010ULTRAPAR    ON      NM   R$  000000000700000000000070990000000006953000000000703400000000070520000000007045000000000705204972000000000001262600000000008882159300000000000000009999123100000010000000000000BRUGPAACNOR8137
012016040802UGPA3       010ULTRAPAR    ON      NM   R$  000000000710000000000072450000000007099000000000717900000000071600000000007153000000000716306849000000000001864900000000013388498300000000000000009999123100000010000000000000BRUGPAACNOR8137
012016041102UGPA3       010ULTRAPAR    ON      NM   R$  000000000719600000000072270000000007053000000000709300000000070700000000007065000000000707304795000000000001955100000000013858536500000000000000009999123100000010000000000000BRUGPAACNOR8137
012016041202UGPA3       010ULTRAPAR    ON      NM   R$  000000000710300000000072300000000007102000000000717700000000071650000000007164000000000716506068000000000001369100000000009827196200000000000000009999123100000010000000000000BRUGPAACNOR8137
012016041302UGPA3       010ULTRAPAR    ON      NM   R$  000000000723000000000073110000000007197000000000723300000000071970000000007197000000000721407869000000000001435600000000010383639400000000000000009999123100000010000000000000BRUGPAACNOR8137
012016041402UGPA3       010ULTRAPAR    ON      NM   R$  000000000721600000000072840000000007183000000000722500000000072000000000007200000000000724006867000000000001080700000000007808339000000000000000009999123100000010000000000000BRUGPAACNOR8137
012016041502UGPA3       010ULTRAPAR    ON      NM   R$  000000000720900000000073000000000007200000000000726900000000072900000000007242000000000729006104000000000001146300000000008333246200000000000000009999123100000010000000000000BRUGPAACNOR8137
012016041802UGPA3       010ULTRAPAR    ON      NM   R$  000000000718200000000073720000000007149000000000731300000000073710000000007360000000000737106185000000000001481200000000010832880900000000000000009999123100000010000000000000BRUGPAACNOR8137
012016041902UGPA3       010ULTRAPAR    ON      NM   R$  000000000740000000000074160000000007337000000000735800000000073420000000007342000000000734406198000000000001392200000000010243968400000000000000009999123100000010000000000000BRUGPAACNOR8137
012016042002UGPA3       010ULTRAPAR    ON      NM   R$  000000000735000000000073500000000007141000000000721400000000072230000000007222000000000722308223000000000001378200000000009942716200000000000000009999123100000010000000000000BRUGPAACNOR8137
012016042202UGPA3       010ULTRAPAR    ON      NM   R$  000000000719800000000074000000000007160000000000729300000000073700000000007360000000000737010416000000000002194700000000016006202700000000000000009999123100000010000000000000BRUGPAACNOR8137
012016042502UGPA3       010ULTRAPAR    ON      NM   R$  000000000734700000000073560000000007246000000000730000000000073100000000007300000000000731103542000000000000781300000000005703561000000000000000009999123100000010000000000000BRUGPAACNOR8137
012016042602UGPA3       010ULTRAPAR    ON      NM   R$  000000000731500000000073450000000007171000000000722300000000072130000000007213000000000722706226000000000001156500000000008354345000000000000000009999123100000010000000000000BRUGPAACNOR8137
012016042702UGPA3       010ULTRAPAR    ON      NM   R$  000000000727700000000073010000000007150000000000721500000000072510000000007230000000000725108316000000000001756400000000012672825200000000000000009999123100000010000000000000BRUGPAACNOR8137
012016042802UGPA3       010ULTRAPAR    ON      NM   R$  000000000726000000000073680000000007232000000000729100000000073090000000007270000000000730905734000000000001196500000000008724721700000000000000009999123100000010000000000000BRUGPAACNOR8137
012016042902UGPA3       010ULTRAPAR    ON      NM   R$  000000000736000000000073680000000007190000000000723600000000072420000000007242000000000724505076000000000001218800000000008819989800000000000000009999123100000010000000000000BRUGPAACNOR8137
012016050202UGPA3       010ULTRAPAR    ON      NM   R$  000000000722300000000072780000000007092000000000716700000000071680000000007160000000000716805984000000000001230400000000008819271600000000000000009999123100000010000000000000BRUGPAACNOR8137
012016050302UGPA3       010ULTRAPAR    ON      NM   R$  000000000714200000000072100000000007081000000000714000000000071400000000007140000000000715003498000000000000751400000000005365388800000000000000009999123100000010000000000000BRUGPAACNOR8137
012016050402UGPA3       010ULTRAPAR    ON      NM   R$  000000000717000000000072210000000007099000000000717700000000072210000000007220000000000722104023000000000000647900000000004650607300000000000000009999123100000010000000000000BRUGPAACNOR8137
012016050502UGPA3       010ULTRAPAR    ON      NM   R$  000000000727500000000072760000000007163000000000720300000000071870000000007182000000000718703325000000000000547200000000003941420000000000000000009999123100000010000000000000BRUGPAACNOR8137
012016050602UGPA3       010ULTRAPAR    ON      NM   R$  000000000718600000000072680000000007122000000000717000000000071630000000007163000000000716503419000000000000666700000000004780596400000000000000009999123100000010000000000000BRUGPAACNOR8137
012016050902UGPA3       010ULTRAPAR    ON      NM   R$  000000000717000000000071950000000007036000000000712700000000071700000000007141000000000717005118000000000000749900000000005345031200000000000000009999123100000010000000000000BRUGPAACNOR8137
012016051002UGPA3       010ULTRAPAR    ON      NM   R$  000000000722900000000072770000000007162000000000723500000000072770000000007276000000000727705932000000000001451900000000010505565900000000000000009999123100000010000000000000BRUGPAACNOR8137
012016051102UGPA3       010ULTRAPAR    ON      NM   R$  000000000740000000000074000000000007204000000000726900000000072800000000007280000000000729006832000000000001172700000000008525089200000000000000009999123100000010000000000000BRUGPAACNOR8137
012016051202UGPA3       010ULTRAPAR    ON      NM   R$  000000000735700000000073570000000007111000000000724600000000072750000000007275000000000727808830000000000001297500000000009402259500000000000000009999123100000010000000000000BRUGPAACNOR8137
012016051302UGPA3       010ULTRAPAR    ON      NM   R$  000000000731000000000073100000000006971000000000707500000000071000000000007098000000000710010532000000000001667400000000011797462200000000000000009999123100000010000000000000BRUGPAACNOR8137
012016051602UGPA3       010ULTRAPAR    ON      NM   R$  000000000707700000000071790000000007034000000000714400000000071550000000007152000000000715503582000000000000648600000000004633749700000000000000009999123100000010000000000000BRUGPAACNOR8137
012016051702UGPA3       010ULTRAPAR    ON      NM   R$  000000000717000000000072320000000007029000000000711000000000071300000000007126000000000713106133000000000000957000000000006804426100000000000000009999123100000010000000000000BRUGPAACNOR8137
012016051802UGPA3       010ULTRAPAR    ON      NM   R$  000000000709800000000071250000000006906000000000698300000000069530000000006953000000000696708631000000000001535300000000010721767700000000000000009999123100000010000000000000BRUGPAACNOR8137
012016051902UGPA3       010ULTRAPAR    ON      NM   R$  000000000694400000000070270000000006868000000000695000000000069950000000006981000000000700604121000000000000967500000000006724978600000000000000009999123100000010000000000000BRUGPAACNOR8137
012016052002UGPA3       010ULTRAPAR    ON      NM   R$  000000000706500000000071730000000006975000000000705700000000070300000000007030000000000703306893000000000001382000000000009753869600000000000000009999123100000010000000000000BRUGPAACNOR8137
012016052302UGPA3       010ULTRAPAR    ON      NM   R$  000000000698400000000070660000000006908000000000700400000000070600000000007023000000000706006035000000000001230400000000008617927100000000000000009999123100000010000000000000BRUGPAACNOR8137
012016052402UGPA3       010ULTRAPAR    ON      NM   R$  000000000709300000000070950000000007004000000000705100000000070560000000007056000000000706104153000000000000947000000000006677951000000000000000009999123100000010000000000000BRUGPAACNOR8137
012016052502UGPA3       010ULTRAPAR    ON      NM   R$  000000000708800000000071590000000007034000000000707800000000070340000000007034000000000706504272000000000000697300000000004935909100000000000000009999123100000010000000000000BRUGPAACNOR8137
012016052702UGPA3       010ULTRAPAR    ON      NM   R$  000000000708000000000071000000000006975000000000702300000000070570000000007032000000000705704874000000000000772800000000005428110600000000000000009999123100000010000000000000BRUGPAACNOR8137
012016053002UGPA3       010ULTRAPAR    ON      NM   R$  000000000702800000000070510000000006943000000000700800000000070200000000007013000000000702001467000000000000305800000000002143096200000000000000009999123100000010000000000000BRUGPAACNOR8137
012016053102UGPA3       010ULTRAPAR    ON      NM   R$  000000000699700000000069970000000006825000000000684900000000068250000000006825000000000682605706000000000001648000000000011288533700000000000000009999123100000010000000000000BRUGPAACNOR8137
012016060102UGPA3       010ULTRAPAR    ON      NM   R$  000000000686000000000068860000000006762000000000683200000000068470000000006847000000000686404981000000000001085400000000007415769700000000000000009999123100000010000000000000BRUGPAACNOR8137
012016060202UGPA3       010ULTRAPAR    ON      NM   R$  000000000682100000000069370000000006821000000000689300000000069250000000006901000000000692507093000000000001820200000000012548414400000000000000009999123100000010000000000000BRUGPAACNOR8137
012016060302UGPA3       010ULTRAPAR    ON      NM   R$  000000000697800000000069890000000006910000000000693600000000069310000000006931000000000693805171000000000000894200000000006202316400000000000000009999123100000010000000000000BRUGPAACNOR8137
012016060602UGPA3       010ULTRAPAR    ON      NM   R$  000000000696500000000069880000000006861000000000689900000000068900000000006890000000000690804001000000000000668200000000004610447500000000000000009999123100000010000000000000BRUGPAACNOR8137
012016060702UGPA3       010ULTRAPAR    ON      NM   R$  000000000687000000000068970000000006755000000000679200000000068000000000006785000000000680007338000000000001231200000000008363360100000000000000009999123100000010000000000000BRUGPAACNOR8137
012016060802UGPA3       010ULTRAPAR    ON      NM   R$  000000000683400000000068930000000006726000000000676700000000067260000000006726000000000673006478000000000001356900000000009182153000000000000000009999123100000010000000000000BRUGPAACNOR8137
012016060902UGPA3       010ULTRAPAR    ON      NM   R$  000000000671900000000067640000000006640000000000669100000000067000000000006700000000000672204624000000000001009500000000006754644600000000000000009999123100000010000000000000BRUGPAACNOR8137
012016061002UGPA3       010ULTRAPAR    ON      NM   R$  000000000666800000000066920000000006566000000000661000000000065950000000006590000000000659505007000000000001113700000000007361931300000000000000009999123100000010000000000000BRUGPAACNOR8137
012016061302UGPA3       010ULTRAPAR    ON      NM   R$  000000000692300000000069660000000006804000000000689900000000069190000000006919000000000692010489000000000002190300000000015112916400000000000000009999123100000010000000000000BRUGPAACNOR8137
012016061402UGPA3       010ULTRAPAR    ON      NM   R$  000000000691000000000069650000000006755000000000683100000000068100000000006808000000000681308403000000000001870300000000012776774500000000000000009999123100000010000000000000BRUGPAACNOR8137
012016061502UGPA3       010ULTRAPAR    ON      NM   R$  000000000679300000000069940000000006768000000000696100000000069840000000006980000000000698710341000000000002919700000000020325699700000000000000009999123100000010000000000000BRUGPAACNOR8137
012016061602UGPA3       010ULTRAPAR    ON      NM   R$  000000000699000000000070380000000006853000000000697800000000070380000000007000000000000703807897000000000001635200000000011411210400000000000000009999123100000010000000000000BRUGPAACNOR8137
012016061702UGPA3       010ULTRAPAR    ON      NM   R$  000000000710000000000071180000000006977000000000706300000000070800000000007080000000000708705304000000000001675200000000011833071600000000000000009999123100000010000000000000BRUGPAACNOR8137
012016062002UGPA3       010ULTRAPAR    ON      NM   R$  000000000717100000000072220000000007105000000000717900000000071830000000007180000000000718305812000000000001225100000000008795939900000000000000009999123100000010000000000000BRUGPAACNOR8137
012016062102UGPA3       010ULTRAPAR    ON      NM   R$  000000000720000000000073520000000007137000000000728500000000073390000000007275000000000733906590000000000001367500000000009963099800000000000000009999123100000010000000000000BRUGPAACNOR8137
012016062202UGPA3       010ULTRAPAR    ON      NM   R$  000000000730200000000073380000000007101000000000714900000000071010000000007101000000000711907424000000000001155500000000008260831200000000000000009999123100000010000000000000BRUGPAACNOR8137
012016062302UGPA3       010ULTRAPAR    ON      NM   R$  000000000718400000000072870000000007094000000000723100000000072600000000007246000000000726007088000000000001313600000000009499264300000000000000009999123100000010000000000000BRUGPAACNOR8137
012016062402UGPA3       010ULTRAPAR    ON      NM   R$  000000000718900000000071890000000007031000000000708600000000071400000000007087000000000714107550000000000001207000000000008553755500000000000000009999123100000010000000000000BRUGPAACNOR8137
012016062702UGPA3       010ULTRAPAR    ON      NM   R$  000000000716000000000071600000000006935000000000701700000000070060000000007004000000000700508338000000000001587700000000011140935200000000000000009999123100000010000000000000BRUGPAACNOR8137
012016062802UGPA3       010ULTRAPAR    ON      NM   R$  000000000709000000000071300000000006936000000000701300000000070090000000007007000000000700906655000000000001347500000000009450794300000000000000009999123100000010000000000000BRUGPAACNOR8137
012016062902UGPA3       010ULTRAPAR    ON      NM   R$  000000000708900000000071200000000007029000000000707800000000070910000000007070000000000709108040000000000002372700000000016796278900000000000000009999123100000010000000000000BRUGPAACNOR8137
012016063002UGPA3       010ULTRAPAR    ON      NM   R$  000000000706200000000071110000000006963000000000706900000000071110000000007100000000000711406103000000000001601900000000011325544300000000000000009999123100000010000000000000BRUGPAACNOR8137
012016070102UGPA3       010ULTRAPAR    ON      NM   R$  000000000715800000000071820000000006916000000000698500000000069710000000006971000000000697910541000000000002118000000000014795481300000000000000009999123100000010000000000000BRUGPAACNOR8137
012016070402UGPA3       010ULTRAPAR    ON      NM   R$  000000000703500000000070350000000006900000000000692800000000069050000000006905000000000691004983000000000001016100000000007039911100000000000000009999123100000010000000000000BRUGPAACNOR8137
012016070502UGPA3       010ULTRAPAR    ON      NM   R$  000000000690000000000069480000000006830000000000689200000000069390000000006921000000000693906965000000000001704000000000011744469800000000000000009999123100000010000000000000BRUGPAACNOR8137
012016070602UGPA3       010ULTRAPAR    ON      NM   R$  000000000692900000000069590000000006854000000000690200000000069160000000006909000000000692703131000000000000596900000000004120165800000000000000009999123100000010000000000000BRUGPAACNOR8137
012016070702UGPA3       010ULTRAPAR    ON      NM   R$  000000000694800000000070500000000006883000000000696500000000069720000000006936000000000697206018000000000001735500000000012088979200000000000000009999123100000010000000000000BRUGPAACNOR8137
012016070802UGPA3       010ULTRAPAR    ON      NM   R$  000000000700700000000070900000000006958000000000704600000000070750000000007075000000000708005402000000000000908500000000006402058900000000000000009999123100000010000000000000BRUGPAACNOR8137
012016071102UGPA3       010ULTRAPAR    ON      NM   R$  000000000713400000000071430000000007061000000000710100000000071310000000007127000000000713305329000000000000936100000000006647333300000000000000009999123100000010000000000000BRUGPAACNOR8137
012016071202UGPA3       010ULTRAPAR    ON      NM   R$  000000000718500000000071850000000007065000000000713000000000071450000000007110000000000714607551000000000001039200000000007409829800000000000000009999123100000010000000000000BRUGPAACNOR8137
012016071302UGPA3       010ULTRAPAR    ON      NM   R$  000000000713800000000071380000000006892000000000696100000000069900000000006983000000000699011038000000000001734900000000012076921700000000000000009999123100000010000000000000BRUGPAACNOR8137
012016071402UGPA3       010ULTRAPAR    ON      NM   R$  000000000705300000000071740000000007021000000000709400000000071130000000007113000000000714808142000000000001830700000000012988576400000000000000009999123100000010000000000000BRUGPAACNOR8137
012016071502UGPA3       010ULTRAPAR    ON      NM   R$  000000000712400000000071650000000007026000000000711800000000071280000000007123000000000713006327000000000001104300000000007861133300000000000000009999123100000010000000000000BRUGPAACNOR8137
012016071802UGPA3       010ULTRAPAR    ON      NM   R$  000000000714000000000072260000000007052000000000718700000000072250000000007221000000000722504724000000000001054500000000007579100500000000000000009999123100000010000000000000BRUGPAACNOR8137
012016071902UGPA3       010ULTRAPAR    ON      NM   R$  000000000720000000000072700000000007165000000000723100000000072700000000007257000000000727005575000000000001037100000000007500276100000000000000009999123100000010000000000000BRUGPAACNOR8137
012016072002UGPA3       010ULTRAPAR    ON      NM   R$  000000000729800000000073180000000007205000000000727700000000073060000000007302000000000730604793000000000000947300000000006894281000000000000000009999123100000010000000000000BRUGPAACNOR8137
012016072102UGPA3       010ULTRAPAR    ON      NM   R$  000000000730000000000073230000000007230000000000727200000000072830000000007283000000000728504480000000000000781200000000005681229900000000000000009999123100000010000000000000BRUGPAACNOR8137
012016072202UGPA3       010ULTRAPAR    ON      NM   R$  000000000728000000000073650000000007259000000000732200000000073200000000007312000000000733403703000000000000855400000000006264094700000000000000009999123100000010000000000000BRUGPAACNOR8137
012016072502UGPA3       010ULTRAPAR    ON      NM   R$  000000000730400000000073040000000007195000000000724500000000072800000000007236000000000728003482000000000000659600000000004779157800000000000000009999123100000010000000000000BRUGPAACNOR8137
012016072602UGPA3       010ULTRAPAR    ON      NM   R$  000000000729300000000072970000000007188000000000724300000000072400000000007240000000000726105752000000000001643900000000011908297100000000000000009999123100000010000000000000BRUGPAACNOR8137
012016072702UGPA3       010ULTRAPAR    ON      NM   R$  000000000727000000000073550000000007213000000000731000000000073320000000007318000000000733204039000000000000921900000000006739874200000000000000009999123100000010000000000000BRUGPAACNOR8137
012016072802UGPA3       010ULTRAPAR    ON      NM   R$  000000000730000000000073950000000007190000000000730300000000073770000000007354000000000737704819000000000000821100000000005996845300000000000000009999123100000010000000000000BRUGPAACNOR8137
012016072902UGPA3       010ULTRAPAR    ON      NM   R$  000000000733800000000074040000000007221000000000736100000000074040000000007400000000000740407477000000000001523700000000011217529700000000000000009999123100000010000000000000BRUGPAACNOR8137
012016080102UGPA3       010ULTRAPAR    ON      NM   R$  000000000740600000000074060000000007218000000000725600000000072320000000007232000000000725004592000000000000799900000000005804555700000000000000009999123100000010000000000000BRUGPAACNOR8137
012016080202UGPA3       010ULTRAPAR    ON      NM   R$  000000000717800000000072500000000007057000000000715600000000071980000000007180000000000720005587000000000000907600000000006495509400000000000000009999123100000010000000000000BRUGPAACNOR8137
012016080302UGPA3       010ULTRAPAR    ON      NM   R$  000000000717600000000072270000000007082000000000712400000000070950000000007094000000000709506925000000000001126500000000008025647300000000000000009999123100000010000000000000BRUGPAACNOR8137
012016080402UGPA3       010ULTRAPAR    ON      NM   R$  000000000713300000000072730000000007133000000000719100000000071700000000007166000000000720006483000000000002134000000000015346317700000000000000009999123100000010000000000000BRUGPAACNOR8137
012016080502UGPA3       010ULTRAPAR    ON      NM   R$  000000000721000000000073000000000007173000000000725600000000072940000000007247000000000729404567000000000001238500000000008987557000000000000000009999123100000010000000000000BRUGPAACNOR8137
012016080802UGPA3       010ULTRAPAR    ON      NM   R$  000000000729400000000074000000000007219000000000735900000000074000000000007398000000000740004719000000000000952300000000007008863700000000000000009999123100000010000000000000BRUGPAACNOR8137
012016080902UGPA3       010ULTRAPAR    ON      NM   R$  000000000744900000000074870000000007317000000000735200000000073420000000007334000000000735806298000000000000988900000000007270452800000000000000009999123100000010000000000000BRUGPAACNOR8137
012016081002UGPA3       010ULTRAPAR    ON      NM   R$  000000000739900000000073990000000007169000000000722200000000072370000000007236000000000723706193000000000001558800000000011258178800000000000000009999123100000010000000000000BRUGPAACNOR8137
012016081102UGPA3       010ULTRAPAR    ON      NM   R$  000000000739700000000075290000000007349000000000744100000000075200000000007506000000000752107677000000000001877300000000013969425100000000000000009999123100000010000000000000BRUGPAACNOR8137
012016081202UGPA3       010ULTRAPAR    ON      NM   R$  000000000756800000000076000000000007414000000000749700000000075420000000007497000000000754206598000000000001098900000000008239432200000000000000009999123100000010000000000000BRUGPAACNOR8137
012016081502UGPA3       010ULTRAPAR    ON      NM   R$  000000000757400000000077490000000007491000000000762800000000076950000000007690000000000770007556000000000001224900000000009344762500000000000000009999123100000010000000000000BRUGPAACNOR8137
012016081602UGPA3       010ULTRAPAR    ON      NM   R$  000000000770200000000078280000000007592000000000775800000000078260000000007814000000000782609435000000000001638300000000012711340900000000000000009999123100000010000000000000BRUGPAACNOR8137
012016081702UGPA3       010ULTRAPAR    ON      NM   R$  000000000784300000000079050000000007699000000000780100000000079050000000007905000000000791009041000000000001590500000000012412250900000000000000009999123100000010000000000000BRUGPAACNOR8137
012016081802UGPA3       010ULTRAPAR    ON  ED  NM   R$  000000000783500000000078650000000007690000000000775000000000077260000000007725000000000772604171000000000000892700000000006918900800000000000000009999123100000010000000000000BRUGPAACNOR8138
012016081902UGPA3       010ULTRAPAR    ON  ED  NM   R$  000000000774400000000077440000000007624000000000769000000000077110000000007701000000000771102542000000000000411300000000003163092000000000000000009999123100000010000000000000BRUGPAACNOR8138
012016082202UGPA3       010ULTRAPAR    ON  ED  NM   R$  000000000765900000000076710000000007509000000000756400000000075650000000007556000000000756904188000000000000702200000000005311756800000000000000009999123100000010000000000000BRUGPAACNOR8138
012016082302UGPA3       010ULTRAPAR    ON  ED  NM   R$  000000000761100000000076690000000007554000000000759900000000075540000000007554000000000758804827000000000000881900000000006701762900000000000000009999123100000010000000000000BRUGPAACNOR8138
012016082402UGPA3       010ULTRAPAR    ON  ED  NM   R$  000000000757000000000076100000000007478000000000750700000000074840000000007484000000000748904521000000000001095000000000008220622900000000000000009999123100000010000000000000BRUGPAACNOR8138
012016082502UGPA3       010ULTRAPAR    ON  ED  NM   R$  000000000750000000000075730000000007414000000000745900000000074320000000007432000000000744307809000000000001411700000000010530137600000000000000009999123100000010000000000000BRUGPAACNOR8138
012016082602UGPA3       010ULTRAPAR    ON  ED  NM   R$  000000000747900000000075300000000007345000000000742000000000074200000000007410000000000742008774000000000001546800000000011478553900000000000000009999123100000010000000000000BRUGPAACNOR8138
012016082902UGPA3       010ULTRAPAR    ON  ED  NM   R$  000000000746900000000075860000000007357000000000751100000000075400000000007540000000000755807357000000000001783400000000013395474500000000000000009999123100000010000000000000BRUGPAACNOR8138
012016083002UGPA3       010ULTRAPAR    ON      NM   R$  000000000755900000000076170000000007472000000000751700000000075000000000007490000000000750005000000000000000782100000000005879811000000000000000009999123100000010000000000000BRUGPAACNOR8138
012016083102UGPA3       010ULTRAPAR    ON      NM   R$  000000000752000000000075390000000007387000000000742500000000074430000000007436000000000744306283000000000001474900000000010951916400000000000000009999123100000010000000000000BRUGPAACNOR8138
012016090102UGPA3       010ULTRAPAR    ON      NM   R$  000000000747400000000074750000000007212000000000724200000000072200000000007217000000000722010159000000000002960000000000021438838600000000000000009999123100000010000000000000BRUGPAACNOR8138
012016090202UGPA3       010ULTRAPAR    ON      NM   R$  000000000728700000000073530000000007225000000000728500000000072800000000007279000000000728009347000000000001739700000000012674733100000000000000009999123100000010000000000000BRUGPAACNOR8138
012016090502UGPA3       010ULTRAPAR    ON      NM   R$  000000000733900000000073390000000007178000000000727000000000072840000000007251000000000728404870000000000000761000000000005532894700000000000000009999123100000010000000000000BRUGPAACNOR8138
012016090602UGPA3       010ULTRAPAR    ON      NM   R$  000000000730300000000073180000000007248000000000728900000000073120000000007286000000000731206386000000000001495400000000010900522900000000000000009999123100000010000000000000BRUGPAACNOR8138
012016090802UGPA3       010ULTRAPAR    ON      NM   R$  000000000733500000000074000000000007272000000000735800000000073900000000007387000000000739007053000000000001391100000000010236394700000000000000009999123100000010000000000000BRUGPAACNOR8138
012016090902UGPA3       010ULTRAPAR    ON      NM   R$  000000000735000000000073510000000007072000000000714400000000071240000000007123000000000712408297000000000001220700000000008720574900000000000000009999123100000010000000000000BRUGPAACNOR8138
012016091202UGPA3       010ULTRAPAR    ON      NM   R$  000000000705100000000071800000000007051000000000713200000000071800000000007152000000000718004189000000000000632200000000004509082000000000000000009999123100000010000000000000BRUGPAACNOR8138
012016091302UGPA3       010ULTRAPAR    ON      NM   R$  000000000710800000000071490000000006977000000000704400000000071000000000007095000000000710307281000000000001148500000000008090617900000000000000009999123100000010000000000000BRUGPAACNOR8138
012016091402UGPA3       010ULTRAPAR    ON      NM   R$  000000000714100000000071420000000007030000000000707700000000070670000000007064000000000706704424000000000000715400000000005063084500000000000000009999123100000010000000000000BRUGPAACNOR8138
012016091502UGPA3       010ULTRAPAR    ON      NM   R$  000000000709900000000071460000000007057000000000711000000000071050000000007102000000000710503465000000000000612600000000004355473800000000000000009999123100000010000000000000BRUGPAACNOR8138
012016091602UGPA3       010ULTRAPAR    ON      NM   R$  000000000712000000000071230000000006985000000000701100000000069850000000006985000000000700004426000000000001347000000000009443732500000000000000009999123100000010000000000000BRUGPAACNOR8138
012016091902UGPA3       010ULTRAPAR    ON      NM   R$  000000000702000000000071190000000007020000000000708000000000070800000000007080000000000708403928000000000000648800000000004593813000000000000000009999123100000010000000000000BRUGPAACNOR8138
012016092002UGPA3       010ULTRAPAR    ON      NM   R$  000000000713500000000072350000000007064000000000715300000000071460000000007145000000000714804969000000000000934300000000006683885500000000000000009999123100000010000000000000BRUGPAACNOR8138
012016092102UGPA3       010ULTRAPAR    ON      NM   R$  000000000719900000000072000000000006987000000000705600000000070690000000007061000000000706908594000000000001494400000000010545704500000000000000009999123100000010000000000000BRUGPAACNOR8138
012016092202UGPA3       010ULTRAPAR    ON      NM   R$  000000000712000000000071670000000007010000000000706900000000070100000000007009000000000701007254000000000001897300000000013411495400000000000000009999123100000010000000000000BRUGPAACNOR8138
012016092302UGPA3       010ULTRAPAR    ON      NM   R$  000000000706200000000071250000000007030000000000707000000000070710000000007069000000000707106034000000000001041900000000007366644500000000000000009999123100000010000000000000BRUGPAACNOR8138
012016092602UGPA3       010ULTRAPAR    ON      NM   R$  000000000703100000000070550000000006995000000000702300000000070550000000007020000000000705503212000000000000634400000000004455491500000000000000009999123100000010000000000000BRUGPAACNOR8138
012016092702UGPA3       010ULTRAPAR    ON      NM   R$  000000000708700000000070870000000006977000000000704700000000070670000000007058000000000706704444000000000000830400000000005851901200000000000000009999123100000010000000000000BRUGPAACNOR8138
012016092802UGPA3       010ULTRAPAR    ON      NM   R$  000000000706700000000071410000000006980000000000708000000000071020000000007102000000000713205053000000000000818000000000005792184100000000000000009999123100000010000000000000BRUGPAACNOR8138
012016092902UGPA3       010ULTRAPAR    ON      NM   R$  000000000711500000000071430000000007039000000000708100000000070670000000007067000000000709103792000000000000629600000000004458682000000000000000009999123100000010000000000000BRUGPAACNOR8138
012016093002UGPA3       010ULTRAPAR    ON      NM   R$  000000000709300000000072100000000007051000000000712900000000071060000000007106000000000716505685000000000001243700000000008866345400000000000000009999123100000010000000000000BRUGPAACNOR8138
012016100302UGPA3       010ULTRAPAR    ON      NM   R$  000000000710600000000072100000000007099000000000716600000000071590000000007159000000000717406126000000000000905900000000006491773200000000000000009999123100000010000000000000BRUGPAACNOR8138
012016100402UGPA3       010ULTRAPAR    ON      NM   R$  000000000716000000000071910000000007062000000000713700000000071720000000007164000000000717204835000000000000867300000000006190448300000000000000009999123100000010000000000000BRUGPAACNOR8138
012016100502UGPA3       010ULTRAPAR    ON      NM   R$  000000000721200000000072690000000007188000000000722400000000072090000000007205000000000720905014000000000000699700000000005054468300000000000000009999123100000010000000000000BRUGPAACNOR8138
012016100602UGPA3       010ULTRAPAR    ON      NM   R$  000000000723300000000072610000000007169000000000720800000000072410000000007236000000000724105134000000000000826800000000005960512400000000000000009999123100000010000000000000BRUGPAACNOR8138
012016100702UGPA3       010ULTRAPAR    ON      NM   R$  000000000726100000000073040000000007175000000000726600000000073000000000007300000000000730205203000000000001145500000000008324399200000000000000009999123100000010000000000000BRUGPAACNOR8138
012016101002UGPA3       010ULTRAPAR    ON      NM   R$  000000000732500000000073300000000007248000000000730600000000073150000000007308000000000731503370000000000000851500000000006221180200000000000000009999123100000010000000000000BRUGPAACNOR8138
012016101102UGPA3       010ULTRAPAR    ON      NM   R$  000000000731300000000073130000000007125000000000716700000000071500000000007150000000000716006113000000000001155200000000008279381400000000000000009999123100000010000000000000BRUGPAACNOR8138
012016101302UGPA3       010ULTRAPAR    ON      NM   R$  000000000714000000000072080000000007115000000000717000000000072010000000007155000000000720208413000000000001984500000000014229372100000000000000009999123100000010000000000000BRUGPAACNOR8138
012016101402UGPA3       010ULTRAPAR    ON      NM   R$  000000000724900000000072750000000007093000000000718900000000071400000000007139000000000714307698000000000003748000000000026946567100000000000000009999123100000010000000000000BRUGPAACNOR8138
012016101702UGPA3       010ULTRAPAR    ON      NM   R$  000000000721400000000072950000000007142000000000721300000000072950000000007295000000000729607164000000000003632800000000026205461800000000000000009999123100000010000000000000BRUGPAACNOR8138
012016101802UGPA3       010ULTRAPAR    ON      NM   R$  000000000732600000000073750000000007246000000000732100000000073400000000007339000000000734106082000000000002290300000000016768095200000000000000009999123100000010000000000000BRUGPAACNOR8138
012016101902UGPA3       010ULTRAPAR    ON      NM   R$  000000000734500000000073790000000007211000000000724900000000072410000000007236000000000724105207000000000000910500000000006600843000000000000000009999123100000010000000000000BRUGPAACNOR8138
012016102002UGPA3       010ULTRAPAR    ON      NM   R$  000000000724000000000072480000000007071000000000719400000000072410000000007239000000000724104451000000000000893700000000006429577700000000000000009999123100000010000000000000BRUGPAACNOR8138
012016102102UGPA3       010ULTRAPAR    ON      NM   R$  000000000720000000000073000000000007162000000000724900000000072500000000007250000000000725704242000000000001714900000000012432381800000000000000009999123100000010000000000000BRUGPAACNOR8138
012016102402UGPA3       010ULTRAPAR    ON      NM   R$  000000000725900000000072810000000007188000000000723100000000072300000000007216000000000723004108000000000000877300000000006344405700000000000000009999123100000010000000000000BRUGPAACNOR8138
012016102502UGPA3       010ULTRAPAR    ON      NM   R$  000000000724500000000072750000000007157000000000724400000000072750000000007262000000000727504451000000000000736600000000005336414400000000000000009999123100000010000000000000BRUGPAACNOR8138
012016102602UGPA3       010ULTRAPAR    ON      NM   R$  000000000727900000000072870000000007152000000000723500000000072750000000007244000000000727505650000000000001030600000000007457153900000000000000009999123100000010000000000000BRUGPAACNOR8138
012016102702UGPA3       010ULTRAPAR    ON      NM   R$  000000000726900000000073280000000007235000000000727200000000072520000000007251000000000725703816000000000000856700000000006230258500000000000000009999123100000010000000000000BRUGPAACNOR8138
012016102802UGPA3       010ULTRAPAR    ON      NM   R$  000000000725100000000072940000000007197000000000725500000000072600000000007255000000000726204144000000000000681500000000004944397900000000000000009999123100000010000000000000BRUGPAACNOR8138
012016103102UGPA3       010ULTRAPAR    ON      NM   R$  000000000724600000000072770000000007166000000000722700000000072330000000007231000000000724405542000000000000972500000000007028610300000000000000009999123100000010000000000000BRUGPAACNOR8138
012016110102UGPA3       010ULTRAPAR    ON      NM   R$  000000000723300000000072330000000007000000000000705600000000070360000000007036000000000704707358000000000001301200000000009181937500000000000000009999123100000010000000000000BRUGPAACNOR8138
012016110302UGPA3       010ULTRAPAR    ON      NM   R$  000000000699900000000070400000000006959000000000699700000000070000000000006997000000000700006407000000000001199600000000008394405100000000000000009999123100000010000000000000BRUGPAACNOR8138
012016110402UGPA3       010ULTRAPAR    ON      NM   R$  000000000701100000000070320000000006932000000000698300000000069400000000006940000000000695507296000000000001249300000000008723945100000000000000009999123100000010000000000000BRUGPAACNOR8138
012016110702UGPA3       010ULTRAPAR    ON      NM   R$  000000000701500000000070290000000006980000000000700200000000070000000000007000000000000700406421000000000001201500000000008413731800000000000000009999123100000010000000000000BRUGPAACNOR8138
012016110802UGPA3       010ULTRAPAR    ON      NM   R$  000000000701000000000070470000000006965000000000700700000000070100000000006999000000000701004865000000000000727800000000005100163500000000000000009999123100000010000000000000BRUGPAACNOR8138
012016110902UGPA3       010ULTRAPAR    ON      NM   R$  000000000692400000000069250000000006746000000000682100000000068050000000006805000000000680811561000000000001987100000000013554013800000000000000009999123100000010000000000000BRUGPAACNOR8138
012016111002UGPA3       010ULTRAPAR    ON      NM   R$  000000000685100000000068510000000006562000000000666900000000066400000000006630000000000664012808000000000002054800000000013704753500000000000000009999123100000010000000000000BRUGPAACNOR8138
012016111102UGPA3       010ULTRAPAR    ON      NM   R$  000000000653000000000068000000000006364000000000651000000000065400000000006530000000000654017230000000000002737300000000017821300800000000000000009999123100000010000000000000BRUGPAACNOR8138
012016111402UGPA3       010ULTRAPAR    ON      NM   R$  000000000655000000000066120000000006422000000000653700000000065620000000006562000000000657311434000000000002117000000000013839846900000000000000009999123100000010000000000000BRUGPAACNOR8138
012016111602UGPA3       010ULTRAPAR    ON      NM   R$  000000000660000000000068740000000006582000000000676000000000068460000000006845000000000684614200000000000002253500000000015235770500000000000000009999123100000010000000000000BRUGPAACNOR8138
012016111702UGPA3       010ULTRAPAR    ON      NM   R$  000000000693500000000069400000000006615000000000675200000000068000000000006800000000000680112030000000000002089300000000014107023200000000000000009999123100000010000000000000BRUGPAACNOR8138
012016111802UGPA3       010ULTRAPAR    ON      NM   R$  000000000686800000000069900000000006763000000000690200000000069210000000006920000000000692109625000000000001699700000000011731882700000000000000009999123100000010000000000000BRUGPAACNOR8138
012016112102UGPA3       010ULTRAPAR    ON      NM   R$  000000000698500000000070650000000006907000000000697000000000069100000000006910000000000692005967000000000001866500000000013009671300000000000000009999123100000010000000000000BRUGPAACNOR8138
012016112202UGPA3       010ULTRAPAR    ON      NM   R$  000000000698100000000071000000000006917000000000701200000000070240000000007018000000000702406071000000000001379100000000009670464700000000000000009999123100000010000000000000BRUGPAACNOR8138
012016112302UGPA3       010ULTRAPAR    ON      NM   R$  000000000703900000000070400000000006836000000000694100000000069830000000006971000000000698305250000000000000819500000000005688894600000000000000009999123100000010000000000000BRUGPAACNOR8138
012016112402UGPA3       010ULTRAPAR    ON      NM   R$  000000000698300000000070830000000006858000000000700600000000070000000000007000000000000700802734000000000000619900000000004343387000000000000000009999123100000010000000000000BRUGPAACNOR8138
012016112502UGPA3       010ULTRAPAR    ON      NM   R$  000000000696800000000071340000000006917000000000706800000000071150000000007113000000000711505693000000000001065100000000007528613000000000000000009999123100000010000000000000BRUGPAACNOR8138
012016112802UGPA3       010ULTRAPAR    ON      NM   R$  000000000712300000000071350000000007001000000000706700000000070900000000007086000000000709005226000000000000764300000000005401779700000000000000009999123100000010000000000000BRUGPAACNOR8138
012016112902UGPA3       010ULTRAPAR    ON      NM   R$  000000000704900000000070590000000006900000000000696000000000069550000000006955000000000695610927000000000002684000000000018682708400000000000000009999123100000010000000000000BRUGPAACNOR8138
012016113002UGPA3       010ULTRAPAR    ON      NM   R$  000000000700000000000070010000000006850000000000691500000000069100000000006910000000000691508196000000000001584200000000010955075000000000000000009999123100000010000000000000BRUGPAACNOR8138
012016120102UGPA3       010ULTRAPAR    ON      NM   R$  000000000688700000000069370000000006680000000000681000000000068100000000006798000000000681014417000000000002101500000000014311746300000000000000009999123100000010000000000000BRUGPAACNOR8138
012016120202UGPA3       010ULTRAPAR    ON      NM   R$  000000000672200000000068600000000006575000000000679700000000068300000000006818000000000683009497000000000001469700000000009990346100000000000000009999123100000010000000000000BRUGPAACNOR8138
012016120502UGPA3       010ULTRAPAR    ON      NM   R$  000000000677000000000069000000000006748000000000678600000000067650000000006765000000000676606063000000000001257200000000008531997600000000000000009999123100000010000000000000BRUGPAACNOR8138
012016120602UGPA3       010ULTRAPAR    ON      NM   R$  000000000677900000000068070000000006632000000000675300000000067900000000006788000000000679007032000000000001292900000000008731315800000000000000009999123100000010000000000000BRUGPAACNOR8138
012016120702UGPA3       010ULTRAPAR    ON      NM   R$  000000000682300000000068470000000006721000000000675600000000067310000000006731000000000676607187000000000001142300000000007717748100000000000000009999123100000010000000000000BRUGPAACNOR8138
012016120802UGPA3       010ULTRAPAR    ON      NM   R$  000000000673500000000067770000000006580000000000663700000000066000000000006598000000000660007206000000000001673500000000011107550800000000000000009999123100000010000000000000BRUGPAACNOR8138
012016120902UGPA3       010ULTRAPAR    ON      NM   R$  000000000663300000000066380000000006486000000000653500000000065800000000006569000000000658009379000000000002856400000000018668645900000000000000009999123100000010000000000000BRUGPAACNOR8138
012016121202UGPA3       010ULTRAPAR    ON      NM   R$  000000000652100000000065700000000006463000000000650500000000065310000000006525000000000653106840000000000001203500000000007829437400000000000000009999123100000010000000000000BRUGPAACNOR8138
012016121302UGPA3       010ULTRAPAR    ON      NM   R$  000000000645200000000067000000000006420000000000660900000000066740000000006668000000000667408612000000000001464200000000009677975300000000000000009999123100000010000000000000BRUGPAACNOR8138
012016121402UGPA3       010ULTRAPAR    ON      NM   R$  000000000665100000000066860000000006543000000000659200000000065610000000006560000000000656108150000000000001494400000000009851898900000000000000009999123100000010000000000000BRUGPAACNOR8138
012016121502UGPA3       010ULTRAPAR    ON      NM   R$  000000000655200000000065520000000006370000000000647400000000065190000000006560000000000656108490000000000001290900000000008357948900000000000000009999123100000010000000000000BRUGPAACNOR8138
012016121602UGPA3       010ULTRAPAR    ON      NM   R$  000000000654000000000066980000000006532000000000663000000000066300000000006630000000000663104904000000000001264600000000008384955800000000000000009999123100000010000000000000BRUGPAACNOR8138
012016121902UGPA3       010ULTRAPAR    ON      NM   R$  000000000660900000000066350000000006533000000000656600000000065500000000006550000000000655104625000000000000918100000000006028311100000000000000009999123100000010000000000000BRUGPAACNOR8138
012016122002UGPA3       010ULTRAPAR    ON      NM   R$  000000000656100000000065880000000006453000000000652800000000065810000000006558000000000658106040000000000001014600000000006623377100000000000000009999123100000010000000000000BRUGPAACNOR8138
012016122102UGPA3       010ULTRAPAR    ON      NM   R$  000000000659800000000066500000000006488000000000653900000000065420000000006542000000000654305760000000000001416900000000009266056700000000000000009999123100000010000000000000BRUGPAACNOR8138
012016122202UGPA3       010ULTRAPAR    ON      NM   R$  000000000653800000000066490000000006490000000000659500000000065980000000006598000000000660204014000000000001020800000000006732294200000000000000009999123100000010000000000000BRUGPAACNOR8138
012016122302UGPA3       010ULTRAPAR    ON      NM   R$  000000000661400000000066330000000006532000000000658900000000065900000000006589000000000659903324000000000000746200000000004917052500000000000000009999123100000010000000000000BRUGPAACNOR8138
012016122602UGPA3       010ULTRAPAR    ON      NM   R$  000000000658800000000066490000000006536000000000658700000000066000000000006600000000000660501653000000000000280100000000001845175300000000000000009999123100000010000000000000BRUGPAACNOR8138
012016122702UGPA3       010ULTRAPAR    ON      NM   R$  000000000664500000000066450000000006554000000000660100000000066360000000006601000000000663602964000000000000565000000000003729646800000000000000009999123100000010000000000000BRUGPAACNOR8138
012016122802UGPA3       010ULTRAPAR    ON      NM   R$  000000000662900000000067390000000006555000000000666000000000067240000000006715000000000672404895000000000000847400000000005643998200000000000000009999123100000010000000000000BRUGPAACNOR8138
012016122902UGPA3       010ULTRAPAR    ON      NM   R$  000000000672400000000069300000000006660000000000679700000000068450000000006845000000000684704629000000000000967100000000006573765700000000000000009999123100000010000000000000BRUGPAACNOR8138
012016010402WEGE3       010WEG         ON      NM   R$  000000000148600000000015250000000001457000000000148100000000014640000000001464000000000147712034000000000003030300000000004490006300000000000000009999123100000010000000000000BRWEGEACNOR0170
012016010502WEGE3       010WEG         ON      NM   R$  000000000147000000000015350000000001452000000000149800000000015350000000001535000000000153610274000000000002819100000000004225376300000000000000009999123100000010000000000000BRWEGEACNOR0170
012016010602WEGE3       010WEG         ON      NM   R$  000000000148500000000015390000000001485000000000151600000000015000000000001500000000000150811141000000000002519100000000003820556700000000000000009999123100000010000000000000BRWEGEACNOR0170
012016010702WEGE3       010WEG         ON      NM   R$  000000000146300000000015040000000001449000000000146400000000014570000000001457000000000147112298000000000002314500000000003390160100000000000000009999123100000010000000000000BRWEGEACNOR0170
012016010802WEGE3       010WEG         ON      NM   R$  000000000146600000000014800000000001437000000000145600000000014500000000001450000000000145408872000000000001942500000000002828882500000000000000009999123100000010000000000000BRWEGEACNOR0170
012016011102WEGE3       010WEG         ON      NM   R$  000000000146800000000014720000000001417000000000143900000000014170000000001417000000000142912281000000000002178000000000003135366900000000000000009999123100000010000000000000BRWEGEACNOR0170
012016011202WEGE3       010WEG         ON      NM   R$  000000000142600000000014850000000001416000000000145900000000014800000000001478000000000148010774000000000002026300000000002957854300000000000000009999123100000010000000000000BRWEGEACNOR0170
012016011302WEGE3       010WEG         ON      NM   R$  000000000149000000000014970000000001422000000000144700000000014250000000001423000000000142511493000000000002029900000000002938431200000000000000009999123100000010000000000000BRWEGEACNOR0170
012016011402WEGE3       010WEG         ON      NM   R$  000000000142300000000014500000000001401000000000141900000000014260000000001421000000000142608373000000000001789800000000002540627500000000000000009999123100000010000000000000BRWEGEACNOR0170
012016011502WEGE3       010WEG         ON      NM   R$  000000000141600000000014440000000001373000000000140100000000014120000000001411000000000141711649000000000002729000000000003823632600000000000000009999123100000010000000000000BRWEGEACNOR0170
012016011802WEGE3       010WEG         ON      NM   R$  000000000142100000000014210000000001396000000000140800000000013960000000001396000000000141503995000000000000919600000000001295448800000000000000009999123100000010000000000000BRWEGEACNOR0170
012016011902WEGE3       010WEG         ON      NM   R$  000000000141800000000014360000000001399000000000141700000000014070000000001400000000000140906925000000000001474600000000002090151200000000000000009999123100000010000000000000BRWEGEACNOR0170
012016012002WEGE3       010WEG         ON      NM   R$  000000000139700000000014070000000001343000000000137200000000013870000000001387000000000139011550000000000002161100000000002965879100000000000000009999123100000010000000000000BRWEGEACNOR0170
012016012102WEGE3       010WEG         ON      NM   R$  000000000138700000000014630000000001380000000000144000000000014490000000001437000000000144911342000000000003122500000000004496916000000000000000009999123100000010000000000000BRWEGEACNOR0170
012016012202WEGE3       010WEG         ON      NM   R$  000000000145200000000014950000000001444000000000147600000000014750000000001474000000000147513295000000000002335600000000003448391100000000000000009999123100000010000000000000BRWEGEACNOR0170
012016012602WEGE3       010WEG         ON      NM   R$  000000000145000000000014700000000001405000000000142300000000014190000000001419000000000143410002000000000001714900000000002441257100000000000000009999123100000010000000000000BRWEGEACNOR0170
012016012702WEGE3       010WEG         ON      NM   R$  000000000141100000000015040000000001411000000000147900000000014770000000001477000000000148811648000000000002442800000000003614104300000000000000009999123100000010000000000000BRWEGEACNOR0170
012016012802WEGE3       010WEG         ON      NM   R$  000000000148600000000015150000000001456000000000148000000000014730000000001469000000000147311334000000000001994800000000002953209900000000000000009999123100000010000000000000BRWEGEACNOR0170
012016012902WEGE3       010WEG         ON      NM   R$  000000000148600000000015650000000001486000000000154000000000015460000000001538000000000154710338000000000002815800000000004336707200000000000000009999123100000010000000000000BRWEGEACNOR0170
012016020102WEGE3       010WEG         ON      NM   R$  000000000151700000000015310000000001477000000000149800000000015080000000001503000000000150910556000000000002349800000000003522181900000000000000009999123100000010000000000000BRWEGEACNOR0170
012016020202WEGE3       010WEG         ON      NM   R$  000000000149900000000015070000000001446000000000146900000000014460000000001446000000000145708701000000000001960400000000002881658500000000000000009999123100000010000000000000BRWEGEACNOR0170
012016020302WEGE3       010WEG         ON      NM   R$  000000000146700000000014990000000001436000000000147400000000014740000000001474000000000148012287000000000002279500000000003360265100000000000000009999123100000010000000000000BRWEGEACNOR0170
012016020402WEGE3       010WEG         ON      NM   R$  000000000150000000000015400000000001466000000000150400000000014680000000001466000000000146813555000000000002998600000000004511588100000000000000009999123100000010000000000000BRWEGEACNOR0170
012016020502WEGE3       010WEG         ON      NM   R$  000000000146800000000015050000000001455000000000147800000000014600000000001457000000000146312018000000000002836800000000004194066300000000000000009999123100000010000000000000BRWEGEACNOR0170
012016021002WEGE3       010WEG         ON      NM   R$  000000000145000000000014960000000001445000000000146200000000014600000000001454000000000146007335000000000001253500000000001833522500000000000000009999123100000010000000000000BRWEGEACNOR0170
012016021102WEGE3       010WEG         ON      NM   R$  000000000144400000000014630000000001416000000000143700000000014270000000001427000000000143010392000000000001817400000000002611862400000000000000009999123100000010000000000000BRWEGEACNOR0170
012016021202WEGE3       010WEG         ON      NM   R$  000000000143000000000014440000000001412000000000142900000000014350000000001426000000000143507511000000000001422500000000002033130400000000000000009999123100000010000000000000BRWEGEACNOR0170
012016021502WEGE3       010WEG         ON      NM   R$  000000000144200000000014650000000001402000000000141900000000014020000000001402000000000141406805000000000001461900000000002074480100000000000000009999123100000010000000000000BRWEGEACNOR0170
012016021602WEGE3       010WEG         ON      NM   R$  000000000140800000000014350000000001393000000000140600000000014000000000001399000000000140210656000000000002125100000000002988418200000000000000009999123100000010000000000000BRWEGEACNOR0170
012016021702WEGE3       010WEG         ON      NM   R$  000000000141900000000014190000000001380000000000140200000000013990000000001398000000000139918594000000000004319800000000006060180900000000000000009999123100000010000000000000BRWEGEACNOR0170
012016021802WEGE3       010WEG         ON      NM   R$  000000000139800000000014210000000001392000000000141200000000014150000000001413000000000141507394000000000001964700000000002774342300000000000000009999123100000010000000000000BRWEGEACNOR0170
012016021902WEGE3       010WEG         ON      NM   R$  000000000140700000000014100000000001394000000000140200000000014000000000001398000000000140008357000000000002148200000000003012171600000000000000009999123100000010000000000000BRWEGEACNOR0170
012016022202WEGE3       010WEG         ON      NM   R$  000000000141800000000014680000000001416000000000145100000000014600000000001459000000000146010726000000000002227000000000003232352700000000000000009999123100000010000000000000BRWEGEACNOR0170
012016022302WEGE3       010WEG         ON      NM   R$  000000000146600000000014890000000001435000000000146300000000014460000000001445000000000144607862000000000002024000000000002962920500000000000000009999123100000010000000000000BRWEGEACNOR0170
012016022402WEGE3       010WEG         ON  ED  NM   R$  000000000135100000000013750000000001295000000000132500000000013070000000001307000000000130919238000000000007170600000000009502687600000000000000009999123100000010000000000000BRWEGEACNOR0171
012016022502WEGE3       010WEG         ON  ED  NM   R$  000000000130700000000013300000000001276000000000131000000000013200000000001318000000000132014031000000000005330300000000006986156800000000000000009999123100000010000000000000BRWEGEACNOR0171
012016022602WEGE3       010WEG         ON  ED  NM   R$  000000000133500000000013580000000001280000000000130800000000012850000000001285000000000128613000000000000004333800000000005670750200000000000000009999123100000010000000000000BRWEGEACNOR0171
012016022902WEGE3       010WEG         ON  ED  NM   R$  000000000130900000000013380000000001294000000000132000000000013190000000001312000000000132010766000000000003367600000000004445481800000000000000009999123100000010000000000000BRWEGEACNOR0171
012016030102WEGE3       010WEG         ON  ED  NM   R$  000000000132700000000013450000000001305000000000132400000000013250000000001311000000000132515405000000000003741600000000004956500100000000000000009999123100000010000000000000BRWEGEACNOR0171
012016030202WEGE3       010WEG         ON  ED  NM   R$  000000000132500000000013770000000001324000000000134800000000013650000000001357000000000136511524000000000005876700000000007924323000000000000000009999123100000010000000000000BRWEGEACNOR0171
012016030302WEGE3       010WEG         ON  ED  NM   R$  000000000137700000000013830000000001336000000000135500000000013550000000001354000000000135517091000000000005171400000000007009630800000000000000009999123100000010000000000000BRWEGEACNOR0171
012016030402WEGE3       010WEG         ON  ED  NM   R$  000000000136600000000013850000000001305000000000135100000000013730000000001371000000000137324270000000000006118900000000008272616500000000000000009999123100000010000000000000BRWEGEACNOR0171
012016030702WEGE3       010WEG         ON      NM   R$  000000000138500000000014180000000001374000000000140300000000013960000000001396000000000139712419000000000002517800000000003533941100000000000000009999123100000010000000000000BRWEGEACNOR0171
012016030802WEGE3       010WEG         ON      NM   R$  000000000140200000000014670000000001377000000000143900000000014550000000001455000000000145614499000000000003244300000000004670730600000000000000009999123100000010000000000000BRWEGEACNOR0171
012016030902WEGE3       010WEG         ON      NM   R$  000000000146600000000014720000000001380000000000141300000000013870000000001387000000000139213993000000000003507300000000004956645200000000000000009999123100000010000000000000BRWEGEACNOR0171
012016031002WEGE3       010WEG         ON      NM   R$  000000000140100000000014160000000001331000000000137100000000013760000000001375000000000137716577000000000003189900000000004375379600000000000000009999123100000010000000000000BRWEGEACNOR0171
012016031102WEGE3       010WEG         ON      NM   R$  000000000137700000000013920000000001354000000000136900000000013620000000001360000000000136209530000000000002203800000000003017230700000000000000009999123100000010000000000000BRWEGEACNOR0171
012016031402WEGE3       010WEG         ON      NM   R$  000000000136700000000013780000000001336000000000135000000000013500000000001350000000000135312241000000000002787600000000003764210300000000000000009999123100000010000000000000BRWEGEACNOR0171
012016031502WEGE3       010WEG         ON      NM   R$  000000000135100000000013700000000001316000000000134400000000013500000000001347000000000135007730000000000002248500000000003022282700000000000000009999123100000010000000000000BRWEGEACNOR0171
012016031602WEGE3       010WEG         ON      NM   R$  000000000134500000000013850000000001325000000000136100000000013790000000001375000000000137908769000000000002106100000000002868218100000000000000009999123100000010000000000000BRWEGEACNOR0171
012016031702WEGE3       010WEG         ON      NM   R$  000000000141400000000014400000000001369000000000141500000000014280000000001427000000000142813441000000000002670500000000003781487500000000000000009999123100000010000000000000BRWEGEACNOR0171
012016031802WEGE3       010WEG         ON      NM   R$  000000000144600000000014500000000001418000000000143600000000014400000000001438000000000144007803000000000003255100000000004676528700000000000000009999123100000010000000000000BRWEGEACNOR0171
012016032102WEGE3       010WEG         ON      NM   R$  000000000144900000000014750000000001435000000000145900000000014610000000001456000000000146108570000000000001934000000000002823576400000000000000009999123100000010000000000000BRWEGEACNOR0171
012016032202WEGE3       010WEG         ON      NM   R$  000000000146000000000014860000000001447000000000146600000000014800000000001473000000000148008915000000000003209400000000004707926300000000000000009999123100000010000000000000BRWEGEACNOR0171
012016032302WEGE3       010WEG         ON  EJ  NM   R$  000000000146700000000014690000000001392000000000141300000000014030000000001403000000000140407848000000000001683800000000002380467000000000000000009999123100000010000000000000BRWEGEACNOR0172
012016032402WEGE3       010WEG         ON  EJ  NM   R$  000000000141700000000014170000000001372000000000138800000000013900000000001389000000000139007883000000000001415400000000001965261900000000000000009999123100000010000000000000BRWEGEACNOR0172
012016032802WEGE3       010WEG         ON  EJ  NM   R$  000000000142000000000014300000000001386000000000141500000000014230000000001422000000000142307275000000000001454500000000002058202000000000000000009999123100000010000000000000BRWEGEACNOR0172
012016032902WEGE3       010WEG         ON  EJ  NM   R$  000000000142500000000014690000000001422000000000145200000000014600000000001456000000000146107827000000000001651300000000002398904700000000000000009999123100000010000000000000BRWEGEACNOR0172
012016033002WEGE3       010WEG         ON  EJ  NM   R$  000000000147100000000015140000000001428000000000147000000000014510000000001442000000000145111355000000000002737400000000004026376500000000000000009999123100000010000000000000BRWEGEACNOR0172
012016033102WEGE3       010WEG         ON  EJ  NM   R$  000000000145800000000014580000000001383000000000140100000000014010000000001400000000000140112862000000000003462900000000004854929100000000000000009999123100000010000000000000BRWEGEACNOR0172
012016040102WEGE3       010WEG         ON  EJ  NM   R$  000000000141000000000014440000000001389000000000142800000000014320000000001432000000000144107368000000000002594700000000003707521500000000000000009999123100000010000000000000BRWEGEACNOR0172
012016040402WEGE3       010WEG         ON  EJ  NM   R$  000000000142100000000014290000000001365000000000139100000000013930000000001387000000000139405830000000000001667500000000002320332300000000000000009999123100000010000000000000BRWEGEACNOR0172
012016040502WEGE3       010WEG         ON      NM   R$  000000000138400000000014330000000001370000000000139700000000013860000000001386000000000139006412000000000001761700000000002462186100000000000000009999123100000010000000000000BRWEGEACNOR0172
012016040602WEGE3       010WEG         ON      NM   R$  000000000137900000000014040000000001362000000000138000000000014000000000001399000000000140008073000000000001944300000000002685057500000000000000009999123100000010000000000000BRWEGEACNOR0172
012016040702WEGE3       010WEG         ON      NM   R$  000000000141200000000014310000000001376000000000140300000000013910000000001391000000000139207325000000000002680700000000003763564300000000000000009999123100000010000000000000BRWEGEACNOR0172
012016040802WEGE3       010WEG         ON      NM   R$  000000000142600000000014310000000001376000000000139500000000013880000000001388000000000139006980000000000002292900000000003200247200000000000000009999123100000010000000000000BRWEGEACNOR0172
012016041102WEGE3       010WEG         ON      NM   R$  000000000139300000000014100000000001316000000000135500000000013310000000001330000000000133309383000000000002510400000000003401694000000000000000009999123100000010000000000000BRWEGEACNOR0172
012016041202WEGE3       010WEG         ON      NM   R$  000000000135100000000013750000000001333000000000135000000000013450000000001345000000000134711683000000000004226600000000005709084100000000000000009999123100000010000000000000BRWEGEACNOR0172
012016041302WEGE3       010WEG         ON      NM   R$  000000000137400000000014090000000001356000000000138400000000013950000000001395000000000140015934000000000004388100000000006077485300000000000000009999123100000010000000000000BRWEGEACNOR0172
012016041402WEGE3       010WEG         ON      NM   R$  000000000140100000000014340000000001371000000000140800000000013940000000001393000000000139513765000000000003365900000000004741581100000000000000009999123100000010000000000000BRWEGEACNOR0172
012016041502WEGE3       010WEG         ON      NM   R$  000000000139000000000014740000000001390000000000144100000000014300000000001430000000000143213766000000000003338900000000004813107300000000000000009999123100000010000000000000BRWEGEACNOR0172
012016041802WEGE3       010WEG         ON      NM   R$  000000000141000000000014650000000001393000000000142000000000014000000000001399000000000140009079000000000002274000000000003228876700000000000000009999123100000010000000000000BRWEGEACNOR0172
012016041902WEGE3       010WEG         ON      NM   R$  000000000141700000000014260000000001373000000000139900000000014050000000001405000000000141011931000000000002596700000000003634286400000000000000009999123100000010000000000000BRWEGEACNOR0172
012016042002WEGE3       010WEG         ON      NM   R$  000000000140600000000014370000000001392000000000140500000000013990000000001397000000000139907799000000000002065100000000002901706800000000000000009999123100000010000000000000BRWEGEACNOR0172
012016042202WEGE3       010WEG         ON      NM   R$  000000000139100000000014170000000001368000000000139600000000014120000000001407000000000141212689000000000003031300000000004233040700000000000000009999123100000010000000000000BRWEGEACNOR0172
012016042502WEGE3       010WEG         ON      NM   R$  000000000141400000000014300000000001400000000000141600000000014090000000001405000000000140906116000000000001873800000000002653787600000000000000009999123100000010000000000000BRWEGEACNOR0172
012016042602WEGE3       010WEG         ON      NM   R$  000000000142800000000014520000000001420000000000144200000000014510000000001447000000000145108762000000000002085500000000003008941000000000000000009999123100000010000000000000BRWEGEACNOR0172
012016042702WEGE3       010WEG         ON      NM   R$  000000000145000000000015350000000001450000000000150700000000015200000000001520000000000152509723000000000003023600000000004557649700000000000000009999123100000010000000000000BRWEGEACNOR0172
012016042802WEGE3       010WEG         ON      NM   R$  000000000152600000000015360000000001495000000000151300000000015270000000001524000000000152708806000000000002316300000000003505697000000000000000009999123100000010000000000000BRWEGEACNOR0172
012016042902WEGE3       010WEG         ON      NM   R$  000000000152800000000015460000000001506000000000151700000000015180000000001517000000000151813453000000000003750600000000005690367900000000000000009999123100000010000000000000BRWEGEACNOR0172
012016050202WEGE3       010WEG         ON      NM   R$  000000000151200000000015380000000001502000000000152200000000015270000000001520000000000152705656000000000001635400000000002489243200000000000000009999123100000010000000000000BRWEGEACNOR0172
012016050302WEGE3       010WEG         ON      NM   R$  000000000151100000000015360000000001502000000000151600000000015210000000001521000000000152206179000000000001566900000000002375780200000000000000009999123100000010000000000000BRWEGEACNOR0172
012016050402WEGE3       010WEG         ON      NM   R$  000000000152400000000015290000000001484000000000150100000000015030000000001503000000000150605430000000000001327100000000001992385700000000000000009999123100000010000000000000BRWEGEACNOR0172
012016050502WEGE3       010WEG         ON      NM   R$  000000000151900000000015250000000001483000000000150800000000015110000000001510000000000152206784000000000001531200000000002309588000000000000000009999123100000010000000000000BRWEGEACNOR0172
012016050602WEGE3       010WEG         ON      NM   R$  000000000151600000000015180000000001488000000000149900000000014980000000001498000000000150605730000000000001240800000000001860633900000000000000009999123100000010000000000000BRWEGEACNOR0172
012016050902WEGE3       010WEG         ON      NM   R$  000000000150400000000015250000000001477000000000150700000000015130000000001513000000000151407376000000000001555800000000002345100500000000000000009999123100000010000000000000BRWEGEACNOR0172
012016051002WEGE3       010WEG         ON      NM   R$  000000000152500000000015750000000001500000000000153800000000015580000000001558000000000156809585000000000002441700000000003758209500000000000000009999123100000010000000000000BRWEGEACNOR0172
012016051102WEGE3       010WEG         ON      NM   R$  000000000158100000000015920000000001546000000000156400000000015490000000001549000000000155609734000000000002122400000000003320972100000000000000009999123100000010000000000000BRWEGEACNOR0172
012016051202WEGE3       010WEG         ON      NM   R$  000000000157000000000015880000000001541000000000157000000000015700000000001564000000000157109240000000000001790300000000002811683300000000000000009999123100000010000000000000BRWEGEACNOR0172
012016051302WEGE3       010WEG         ON      NM   R$  000000000156000000000015660000000001518000000000153800000000015350000000001535000000000154009069000000000001793500000000002759229500000000000000009999123100000010000000000000BRWEGEACNOR0172
012016051602WEGE3       010WEG         ON      NM   R$  000000000151800000000015280000000001497000000000151300000000015100000000001509000000000151307056000000000001554200000000002351847800000000000000009999123100000010000000000000BRWEGEACNOR0172
012016051702WEGE3       010WEG         ON      NM   R$  000000000149500000000015240000000001494000000000150000000000014940000000001494000000000150306034000000000002274200000000003411441000000000000000009999123100000010000000000000BRWEGEACNOR0172
012016051802WEGE3       010WEG         ON      NM   R$  000000000148300000000015210000000001456000000000150200000000015120000000001511000000000151208072000000000002071900000000003112589900000000000000009999123100000010000000000000BRWEGEACNOR0172
012016051902WEGE3       010WEG         ON      NM   R$  000000000150500000000015200000000001459000000000149800000000015090000000001509000000000151706025000000000001905100000000002855557800000000000000009999123100000010000000000000BRWEGEACNOR0172
012016052002WEGE3       010WEG         ON      NM   R$  000000000150600000000015440000000001505000000000153000000000015280000000001528000000000153504824000000000001249700000000001912947500000000000000009999123100000010000000000000BRWEGEACNOR0172
012016052302WEGE3       010WEG         ON      NM   R$  000000000151500000000015200000000001470000000000149600000000014790000000001478000000000148406148000000000005037500000000007539667600000000000000009999123100000010000000000000BRWEGEACNOR0172
012016052402WEGE3       010WEG         ON      NM   R$  000000000148700000000015010000000001472000000000148500000000014860000000001486000000000148704909000000000001015400000000001508618200000000000000009999123100000010000000000000BRWEGEACNOR0172
012016052502WEGE3       010WEG         ON      NM   R$  000000000149400000000015060000000001478000000000149400000000014850000000001484000000000148506439000000000001700500000000002541707800000000000000009999123100000010000000000000BRWEGEACNOR0172
012016052702WEGE3       010WEG         ON      NM   R$  000000000149100000000015110000000001460000000000148100000000014600000000001460000000000146806314000000000002057200000000003046776900000000000000009999123100000010000000000000BRWEGEACNOR0172
012016053002WEGE3       010WEG         ON      NM   R$  000000000146800000000014770000000001436000000000145700000000014720000000001461000000000147202945000000000000665900000000000970773300000000000000009999123100000010000000000000BRWEGEACNOR0172
012016053102WEGE3       010WEG         ON      NM   R$  000000000146300000000014880000000001439000000000145200000000014390000000001439000000000144408091000000000003017700000000004384307900000000000000009999123100000010000000000000BRWEGEACNOR0172
012016060102WEGE3       010WEG         ON      NM   R$  000000000144800000000015110000000001448000000000147900000000014890000000001484000000000148906844000000000002573100000000003807159400000000000000009999123100000010000000000000BRWEGEACNOR0172
012016060202WEGE3       010WEG         ON      NM   R$  000000000148900000000014910000000001459000000000147200000000014770000000001477000000000147905433000000000001341900000000001975821300000000000000009999123100000010000000000000BRWEGEACNOR0172
012016060302WEGE3       010WEG         ON      NM   R$  000000000148600000000014890000000001446000000000147500000000014830000000001483000000000148406016000000000001373900000000002027596300000000000000009999123100000010000000000000BRWEGEACNOR0172
012016060602WEGE3       010WEG         ON      NM   R$  000000000149100000000015030000000001469000000000148600000000014950000000001493000000000149606978000000000001314300000000001953557800000000000000009999123100000010000000000000BRWEGEACNOR0172
012016060702WEGE3       010WEG         ON      NM   R$  000000000148500000000015000000000001476000000000148800000000014840000000001482000000000148405530000000000001016600000000001513063900000000000000009999123100000010000000000000BRWEGEACNOR0172
012016060802WEGE3       010WEG         ON      NM   R$  000000000148700000000015250000000001483000000000150700000000015090000000001507000000000150906152000000000001664300000000002508602000000000000000009999123100000010000000000000BRWEGEACNOR0172
012016060902WEGE3       010WEG         ON      NM   R$  000000000151200000000015260000000001478000000000149300000000014820000000001482000000000148905235000000000001388400000000002073961200000000000000009999123100000010000000000000BRWEGEACNOR0172
012016061002WEGE3       010WEG         ON      NM   R$  000000000148000000000014910000000001425000000000144600000000014330000000001432000000000143308420000000000001616900000000002339016200000000000000009999123100000010000000000000BRWEGEACNOR0172
012016061302WEGE3       010WEG         ON      NM   R$  000000000141100000000014440000000001408000000000143400000000014390000000001437000000000143907319000000000002053100000000002944597200000000000000009999123100000010000000000000BRWEGEACNOR0172
012016061402WEGE3       010WEG         ON      NM   R$  000000000143900000000014530000000001389000000000140700000000013980000000001396000000000139808745000000000002238600000000003151178600000000000000009999123100000010000000000000BRWEGEACNOR0172
012016061502WEGE3       010WEG         ON      NM   R$  000000000140200000000014250000000001378000000000139500000000013870000000001381000000000138707786000000000004112800000000005741021600000000000000009999123100000010000000000000BRWEGEACNOR0172
012016061602WEGE3       010WEG         ON      NM   R$  000000000138000000000014400000000001380000000000142100000000014270000000001426000000000142711151000000000002400300000000003412892200000000000000009999123100000010000000000000BRWEGEACNOR0172
012016061702WEGE3       010WEG         ON      NM   R$  000000000142000000000014430000000001390000000000141200000000014080000000001407000000000140804969000000000001897300000000002680551400000000000000009999123100000010000000000000BRWEGEACNOR0172
012016062002WEGE3       010WEG         ON      NM   R$  000000000142500000000014560000000001410000000000142900000000014210000000001416000000000142104578000000000001191100000000001702286600000000000000009999123100000010000000000000BRWEGEACNOR0172
012016062102WEGE3       010WEG         ON      NM   R$  000000000142000000000014590000000001401000000000142800000000014430000000001443000000000144708046000000000001534700000000002193043700000000000000009999123100000010000000000000BRWEGEACNOR0172
012016062202WEGE3       010WEG         ON      NM   R$  000000000143600000000014780000000001425000000000145200000000014420000000001435000000000144206847000000000002198400000000003193225300000000000000009999123100000010000000000000BRWEGEACNOR0172
012016062302WEGE3       010WEG         ON      NM   R$  000000000144300000000014590000000001425000000000144400000000014590000000001453000000000145906121000000000001231400000000001779327600000000000000009999123100000010000000000000BRWEGEACNOR0172
012016062402WEGE3       010WEG         ON      NM   R$  000000000141100000000014470000000001397000000000141200000000014160000000001411000000000141610255000000000002494400000000003523633400000000000000009999123100000010000000000000BRWEGEACNOR0172
012016062702WEGE3       010WEG         ON      NM   R$  000000000140900000000014210000000001382000000000140200000000014000000000001391000000000139505510000000000001146900000000001608021400000000000000009999123100000010000000000000BRWEGEACNOR0172
012016062802WEGE3       010WEG         ON      NM   R$  000000000140900000000014160000000001363000000000137400000000013740000000001372000000000137508428000000000002544200000000003497470700000000000000009999123100000010000000000000BRWEGEACNOR0172
012016062902WEGE3       010WEG         ON  EJ  NM   R$  000000000138200000000013960000000001368000000000137700000000013740000000001373000000000137406252000000000002207800000000003040257800000000000000009999123100000010000000000000BRWEGEACNOR0173
012016063002WEGE3       010WEG         ON  EJ  NM   R$  000000000137300000000013920000000001352000000000137300000000013740000000001374000000000137507286000000000002455300000000003371912600000000000000009999123100000010000000000000BRWEGEACNOR0173
012016070102WEGE3       010WEG         ON  EJ  NM   R$  000000000138200000000013970000000001358000000000136800000000013710000000001369000000000137107615000000000002207100000000003021089200000000000000009999123100000010000000000000BRWEGEACNOR0173
012016070402WEGE3       010WEG         ON  EJ  NM   R$  000000000137200000000013800000000001353000000000136200000000013550000000001355000000000135805906000000000001355500000000001847090600000000000000009999123100000010000000000000BRWEGEACNOR0173
012016070502WEGE3       010WEG         ON  EJ  NM   R$  000000000135500000000013570000000001328000000000133900000000013400000000001340000000000134106552000000000002405700000000003223424400000000000000009999123100000010000000000000BRWEGEACNOR0173
012016070602WEGE3       010WEG         ON  EJ  NM   R$  000000000133800000000013460000000001316000000000133100000000013400000000001340000000000134405675000000000001850300000000002464142700000000000000009999123100000010000000000000BRWEGEACNOR0173
012016070702WEGE3       010WEG         ON  EJ  NM   R$  000000000134000000000013710000000001340000000000135800000000013540000000001354000000000135708553000000000002989600000000004061650900000000000000009999123100000010000000000000BRWEGEACNOR0173
012016070802WEGE3       010WEG         ON  EJ  NM   R$  000000000136100000000013720000000001346000000000136200000000013700000000001368000000000137005041000000000001905300000000002596250900000000000000009999123100000010000000000000BRWEGEACNOR0173
012016071102WEGE3       010WEG         ON      NM   R$  000000000137700000000013770000000001340000000000135100000000013400000000001339000000000134807345000000000003922900000000005300980800000000000000009999123100000010000000000000BRWEGEACNOR0173
012016071202WEGE3       010WEG         ON      NM   R$  000000000134800000000013550000000001318000000000133400000000013210000000001320000000000132109714000000000002882200000000003845644800000000000000009999123100000010000000000000BRWEGEACNOR0173
012016071302WEGE3       010WEG         ON      NM   R$  000000000132200000000013510000000001321000000000133700000000013390000000001336000000000133906944000000000002014400000000002693298700000000000000009999123100000010000000000000BRWEGEACNOR0173
012016071402WEGE3       010WEG         ON      NM   R$  000000000134900000000013830000000001348000000000136900000000013780000000001373000000000137809455000000000002440800000000003343611100000000000000009999123100000010000000000000BRWEGEACNOR0173
012016071502WEGE3       010WEG         ON      NM   R$  000000000138300000000014000000000001377000000000138600000000013820000000001382000000000138307668000000000001722000000000002387789600000000000000009999123100000010000000000000BRWEGEACNOR0173
012016071802WEGE3       010WEG         ON      NM   R$  000000000138200000000014190000000001355000000000140000000000014150000000001414000000000141506123000000000001845500000000002585330000000000000000009999123100000010000000000000BRWEGEACNOR0173
012016071902WEGE3       010WEG         ON      NM   R$  000000000141500000000014280000000001393000000000141600000000014220000000001414000000000142209690000000000001672500000000002369291000000000000000009999123100000010000000000000BRWEGEACNOR0173
012016072002WEGE3       010WEG         ON      NM   R$  000000000142500000000014480000000001412000000000143300000000014370000000001437000000000143906947000000000002191100000000003140833400000000000000009999123100000010000000000000BRWEGEACNOR0173
012016072102WEGE3       010WEG         ON      NM   R$  000000000143400000000014650000000001428000000000145000000000014620000000001457000000000146307268000000000001591800000000002308550400000000000000009999123100000010000000000000BRWEGEACNOR0173
012016072202WEGE3       010WEG         ON      NM   R$  000000000146000000000014860000000001446000000000146300000000014660000000001461000000000146606851000000000001440400000000002108219900000000000000009999123100000010000000000000BRWEGEACNOR0173
012016072502WEGE3       010WEG         ON      NM   R$  000000000146900000000014750000000001432000000000144500000000014490000000001445000000000144906031000000000001685600000000002436637400000000000000009999123100000010000000000000BRWEGEACNOR0173
012016072602WEGE3       010WEG         ON      NM   R$  000000000144900000000014670000000001437000000000145800000000014600000000001460000000000146311486000000000002687300000000003918276400000000000000009999123100000010000000000000BRWEGEACNOR0173
012016072702WEGE3       010WEG         ON      NM   R$  000000000146000000000015270000000001445000000000150500000000015200000000001520000000000152310504000000000002494400000000003754185600000000000000009999123100000010000000000000BRWEGEACNOR0173
012016072802WEGE3       010WEG         ON      NM   R$  000000000152000000000015300000000001490000000000151200000000015300000000001530000000000153107514000000000001819700000000002753061000000000000000009999123100000010000000000000BRWEGEACNOR0173
012016072902WEGE3       010WEG         ON      NM   R$  000000000153000000000015390000000001506000000000152400000000015270000000001526000000000152710493000000000002567500000000003913099500000000000000009999123100000010000000000000BRWEGEACNOR0173
012016080102WEGE3       010WEG         ON  ED  NM   R$  000000000152400000000015480000000001506000000000153100000000015480000000001541000000000154806783000000000001904200000000002916496600000000000000009999123100000010000000000000BRWEGEACNOR0174
012016080202WEGE3       010WEG         ON  ED  NM   R$  000000000153500000000015590000000001529000000000154300000000015430000000001543000000000154407150000000000001814400000000002800219200000000000000009999123100000010000000000000BRWEGEACNOR0174
012016080302WEGE3       010WEG         ON  ED  NM   R$  000000000153400000000015500000000001527000000000153900000000015450000000001543000000000154507211000000000001668600000000002568102600000000000000009999123100000010000000000000BRWEGEACNOR0174
012016080402WEGE3       010WEG         ON  ED  NM   R$  000000000155000000000016060000000001539000000000156800000000015620000000001560000000000156206954000000000001917000000000003006496600000000000000009999123100000010000000000000BRWEGEACNOR0174
012016080502WEGE3       010WEG         ON  ED  NM   R$  000000000156500000000016030000000001554000000000159200000000015890000000001589000000000159506351000000000002018400000000003214994600000000000000009999123100000010000000000000BRWEGEACNOR0174
012016080802WEGE3       010WEG         ON  ED  NM   R$  000000000158400000000016440000000001581000000000162400000000016330000000001630000000000163309036000000000002194300000000003564503700000000000000009999123100000010000000000000BRWEGEACNOR0174
012016080902WEGE3       010WEG         ON  ED  NM   R$  000000000163300000000016700000000001633000000000166200000000016660000000001661000000000166709593000000000002312600000000003845081900000000000000009999123100000010000000000000BRWEGEACNOR0174
012016081002WEGE3       010WEG         ON  ED  NM   R$  000000000166600000000016720000000001641000000000165700000000016600000000001659000000000166405237000000000001833600000000003038416200000000000000009999123100000010000000000000BRWEGEACNOR0174
012016081102WEGE3       010WEG         ON      NM   R$  000000000165200000000017210000000001652000000000170500000000017130000000001705000000000171308353000000000002126100000000003627018400000000000000009999123100000010000000000000BRWEGEACNOR0174
012016081202WEGE3       010WEG         ON      NM   R$  000000000172000000000017200000000001678000000000170200000000017070000000001706000000000170707477000000000001899600000000003233753100000000000000009999123100000010000000000000BRWEGEACNOR0174
012016081502WEGE3       010WEG         ON      NM   R$  000000000171400000000017410000000001706000000000172200000000017180000000001718000000000171909847000000000002741700000000004722462500000000000000009999123100000010000000000000BRWEGEACNOR0174
